:400000000010002011000000B5030000B503000008B500F079FA00F0CFF90000F7B572B680220021D200554800F0D7FF802200215348D20000F0D1FF0023191C514C185915
:400040001034C2B20192071CFF2297434A00A4180022019ED5B2AE4209D05500665D6519B446BC446D78664635700132F1E7C0B204330918102BE1D1434BC02292041A60F8
:40008000424B99221A60424A00231360414A80211160414AC9031160404A40211160404AC021490311603F4A312113603E4B02221A603E4B802019603D4B3E491A60992317
:4000C0001B040B603C49000608603C493C200B603B4B8021890519603A493B4B19603B4B19780A431A703A4A117881431420014311701A7816210A431A70364A8023116893
:40010000DB020B431360344B141C1878334BC0B21978334BC9B21A78172A05D9314A58789978033B9342F6D12F4B192218602F4B052019602E4B1A6000F052FD2D4B05206D
:400140001A782D4BD2B21A6000F088FE22682B4B134023602A4A2B4B1A602B4B10221A602A4B20221A602A4B802212061A60294A294B1A60294A2A4B1A60F7BD00300F40D5
:4001800000400F40F80F000004000140100001400C000140000004400800044000010440080104400803044000040440080404401804044000500F4004500F4010500F406C
:4001C00018500F40100001002001054000700F4001700F4000010B40CCF1FF0FCDF1FF0FC9F1FF0FBDF1FF0F1CFF0B4020FF0B402CFF0B40E5F1FF0F28FF0B40FFFFFBFF57
:400200000600008004010B40080202402002024008010B401000008000000240AF0400804000024010B5064C2378002B07D1054B002B02D0044800E000BF0123237010BDEC
:40024000F000002000000000F40F000008B5084B002B03D00748084900E000BF07480368002B03D0064B002B00D0984708BDC04600000000F40F0000F4000020D000002069
:400280000000000010B562B600F0A2FC00280ED16524012000F0CCFD00F09AFC002806D1013CE4B2002CF4D1034B40221A6000F081FC00F0D3FAFEE7C000002008B500F05A
:4002C0000BFB00F043FB00F0ABFB08BD70B5054B0D1C161C0024C9B21C8000F095FB3580201C70BD0C010020F0B50A275F4387B003900591151C00262D4CBE4219DA00F00E
:4003000013FB80B220802388002B0CD00220268800F08EFD00F008FB80B220802388B6B2B342F3D807E00120013600F081FDB6B2E2E7052600E0002600272F802388002B8D
:4003400033D023889BB2019301992B885A18059992B22A808A4221D2019ABB189BB2029302998F4209D07B1C9BB20493039BDF1900F0C0FA3870049FF2E772B62388019A02
:400380009B1A9BB2238062B6039A5318013B1B78172B08D0052000F04BFD04E02B8000F0D5FA052601E0029FC8E7301C07B0F0BD0C010020FEE7000070B51048104B0138B5
:4003C000421C15D01E685C689D680022A118AA4203D0B158A1500432F8E7DA680D1C4C1B944202D0002410C1F9E710330138E7E700F0C4FDFFF746FFFEE7C0460100000051
:400400004810000008B500239A00032B02D80D49895800E00C490D4801338150302BF3D1FFF7FCFD0A4B00221A600A4B1A68002A00D11A608023DB051A6801210A431A60E3
:4004400008BDC04600000000B503000000000020C8000020C0000020004710B50023002A05D0013A4418A45C1B19DBB2F7E7181C10BD0000013800B509282AD8C901494236
:4004800000F068FD0507090B0D0F1614181B144B08E0144B12E0144B0DE0144B0EE0144B00E0144BC9180878C0B217E0124B02E0124B00E0124BC9180CE0124BC9180B784E
:4004C00048788A780002120410431843CB781B0603E000210B7848780002184300BDC046C07F0000C17F0000C57F0000C97F0000D07F0000D17F0000D67F0000D27F000059
:40050000D47F0000D87F00000C4B10B51A6810231A400B4B00D11A601A68802A0DD100240220211C1C60FFF7A5FFA04205D0211C0220FFF79FFFFFF78FFF10BD00030B4059
:40054000C0000020F8B5051C291C0320FFF792FF291C041C0420FFF78DFF671CFF013F18291C0320FFF786FF00240130C001261CB84209D203785A1ED2B2FD2A00D801264C
:400580001C19E4B20130F3E70120291CFFF772FF6442E4B20623844203D17242564176423340181CF8BD0000F0B5A44CA544FFF785FE62B600260096002506AC03AE962130
:4005C000201C4900321CFF23FFF78EFE0028F4D13188062900D88AE022780423012A54D1E778A2783F021743E2195679B44616790196FE1D8E427FD89279172A45D1FB18A7
:400600009BB2002B08D09CA98D4ECA1892191278013B801880B2F3E7019B614640420A0280B21A43082382422FD167E0342B00D09DE0009901295AD1032F58D151A80021AE
:40064000802200F0CAFC802551A948192639ED19FA1EFF39ADB200F0B7FC832D49D1A079637900021843774B36021B6880191A6880B2D3099BB2560601D001339BB29842D4
:400680007BD20127009700250A2300210120207068466A46437681766B4600200E32D8760B1D11809BB29CAFFE18654F013BF61936789BB2801980B2002BF4D19CAE624F86
:4006C0007318DE194042614F80B23070DE19000A30705F4807311B181720187089B2201C9623FFF7F3FD68E7009E012E1BD00423CBE70126009600250323C6E763782679DD
:40070000181C31380A2801D90523BEE700F02CFCECFF1400FCFF8EFF3F00FCFF430054008EFF63008B00002FE1D1381CFFF70AFF43424341237173E000980128D7D1012F9B
:40074000D5D1002ED3D13F4B1B681B68DA0BD2B2DB09DBB2002A01D080235B0023711B0A6371FF23A3710023E37104218EE7009B012BBCD1022FBAD966E751A900F044FA3D
:40078000002800D07DE701260096051C12E0009F012FACD110E7009E012EA8D19623EE195B009E42A8D851A948193A1C07A900F00BFCB5B2002368E7002F98D104AB254A22
:4007C000191C41CA41C107AA41CB41C2012600963B1C08215AE70098012888D1032F86D1A37962791B021A43310251180192C90100208022FFF731FE071C002E0ED10199BB
:40080000FF290BD1311C0520FFF734FE311C3F1A0620FFF72FFEFFB23F1AFFB27F4227710023012132E70020FFF78CFE002802D1094B80221A6000F0EFFA58E78CFDFFFF0F
:40084000A7FDFFFFD4000020ACFDFFFFADFDFFFFAEFDFFFF1C100000C000002070B50020FFF770FE0024A04200D00624114E00203368C0211D682A1CC03AFFF7EEFD7368B9
:400880001B78181AC0B2984201D1002D02D1002000F0C0FA084B19681A1C402901D0002C03D000231360FFF77FFE80221A6000F0B3FA70BDD4000020C000002008B5054B78
:4008C0008022196812060A431A600A2000F08EFA08BDC0460000064010B5054C2378002B03D100F0BFF801232370FFF7E7FF10BD10010020094B0A4A1968136899420BD001
:4009000011684B1C4039481E814149420B400549C85C1360C0B200E000207047B0010020280100206C010020064B074A1B6811688B4202D31068181A02E012684133981A3F
:400940007047C046B0010020280100200C4A0D4B002130B5106811601D68802464022C431C601D68084C2C401C60084B1C68084B1C60084B19700849084B1960106030BDCC
:40098000C80F064004030640FFFFFEFF28010020B0010020AD010020ED0F0000C00F0640124910B50A68531C3F3A541EA241524213400F4A1468A342FBD00C6812689442DA
:4009C00008D10C4A14680F222240082A02D00A4B18600AE0094C02222260094CC0B2E0540B60084B19680A431A6010BD24010020200100200802064040020640800F064002
:400A00002C010020880F064038B5041C4518AC4204D02078FFF7C4FF0134F8E738BD00000B4A0023116810B513600A4B80201C684002204318601C68074820401860074B4A
:400A40001868074B186002239943116010BDC046880F064004020640FFFFFEFF20010020240100201D4A1E4B10B51A601D4B00241C601D4B01221A601C491D4B07200B60C2
:400A80001C4908601C490A200C601C490A601C4A13601C4B1C6000F0B3F90A20032100F08BF919490A2000F07FF9184B04221C60174B1C60174B1C60174B1C60174B1A6016
:400AC000174B1C60174B1C60174B1C60174B1C70174B1C60174B1C6010BDC0460B000002000006404000064048000640000306400700008004030640100306404400064078
:400B00000002064004020640710E0000880E0640C80E0640480F0640080F0640C80F0640880F0640B001002028010020AD01002024010020200100200E4B8422D2041A60F9
:400B40001968802252020A431A600B490B4A0A60196819600A4BC32189001960094B00211960094B1C211960084B1A60084A094B1A60704700010540080105401027000088
:400B800024010540380105402801054014010540881300000C01054008B500F02BF8044B01211A680A431A6000F028F808BDC0460000054010B5054C2378002B03D1FFF748
:400BC000BBFF01232370FFF7E7FF10BD18010020024B18680006C00F7047C046040004400230800804D0C0460138FDD1C046C046C0467047EFF3108072B6704780F310883B
:400C00007047C046C046C046F0B50024CBB0069404900794FF2800D9A4E0A14200D1A1E008AD8022281C00F0CFF9231C211C221C029498002858002802D01218014302936D
:400C40000133202BF5D1002A05D1002900D08EE00191039102E0002001900390484F7F2328AE291C80222AA82897464C736000F0ABF9454A454B266013602168090F0A2910
:400C800003D022680F23134000E000230693069F002F69D1FFF7AEFF3D4A3E4B116807971960069B0590002B14D13B4A04982892289A01040A43289228AA22603249374A26
:400CC0000A602268120F0A2A03D02E4B1A680F2313400693069F002F38D1019A002A35D0391C8022281C00F078F90298039A08A983005A50224B2AA8289380227F23736056
:400D000000F062F9214820492660086023681B0F0A2B03D01B4B1F680F231F400697069B002B13D11E4A04982892289A01040A43289215491B4A26600A602268120F0A2A02
:400D400003D0104B1A680F2313400693079B002B04D1104A0E481268026007930598FFF74DFF01E00423069306984BB0F0BD02998B00E85801210390EA5001916EE7C046D5
:400D8000B6D7000008000040040000400400008008010B401C010020B6D8000005000080B6D9000006000080024A83009B181868196070474000002038B5041C0D1CFFF71F
:400DC00019FFA308084A9B009B1803221440944019680634A2409143A5400C1C2C431C60FFF70CFF38BDC04600E400E01F23184001238340181C014B1860704700E100E029
:400E00001F23184001238340181C014B1860704780E100E001BE7047034B04491A6892B20A431A607047C0460CED00E00400FA0510B5041C8022074B1202944205D91868E9
:400E4000FFF7CEFE044BE418F4E758686043FFF7C7FE10BDDC0000200080FFFF08B5034B1B7A5843FFF7BCFE08BDC046DC000020274B10B51B68002B00D09847254B1B68EC
:400E80005A071DD5244B1B681A0716D0234B244A186811684B1C40394C1EA14149420B40204909688B4203D11F4B20221A70E9E71E49C0B2C8541360E4E71D4B04221A6053
:400EC0001C4B1B689A0721D51B4B1A680F231340082B18D0194B1A4A1968136899420DD011684B1C3F39481E814149420B401549C85C1549C0B208601360E5E7134B02219D
:400F00001A688A431A60124B02221A6010BDC04614010020CC0F06400803064040030640B001002028010020AD0100206C010020C00F06408C0F06400802064024010020EA
:400F4000200100202C01002040020640880F0640800F064002B4714649084900095C49008E4402BC7047C04603B47146490840004900095E49008E4403BC704770B50E4BE9
:400F80000E4D0024ED1AAD101E1CAC4204D0A300F35898470134F8E700F044F8084B094D0024ED1AAD101E1CAC4204D0A300F35898470134F8E770BD3010000030100000CA
:400FC000301000003810000010B50023934203D0CC5CC4540133F9E710BD031C8218934202D019700133FAE77047000078100000750000000000000001330F4003410F40F0
:4010000004430F4002600F40E61062048E04D84018808C40C608E608020111019311C804111E0101F8B5C046F8BC08BC9E4670474D02000005040000F8B5C046F8BC08BC44
:401040009E4670472502000058100000D000002020000000C800000000000000EC0F0000F00F00000000E02EC05D00001800000000366E010000000000000000000000008C
:401080000010002091100000B11C0000B11C000008B5024B83F3088800F022FE00100020F7B572B6674B01221A7080220021D200654801F083F9802200216448D20001F061
:4010C0007DF90023191C624C18592834C2B20192071CFF2297434A00A4180022019ED5B2AE4209D05500665D6519B446BC446D78664635700132F1E7C0B204330918282B7D
:40110000E1D1544B802252001A80534B01221A70524BC02292001A60514BC02292051A60504BEE2212021A604F4B84221A604F4A4F4B50491A60504BC02212021A604F4B8D
:4011400004221A604E4B802019604E4B202119604D4B802119604D4BDB21090419604C4B102119604B4BB621890119604A4B802189001960494999231B040B6048490006A6
:401180000860484980200B60474980030860474980200B604649C005086046493C200B60454B802189041960444B02211A60444B1A60444B1A780A431A70434A11788143C5
:4011C0001420014311701A7816210A431A703F4A80231168DB020B4313603D4B141C18783C4BC0B219783C4BC9B21A78172A05D93A4A58789978033B9342F6D1384B192291
:401200001860384B05201960374B1A6000F040FF364B05201A78364BD2B21A6000F062FF2268344B13402360334A344B1A60344B10221A60334B802212061A60324A334BB6
:401240001A60F7BD1C700F4000300F4000400F406C26000000600F4002600F4000000140080001400C00014000000440B601580008000440800018000C00044000010440C2
:40128000080104400C010440000204400802044000030440080304400C03044000500F4004500F4010500F4014500F4020500F4028500F4030500F4034500F4020000040E7
:4012C00000800F4000700F4001700F4000010B40CCF1FF0FCDF1FF0FC9F1FF0FBDF1FF0F1CFF0B4020FF0B402CFF0B40E5F1FF0F28FF0B40FFFFFBFF0600008004010B40CF
:401300003002024008010B406F1700800000024010B5064C2378002B07D1054B002B02D0044800E000BF0123237010BD50010020000000003426000008B5084B002B03D053
:401340000748084900E000BF07480368002B03D0064B002B00D0984708BDC046000000003426000054010020D00000200000000010B5174C8AB0211C6846142200F0FCFF53
:40138000211C143105A8142200F0F6FF62B600F041FA042000F023F90120694600F030FA022005A900F02CFA0A4B01221A701C1C2378DBB2012B04D0022BF9D100F09CFEBD
:4013C000F6E7042000F00BF9034800F05CFCEFE7382600006C0100206026000010B50C1C022808D0032803D0012806D1034B03E00120FFF7F3FF024B5C7010BD7C01002074
:401400007A010020013810B50C1C04280FD800F011FF0308050A0C00054B07E00120FFF7F1FF044B02E0044B00E0044B1C7010BD7C0100207A010020790100207801002001
:40144000012803D0022805D1034B00E0034B5878C0B200E0FF2070477A0100207C010020013800B504280ED800F0E4FE03050D070900064B04E0064B02E0064B00E0064BE3
:401480001878C0B200E0FF2000BDC0467C0100207A0100207901002078010020013808B504285CD800F0C6FE032B284F54002C4B5878013806281CD800F0BCFE040B08197E
:4014C0000F161300012000F0FDFC12E0012000F0F9FC012000F0C2FD0BE0012000F0F2FC05E0012000F0EEFC012000F0B7FD00F09BFD0120011C30E00120FFF7CFFF194B34
:401500005878013806281CD800F094FE040B08190F161300012000F095FD12E0012000F091FD012000F0A6FD0BE0012000F08AFD05E0012000F086FD012000F09BFD00F019
:4015400019FD022008E0012000F026FC042003E0012000F015FC05200121FFF753FF08BD7C0100207A010020013808B5042827D800F060FE03100D1A1F00002000F0A2FCED
:40158000002000F06BFD00F00BFD012015E00120FFF7EAFF002000F055FD002000F06AFD00F0A4FC022008E0002000F0F5FB042003E0002000F0E4FB05200021FFF722FFDF
:4015C00008BD08B50120FFF7CFFF0220FFF7CCFF0420FFF7C9FF0520FFF7C6FF08BD10B5041CFFF7EEFF211C0120FFF7F7FE0220211CFFF7F3FE10BD08B50420FFF730FFF0
:40160000002803D10420FFF749FF02E00420FFF7ABFF0520FFF724FF002803D10520FFF73DFF02E00520FFF79FFF00F01DFC08BDF8B50120FFF704FF071C0220FFF700FFAB
:40164000061C00F0F1FE072100F05EFE4D1C00F0EBFE072100F058FE4C1CAF4206D100F0E3FE072100F050FE4D1CF6E7A64206D100F0DAFE072100F047FE4C1CF6E7E9B2D4
:401680000120FFF7ABFEE1B20220FFF7A7FE0320FFF76AFF0320FFF701FF00F061FD00F0C3FDF8BD70B5204D2B78DBB2012B02D0022B14D032E01D480024037D061CDBB231
:4016C000C25C012A01D15C1CE4B2301C00F0E8FE844222D102232B7000F098FD1CE014480024037D061CDBB2C25C012A01D15C1CE4B2301C00F0D4FE84420ED101232B705B
:4017000000F03CFD0320FFF72FFF03200421FFF765FE0320FFF7C2FE00243475962000F0CBFC00F045FB70BD6C010020930100207E01002070B5204D2B78DBB2012B02D088
:40174000022B14D032E01D480024037D061CDBB2C25C022A01D15C1CE4B2301C00F0A0FE844222D102232B7000F050FD1CE014480024037D061CDBB2C25C022A01D15C1C95
:40178000E4B2301C00F08CFE84420ED101232B7000F0F4FC0320FFF7E7FE03200421FFF71DFE0320FFF77AFE00243475962000F083FC00F029FB70BD6C010020930100202D
:4017C0007E01002008B5012803D0022805D1034800E00348142200F0D8FD08BD930100207E010020012803D0022803D1024B00E0024B19757047C046930100207E010020F6
:4018000010B5041CFFF7DEFF201C0021FFF7EAFF10BD000008B5094800F042FB084800F0E1FA084800F00EFB074800F087FC002000F03EFE00F0CAFD08BDC046F9150000AA
:40184000A51600003517000031160000034B1B78181A43425841C0B27047C0466C01002008B50120FFF7F2FF00280DD00120FFF715FEFA20400000F01FFC0120FFF774FE4B
:40188000FA20400000F018FC08BD08B50120FFF7DDFF00280DD00220FFF700FEFA20400000F00AFC0220FFF75FFEFA20400000F003FC08BD38B50120FFF7C2FD0721051C5B
:4018C0000320FFF78BFD05240120FFF7BFFF002812D00320FFF7E2FDFA2000F0EDFB0320FFF742FE013CFA2000F0E6FB002CEBD10320291CFFF772FD38BD10B5041C012024
:40190000FFF7A4FF002800D1BCE1201C30384A2800D9B7E100F098FC2D013801430150015D016A01770186019501A601B601B601B601B601B601B601B6014B0054005D006F
:4019400066006F00780081008A0093009C00A500B000BB00C600D100DC00E300EA00F100F800FF0006010D0114011B012201B601B601B601B601B601B6014B0054005D00F9
:4019800066006F00780081008A0093009C00A500B000BB00C600D100DC00E300EA00F100F800FF0006010D0114011B012201FFF757FFFFF76AFFFFF753FFFFF751FFEBE0FB
:4019C000FFF74EFFFFF761FFFFF74AFFFFF748FFEDE0FFF745FFFFF758FFFFF741FFFFF73FFFF1E0FFF73CFFFFF74FFFFFF738FFFFF736FFF5E0FFF733FFFFF746FFFFF748
:401A00002FFFFFF72DFFF9E0FFF72AFFFFF73DFFFFF726FFFFF724FFFDE0FFF721FFFFF734FFFFF71DFFFFF71BFF03E1FFF718FFFFF72BFFFFF714FFFFF712FF09E1FFF7B9
:401A40000FFFFFF722FFFFF70BFFFFF709FF11E1FFF706FFFFF719FFFFF702FFFFF700FF84E0FFF7FDFEFFF710FFFFF7F9FEFFF7F7FEFFF70AFFA9E0FFF7F2FEFFF705FFC2
:401A8000FFF7EEFEFFF7ECFEFFF7FFFEABE0FFF7E7FEFFF7FAFEFFF7E3FEFFF7E1FEFFF7F4FEADE0FFF7DCFEFFF7EFFEFFF7D8FEFFF7D6FEFFF7E9FEAFE0FFF7D1FEFFF78C
:401AC000E4FEFFF7CDFEFFF7CBFEFFF7DEFEB3E0FFF7C6FEFFF7D9FEFFF7C2FE4FE0FFF7BFFEFFF7D2FEFFF7BBFE53E0FFF7B8FEFFF7CBFEFFF7B4FE57E0FFF7B1FEFFF773
:401B0000C4FEFFF7ADFE5DE0FFF7AAFEFFF7BDFEFFF7A6FE63E0FFF7A3FEFFF7B6FEFFF79FFE69E0FFF79CFEFFF7AFFEFFF798FE6FE0FFF795FEFFF7A8FEFFF791FE77E0AD
:401B4000FFF78EFEFFF7A1FEFFF78AFE7FE0FFF787FEFFF79AFEFFF783FE89E0FFF780FEFFF793FEFFF77CFEFFF78FFEFFF78DFE1FE0FFF775FEFFF773FEFFF786FEFFF7DA
:401B800084FEFFF76DFE66E0FFF76AFEFFF768FEFFF77BFEFFF779FEFFF762FE6CE0FFF75FFEFFF75DFEFFF770FEFFF76EFEFFF757FEFFF755FE32E0FFF752FEFFF750FE2A
:401BC000FFF763FEFFF761FEFFF74AFEFFF748FE34E0FFF745FEFFF743FEFFF756FEFFF754FEFFF73DFEFFF750FE36E0FFF738FEFFF736FEFFF749FEFFF747FEFFF730FE2C
:401C0000FFF743FE3AE0FFF72BFEFFF729FEFFF73CFEFFF73AFEFFF723FEFFF736FEFFF734FE1CE0FFF71CFEFFF71AFEFFF72DFEFFF72BFEFFF714FEFFF727FEFFF725FEBA
:401C40001EE0FFF70DFEFFF70BFEFFF71EFEFFF71CFEFFF71AFEFFF703FEFFF701FEFFF7FFFD0FE0FFF7FCFDFFF7FAFDFFF70DFEFFF70BFEFFF709FEFFF7F2FDFFF7F0FDC8
:401C8000FFF703FE10BD38B5051CFFF713FE0024281C00F005FC844209D20120FFF7D6FD002804D0285DFFF728FE0134F0E738BDFEE70000084A08B5136808491818411A7E
:401CC000802901DC106005E000F02AFB0C23036001235B42181C08BDD4000020B001002070B51048104B0138421C15D01E685C689D680022A118AA4203D0B158A150043276
:401D0000F8E7DA680D1C4C1B944202D0002410C1F9E710330138E7E700F008FBFFF728FBFEE7C046010000008828000008B500239A00032B02D80D49895800E00C490D4840
:401D400001338150302BF3D1FFF7AAF90A4B00221A600A4B1A68002A00D11A608023DB051A6801210A431A6008BDC04680100000B11C000000000020C8000020C00000206B
:401D8000044B4022196880019143C9B202400A431A60704700010440044B4022196880019143C9B202400A431A60704700000440034B10221868104018600009C0B270471C
:401DC0001003044010B5041C00F06CF9044BA4071A689200920814431C6000F067F910BD00E400E0054B10B508241C60044BD8640320FFF7E7FF034B1C6010BD80E100E0D7
:401E00000000002000E100E0034B04221868104018608008C0B270471001044038B5041C00F040F9054B06491D68A2032C1C0C4014431C6000F03AF938BDC04600E400E0B7
:401E4000FF3FFFFF054B10B502241C60044B58640320FFF7E3FF034B1C6010BD80E100E00000002000E100E0034B7F2218689043C0B21860C00970471000044010B5041CCB
:401E800000F010F9054BA2011968C024A1430C1C14431C6000F00AF910BDC04600E400E0054B10B501241C60044B18640320FFF7E5FF034B1C6010BD80E100E000000020F2
:401EC00000E100E0044B4022196880019143C9B202400A431A60704700020440024B802219780A431A70704773000F40024B7F2219780A401A70704773000F40034B1B789C
:401F0000DA0602D5024B1B78F8E7704763000F4053000F4010B5114B3F211A78104C8A4309210A431A702378012213430D4A23703C2313700C4A13700C4B1E221A700C4BB2
:401F400000221A7000F0AEF8237810221343237000F0ACF8FFF7D2FF10BDC04673000F4093000F4003000F4043000F4023000F4083000F4010B5054C2378002B03D1FFF7C9
:401F8000C9FF01232370FFF7A9FF10BD6D010020024B802219780A431A70704772000F40024B7F2219780A401A70704772000F40034B1B78DA0602D5024B1B78F8E7704701
:401FC00062000F4052000F4010B5114B3F211A78104C8A4309210A431A702378012213430D4A23703C2313700C4A13700C4B1E221A700C4B00221A7000F054F8237810226C
:402000001343237000F052F8FFF7D2FF10BDC04672000F4092000F4002000F4042000F4022000F4082000F4010B5054C2378002B03D1FFF7C9FF01232370FFF7A9FF10BD8D
:402040006E010020044B0222196840009143C9B202400A431A60704700000440044B2022196840019143C9B202400A431A60704700020440044B012219689143C9B202401E
:402080000A431A607047C04600000440000000000230800804D0C0460138FDD1C046C046C0467047EFF3108072B6704780F310887047C046C046C04610B5041C8022074BF6
:4020C0001202944205D91868FFF7E2FF044BE418F4E758686043FFF7DBFF10BDD80000200080FFFF08B5034B1B7A5843FFF7D0FF08BDC046D800002008B5FFF7D3FF044B8E
:4021000004211A688A431A6030BFFFF7CFFF08BD10ED00E038B5041CFFF7C4FF054B06491D68A2052C1C0C4014431C60FFF7BEFF38BDC04600E400E0FFFF3FFF054B10B5A1
:4021400004241C60044B98640320FFF7E3FF034B1C6010BD80E100E00000002000E100E0014B04221A60704780E200E0024B802219780A431A70704771000F40024B7F221B
:4021800019780A401A70704771000F40034B1B78DA0602D5024B1B88F8E7704761000F40A0100F4010B5124B3F211A78114C8A4309210A431A70104A012311781943117053
:4021C000227813430D4A2370C82313800C4A13800C4A13800C4B04221A70FFF763FF2378102213432370FFF761FFFFF7CFFF10BD71000F4091000F4090000F4000100F40DB
:4022000080100F4040100F4081000F4010B5054C2378002B03D1FFF7C5FF01232370FFF7A5FF10BD6F010020014B1878C0B2704761000F4002B4714649084900095C4900CE
:402240008E4402BC7047C04603B47146490840004900095A49008E4403BC7047002941D010B4041C4C40A44601230022002900D54942002800D5404288422CD301242407DA
:40228000A14204D2814202D209011B01F8E7E400A14204D2814202D249005B00F8E7884201D3401A1A434C08A04202D3001B5C0822438C08A04202D3001B9C082243CC088B
:4022C000A04202D3001BDC082243002803D01B0901D00909E3E7101C6446002C00D5404210BC7047002806D003DB0020C043400801E08020000607B4024802A140180290BB
:4023000003BDC046190000000029EBD003B5FFF7A7FF0EBC4243891A1847C0467047C046014B18687047C0464801002070B50E4B0E4D0024ED1AAD101E1CAC4204D0A30020
:40234000F35898470134F8E700F08CFA084B094D0024ED1AAD101E1CAC4204D0A300F35898470134F8E770BD7028000070280000702800007828000010B50023934203D016
:40238000CC5CC4540133F9E710BD70B5814201D300230CE08C18A042FAD28518131C013B0BD351426618F65C6918CE54F7E7934203D0CC5CC4540133F9E770BD031C821833
:4023C000934202D019700133FAE7704738B5104B051C1C68A36B002B15D1182000F090F80C4BA06303800C4B43800C4B83800C4BC3800C4B0381052343810B23838101221E
:40240000002302614361A36B00221D615A6138BD480100200E330000CDABFFFF341200006DE6FFFFECDEFFFF174B10B51C68A36B002B15D1182000F063F8144BA063038063
:40244000134B4380134B8380134BC380134B0381052343810B2383810122002302614361084B074AA46B2069616900F0B9F80122002380185941206161614800400810BD2D
:402480002D7F954C2DF45158480100200E330000CDABFFFF341200006DE6FFFFECDEFFFF0023C25C0133002AFBD1581E7047000013B5094B041C69461868002200F00EF82B
:4024C000002805DB002C01D0009B2360009801E00120404216BDC0464801002038B5074C0023051C081C111C236000F09BF8431C03D12368002B00D02B6038BDA80100207E
:4025000008B5034B011C186800F004F808BDC0464801002070B50323CD1C9D430835061C0C2D01D20C2501E0002D3FDB8D423DD3204B1C681A1C211C002913D00868431BE0
:402540000DD40B2B02D90B60CC181EE08C4202D1636813601AE0486860600C1C16E00C1C4968E9E7144C2068002803D1301C00F025F82060301C291C00F020F8431C15D072
:40258000C41C03239C4384420AD12560201C0B300722231D9043C31A0BD05A42E25008E0211A301C00F00AF80130EED10C233360002070BD740100207001002038B5074C11
:4025C0000023051C081C2360FFF774FB431C03D12368002B00D02B6038BDC046A80100209C460304F0B51B0C17043F0C150C1E1C041C000C7E436B4347434543FB18300C11
:402600001818874202D980235B02ED18030CED1863465C434A433604360CA118000480194919F0BD024B5822012040421A607047A801002000000000010201020201010287
:402640000101020201010102010202000202020101020201010202020102020202020100514C354547544E350000000003000F403A300F401D310F404F320F402E330F40CD
:4026800006400F4002410F4002420F4002430F4002600F40810D820D830D4030410449FF4AFF4BFF4DA04F0450185A045F01604062C06440654066C068C06AC06CC06EC09B
:4026C0008202870396029902AE01B201B301B402B702BE10C030C104C5D1C602C807C9FFCAFFCBFFCDAFCE0FCF04D018D280D405D604D804D904DA04DB04DF01E040E2C0D8
:40270000E440E540E6C0E8C0EAC0ECC0EEC006800D0817401C101D081E082640272037203F0840104280450846804F0956805E885F01674077408740C010C220C480CC20AA
:40274000CE40D0C3D6D0D880030116011E0C26012D012E06300832023401360437013E104030410645D046204710482A49FF4AFF4BFF4DA04F045018528054055804590429
:402780005A045B045F01604062C06440654066C068C06AC06CC06EC0820192069B01A501A60CAA01B004B208B401B602B701BE10C010C106C5D1C702C813C9FFCAFFCBFFD8
:4027C000CDA0CF04D018D280D405D804D904DA04DB04DF01E040E2C0E440E540E6C0E8C0EAC0ECC0EEC0000109020D080F02102816201740180119081A441D081E081F8258
:402800002240264029082F0230203F0240014508482849014F2150085620571159015A845E885F017102774083808E40C008C2A8C4A6CA12CC04CE80D048D224D6DBE40439
:40284000E640501073028702D420DC20E6408C1094206702D6018301970210011101000043000000F8B5C046F8BC08BC9E467047391300002D1D0000F8B5C046F8BC08BC24
:402880009E4670471113000098280000D0000020800000006000000000000000B00100200000E02EC05D00001800000000366E010000000000000000000000000000000010
:4028C0000000000000000000000000000000000060280000000000000000000000000000000000000000000000000000000000000000000000000000000000000000000050
:4029000000000000000000000000000000000000E800002000000000000000000000000000000000000000000000000000000000000000000000000000000000000000008F
:402940000000000000000000000000000000000000000000000000000000000000000000000000000000000000000000000000000000000000000000000000000000000057
:402980000000000000000000000000000000000000000000000000000000000000000000000000000000000000000000000000000000000000000000000000000000000017
:4029C00000000000000000000000000000000000000000000000000000000000000000000000000000000000000000000000000000000000000000000000000000000000D7
:402A00000000000000000000000000000000000000000000000000000000000000000000000000000000000000000000000000000000000000000000000000000000000096
:407FC000EE911000002000000000190000000000000001000000010000000000000000000000000000000000000000000000000000000000000000000000000000000000B7
:0200000490303A
:02000000C23804
:0200000490402A
:20000000FFFFFFFF00000000000000000000000000000000000000000000000000000000E4
:0200000490501A
:0C000000000204C81193110004D6D3CBF9
:0200000490600A
:0100000001FE
:00000001FF