:400000000010002011000000B5030000B503000008B500F081FA00F0CFF90000F7B572B680220021D200554800F0EDFF802200215348D20000F0E7FF0023191C514C1859E1
:400040001034C2B20192071CFF2297434A00A4180022019ED5B2AE4209D05500665D6519B446BC446D78664635700132F1E7C0B204330918102BE1D1434BC02292041A60F8
:40008000424B99221A60424A00231360414A80211160414AC9031160404A40211160404AC021490311603F4A312113603E4B02221A603E4B802019603D4B3E491A60992317
:4000C0001B040B603C49000608603C493C200B603B4B8021890519603A493B4B19603B4B19780A431A703A4A117881431420014311701A7816210A431A70364A8023116893
:40010000DB020B431360344B141C1878334BC0B21978334BC9B21A78172A05D9314A58789978033B9342F6D12F4B192218602F4B052019602E4B1A6000F05EFD2D4B052061
:400140001A782D4BD2B21A6000F09EFE22682B4B134023602A4A2B4B1A602B4B10221A602A4B20221A602A4B802212061A60294A294B1A60294A2A4B1A60F7BD00300F40BF
:4001800000400F402410000004000140100001400C000140000004400800044000010440080104400803044000040440080404401804044000500F4004500F4010500F403F
:4001C00018500F40100001002001054000700F4001700F4000010B40CCF1FF0FCDF1FF0FC9F1FF0FBDF1FF0F1CFF0B4020FF0B402CFF0B40E5F1FF0F28FF0B40FFFFFBFF57
:400200000600008004010B40080202402002024008010B401000008000000240AF0400804000024010B5064C2378002B07D1054B002B02D0044800E000BF0123237010BDEC
:40024000F0000020000000002010000008B5084B002B03D00748084900E000BF07480368002B03D0064B002B00D0984708BDC0460000000020100000F4000020D00000200F
:400280000000000010B562B600F0ACFC00280ED16524012000F0E2FD00F0A4FC002806D1013CE4B2002CF4D1034B40221A6000F08BFC00F0DBFAFEE7C000002008B500F01E
:4002C00015FB00F04DFB00F0B5FB08BD70B5054B0D1C161C0024C9B21C8000F09FFB3580201C70BD0C010020F0B50A275F4387B003900591151C00262D4CBE4219DA00F0E6
:400300001DFB80B220802388002B0CD00220268800F0A4FD00F012FB80B220802388B6B2B342F3D807E00120013600F097FDB6B2E2E7052600E0002600272F802388002B4D
:4003400033D023889BB2019301992B885A18059992B22A808A4221D2019ABB189BB2029302998F4209D07B1C9BB20493039BDF1900F0CAFA3870049FF2E772B62388019AF8
:400380009B1A9BB2238062B6039A5318013B1B78172B08D0052000F061FD04E02B8000F0DFFA052601E0029FC8E7301C07B0F0BD0C010020FEE7000070B51048104B013895
:4003C000421C15D01E685C689D680022A118AA4203D0B158A1500432F8E7DA680D1C4C1B944202D0002410C1F9E710330138E7E700F0DAFDFFF746FFFEE7C046010000003B
:400400007410000008B500239A00032B02D80D49895800E00C490D4801338150302BF3D1FFF7FCFD0A4B00221A600A4B1A68002A00D11A608023DB051A6801210A431A60B7
:4004400008BDC04600000000B503000000000020C8000020C0000020004770B5051C0E1C141C002802D0002000F0EAFC0020002C05D0013CAA19125D8318D8B2F7E770BD7A
:40048000013808B509282AD8C901494200F078FD0507090B0D0F1614181B154B08E0154B12E0154B0DE0154B0EE0154B00E0154BC9180878C0B21AE0134B02E0134B00E0A0
:4004C000134BC9180FE0134BC9180B7848788A780002120410431843CB781B0606E0002000F0AEFC00210B7848780002184308BDC07F0000C17F0000C57F0000C97F0000EF
:40050000D07F0000D17F0000D67F0000D27F0000D47F0000D87F00000C4B10B51A6810231A400B4B00D11A601A68802A0DD100240220211C1C60FFF7A3FFA04205D0211C6B
:400540000220FFF79DFFFFF787FF10BD00030B40C0000020F8B5051C291C0320FFF790FF291C041C0420FFF78BFF671CFF013F18291C0320FFF784FF00240130C001261C79
:40058000B84209D203785A1ED2B2FD2A00D801261C19E4B20130F3E70120291CFFF770FF6442E4B20623844203D17242564176423340181CF8BD0000F0B5A44CA544FFF756
:4005C0007DFE62B600260096002506AC03AE9621201C4900321CFF23FFF786FE0028F4D13188062900D88AE022780423012A54D1E778A2783F021743E2195679B44616796F
:400600000196FE1D8E427FD89279172A45D1FB189BB2002B08D09CA98D4ECA1892191278013B801880B2F3E7019B614640420A0280B21A43082382422FD167E0342B00D040
:400640009DE0009901295AD1032F58D151A80021802200F0D8FC802551A948192639ED19FA1EFF39ADB200F0C5FC832D49D1A079637900021843774B36021B6880191A68BB
:4006800080B2D3099BB2560601D001339BB298427BD20127009700250A2300210120207068466A46437681766B4600200E32D8760B1D11809BB29CAFFE18654F013BF61954
:4006C00036789BB2801980B2002BF4D19CAE624F7318DE194042614F80B23070DE19000A30705F4807311B181720187089B2201C9623FFF7EBFD68E7009E012E1BD0042315
:40070000CBE70126009600250323C6E763782679181C31380A2801D90523BEE700F03AFCECFF1400FCFF8EFF3F00FCFF430054008EFF63008B00002FE1D1381CFFF70AFF35
:4007400043424341237173E000980128D7D1012FD5D1002ED3D13F4B1B681B68DA0BD2B2DB09DBB2002A01D080235B0023711B0A6371FF23A3710023E37104218EE7009BA6
:40078000012BBCD1022FBAD966E751A900F048FA002800D07DE701260096051C12E0009F012FACD110E7009E012EA8D19623EE195B009E42A8D851A948193A1C07A900F0C2
:4007C00019FCB5B2002368E7002F98D104AB254A191C41CA41C107AA41CB41C2012600963B1C08215AE70098012888D1032F86D1A37962791B021A43310251180192C901C8
:4008000000208022FFF729FE071C002E0ED10199FF290BD1311C0520FFF732FE311C3F1A0620FFF72DFEFFB23F1AFFB27F4227710023012132E70020FFF78CFE002802D179
:40084000094B80221A6000F0FDFA58E78CFDFFFFA7FDFFFFD4000020ACFDFFFFADFDFFFFAEFDFFFF48100000C000002038B50020FFF770FE0025A84200D00625124C00209C
:400880002368C0211A68C03AFFF7E7FD62681378181AC0B2984203D123681B68002B02D1002000F0CDFA094B19681A1C402901D0002D03D000231360FFF77EFE80221A6083
:4008C00000F0C0FA38BDC046D4000020C000002008B5054B8022196812060A431A600A2000F09AFA08BDC0460000064010B5054C2378002B03D100F0BFF801232370FFF7AD
:40090000E7FF10BD10010020094B0A4A1968136899420BD011684B1C4039481E814149420B400549C85C1360C0B200E000207047B0010020280100206C010020064B074ACB
:400940001B6811688B4202D31068181A02E012684133981A7047C046B0010020280100200C4A0D4B002130B5106811601D68802464022C431C601D68084C2C401C60084BAB
:400980001C68084B1C60084B19700849084B1960106030BDC80F064004030640FFFFFEFF28010020B0010020AD010020ED0F0000C00F0640124910B50A68531C3F3A541E44
:4009C000A241524213400F4A1468A342FBD00C681268944208D10C4A14680F222240082A02D00A4B18600AE0094C02222260094CC0B2E0540B60084B19680A431A6010BD22
:400A000024010020200100200802064040020640800F06402C010020880F064038B5041C4518AC4204D02078FFF7C4FF0134F8E738BD00000B4A0023116810B513600A4B55
:400A400080201C684002204318601C68074820401860074B1868074B186002239943116010BDC046880F064004020640FFFFFEFF20010020240100201D4A1E4B10B51A60F0
:400A80001D4B00241C601D4B01221A601C491D4B07200B601C4908601C490A200C601C490A601C4A13601C4B1C6000F0BFF90A20032100F091F919490A2000F081F9184BAE
:400AC00004221C60174B1C60174B1C60174B1C60174B1A60174B1C60174B1C60174B1C60174B1C70174B1C60174B1C6010BDC0460B00000200000640400006404800064060
:400B0000000306400700008004030640100306404400064000020640040206409D0E0000880E0640C80E0640480F0640080F0640C80F0640880F0640B00100202801002070
:400B4000AD01002024010020200100200E4B8422D2041A601968802252020A431A600B490B4A0A60196819600A4BC32189001960094B00211960094B1C211960084B1A6087
:400B8000084A094B1A60704700010540080105401027000024010540380105402801054014010540881300000C01054008B500F02DF8044B01211A680A431A6000F02AF858
:400BC00008BDC0460000054010B5054C2378002B03D1FFF7BBFF01232370FFF7E7FF10BD18010020024B18680006C00F7047C04604000440000000000230800804D0C046B1
:400C00000138FDD1C046C046C0467047EFF3108072B6704780F310887047C046C046C046F0B50024CBB0069404900794FF2800D9A4E0A14200D1A1E008AD8022281C00F06E
:400C4000D9F9231C211C221C029498002858002802D01218014302930133202BF5D1002A05D1002900D08EE00191039102E0002001900390484F7F2328AE291C80222AA87D
:400C80002897464C736000F0B5F9454A454B266013602168090F0A2903D022680F23134000E000230693069F002F69D1FFF7AEFF3D4A3E4B116807971960069B0590002B56
:400CC00014D13B4A04982892289A01040A43289228AA22603249374A0A602268120F0A2A03D02E4B1A680F2313400693069F002F38D1019A002A35D0391C8022281C00F00F
:400D000082F90298039A08A983005A50224B2AA8289380227F23736000F06CF9214820492660086023681B0F0A2B03D01B4B1F680F231F400697069B002B13D11E4A049871
:400D40002892289A01040A43289215491B4A26600A602268120F0A2A03D0104B1A680F2313400693079B002B04D1104A0E481268026007930598FFF74DFF01E00423069343
:400D800006984BB0F0BD02998B00E85801210390EA5001916EE7C046B6D7000008000040040000400400008008010B401C010020B6D8000005000080B6D900000600008055
:400DC0001F2800D901BE034A80008318186819607047C0464000002038B5041C0D1E032D00D901BE1F2C00D901BEFFF70FFFA308084A9B009B18032214409440196806345C
:400E0000A2409143A5400C1C2C431C60FFF702FF38BDC04600E400E01F23184001238340181C014B1860704700E100E01F23184001238340181C014B1860704780E100E0EC
:400E400001BE7047034B04491A6892B20A431A607047C0460CED00E00400FA0510B5041C8022074B1202944205D91868FFF7C4FE044BE418F4E758686043FFF7BDFE10BD5B
:400E8000DC0000200080FFFF08B5034B1B7A5843FFF7B2FE08BDC046DC000020274B10B51B68002B00D09847254B1B685A071DD5244B1B681A0716D0234B244A1868116868
:400EC0004B1C40394C1EA14149420B40204909688B4203D11F4B20221A70E9E71E49C0B2C8541360E4E71D4B04221A601C4B1B689A0721D51B4B1A680F231340082B18D02B
:400F0000194B1A4A1968136899420DD011684B1C3F39481E814149420B401549C85C1549C0B208601360E5E7134B02211A688A431A60124B02221A6010BDC0461401002099
:400F4000CC0F06400803064040030640B001002028010020AD0100206C010020C00F06408C0F06400802064024010020200100202C01002040020640880F0640800F0640AE
:400F800002B4714649084900095C49008E4402BC7047C04603B47146490840004900095E49008E4403BC704770B50E4B0E4D0024ED1AAD101E1CAC4204D0A300F358984765
:400FC0000134F8E700F044F8084B094D0024ED1AAD101E1CAC4204D0A300F35898470134F8E770BD5C1000005C1000005C1000006410000010B50023934203D0CC5CC4548E
:401000000133F9E710BD031C8218934202D019700133FAE770470000A8100000EE0000000000000001330F4003410F4004430F4002600F40E61062048E04D84018808C40AD
:40104000C608E608020111019311C804111E0101F8B5C046F8BC08BC9E4670474D02000005040000F8B5C046F8BC08BC9E4670472502000088100000D0000020200000004B
:40108000C80000000000000000000000181000001C1000000000E02EC05D00001800000000366E01000000000000000000000000000000000000000000000000000000002C
:4010C00000000000000000000000000000000000000000000000000000000000000000000000000000000000000000000000000000000000000000000000000000000000F0
:401100000010002011110000D91F0000D91F000080B500AF024B83F3088800F089FFC0460010002080B584B000AF021CFB1D1A70204A3B1C0B3312781A701F4A3B1C0A33A0
:4011400012781A700423013BFB6018E01B4B1868391C0B31FA68131C5B009B18C3185B780B70164B1868391C0A31FA68131C5B009B18C3189B780B70FB68013BFB60FB6890
:40118000002B0ADB0D4B1968FA68131C5B009B185B5CFA1D12789A42D8D9094B3A1C0B3212781A60074B3A1C0A3212781A60BD4604B080BDCCF1FF0FCDF1FF0FD80000206C
:4011C0001CFF0B4020FF0B4080B500AF164B164A12688021C9020A431A601820FFF7A2FF124B19221A60052001F0D6FB104B114A1278D2B21A60052001F006FC0A4B0A4A06
:4012000011680D4A0A401A600C4B0D4A1A600D4B10221A600C4B802212061A600B4B0C4A1A60BD4680BDC04600010B402CFF0B4028FF0B40E5F1FF0FFFFFFBFF04010B4097
:40124000060000803002024008010B40000002406F17008080B582B000AF72B6FB1D00221A7023E0FB1D1A78131C5B009B185B00524A9B183B603B681A78597809020A4349
:40128000997809040A43DB781B0613431A1C3B6819795B791B020B439BB2101C191C00F04DFFFB1D1A78FB1D01321A70FB1D1B78012BD7D9424A434B101C191C00F04EFFA7
:4012C000414B802252001A80404B01221A70404B03221A603F4BC02292031A603E4BEE2212021A603D4B81221A603D4B3D4A1A603D4BC02212021A603C4B04221A603C4BFC
:401300003C4A1A603C4B20221A603C4B20221A603B4BDB2212041A603A4B10221A603A4BB62292011A60394B802292001A60384B992212041A60374B802212061A60364B42
:40134000802292021A60354B992212041A60344B802292031A60334B992212041A60324B8022D2041A60314B992212041A60304B802292041A602F4B2E4A1278D2B2022173
:401380000A43D2B21A702C4B2B4A1278D2B23C218A43D2B214210A43D2B21A70254B254A1278D2B216210A43D2B21A70FFF70CFF00F014FFBD4602B080BDC04620300000CF
:4013C0002C3000004C30000000600F4002600F4000000140080001400C0001400000044008000440B60158000C0004400001044008010440800018000C010440000204402E
:401400000802044000030440080304400C03044000500F4004500F4008500F4010500F4014500F4020500F4028500F4030500F4034500F4000700F4001700F4010B5064C6C
:401440002378002B07D1054B002B02D0044800E000BF0123237010BD5001002000000000C42D000008B5084B002B03D00748084900E000BF07480368002B03D0064B002B2F
:4014800000D0984708BDC04600000000C42D000054010020D00000200000000080B500AF62B600F099FA022000F0C0F90320022100F00AF800F082FA024B181C00F06EFD92
:4014C000F4E7C046C82D000080B582B000AF0A1CFB1D011C1970BB1D1A70FB1D1B78022B08D0032B0BD0012B16D10D4BBA1D12785A7011E00B4BBA1D12785A700CE0BB1D35
:401500001B780120191CFFF7DFFFBB1D1B780220191CFFF7D9FFC046BD4602B080BDC046840100208001002080B582B000AF0A1CFB1D011C1970BB1D1A70FB1D1B78052BE3
:4015400025D89A00134BD3181B689F46124BBA1D12781A701BE0114BBA1D12781A7016E0BB1D1B780120191CFFF7DEFFBB1D1B780220191CFFF7D8FF09E0094BBA1D1278E2
:401580001A7004E0074BBA1D12781A70C046BD4602B080BDD02D000084010020800100207C0100207801002080B582B000AF021CFB1D1A70FB1D1B78012B02D0022B04D08F
:4015C00007E0064B5B78DBB204E0054B5B78DBB200E0FF23181CBD4602B080BD840100208001002080B582B000AF021CFB1D1A70FB1D1B78022B0CD002DC012B05D014E0F4
:40160000042B0AD0052B0CD00FE00A4B1B78DBB20CE0094B1B78DBB208E0084B1B78DBB204E0074B1B78DBB200E0FF23181CBD4602B080BD84010020800100207C01002015
:401640007801002080B582B000AF021CFB1D1A70FB1D1B78052B00D989E09A00454BD3181B689F460120FFF79FFF031C072B2BD89A00414BD3181B689F46012001F040F994
:4016800022E001F06BF81FE0012001F039F901F065F819E0012000F045FF15E0012001F02FF9012000F03EFF0EE001F057F8012000F038FF08E0012001F022F901F04EF8B6
:4016C000012000F02FFFC04601200121FFF72CFF4DE00220FFF768FF031C072B2BD89A00264BD3181B689F46012001F02FF922E000F062FF1FE0012001F028F900F05CFFD9
:4017000019E0012000F032FF15E0012001F01EF9012000F02BFF0EE000F04EFF012000F025FF08E0012001F011F900F045FF012000F01CFFC04602200121FFF7F5FE16E028
:401740000120FFF77FFF0220FFF77CFF0FE0012000F06EFD04200121FFF7E6FE07E0012000F040FD05200121FFF7DEFEC046BD4602B080BDE82D0000002E0000202E0000DF
:4017800080B582B000AF021CFB1D1A70FB1D1B78052B35D89A001C4BD3181B689F46002001F0AEF801F03CF8002000F0BBFE01200021FFF7B9FE23E0002001F0C7F800F0C0
:4017C0005DFF002000F0D2FE02200021FFF7ACFE16E00120FFF7D4FF0220FFF7D1FF0FE0002000F025FD04200021FFF79DFE07E0002000F0F7FC05200021FFF795FEC0464C
:40180000BD4602B080BDC046402E000080B500AF0120FFF7B5FF0220FFF7B2FF0420FFF7AFFF0520FFF7ACFFBD4680BD80B582B000AF021CFB1D1A70FFF7E8FFFB1D1B789E
:401840000120191CFFF740FEFB1D1B780220191CFFF73AFEBD4602B080BDC04690B583B000AF214B1B78DBB20133DAB21E4B1A701D4B1B78DBB2052B2DD1BC1D0120FFF7AA
:4018800093FE031C237001F097F9031C181C072101F024F90B1CDAB2FB1D01321A700BE001F08AF9031C181C072101F017F90B1CDAB2FB1D01321A70FA1DBB1D12781B78E4
:4018C0009A42EDD0FB1D1B780120191CFFF7FCFD054B00221A70962001F072F800F0CEFCBD4603B090BDC0466C01002090B583B000AF214B1B78DBB20133DAB21E4B1A709C
:401900001D4B1B78DBB2052B2DD1BC1D0220FFF74BFE031C237001F04FF9031C181C072101F0DCF80B1CDAB2FB1D01321A700BE001F042F9031C181C072101F0CFF80B1C93
:40194000DAB2FB1D01321A70FA1DBB1D12781B789A42EDD0FB1D1B780220191CFFF7B4FD054B00221A70962001F02AF800F0F6FCBD4603B090BDC0466D01002080B500AF96
:401980000420FFF72FFE031C002B03D10420FFF759FE02E00420FFF7F3FE0520FFF722FE031C002B03D10520FFF74CFE02E00520FFF7E6FE00F044FDBD4680BD80B500AF70
:4019C000034B00221A70034B00221A70BD4680BD6C0100206D01002080B500AF0A4B181C00F046FD094B181C00F060FC084B181C00F0CCFC002001F023F9031C181C01F074
:401A0000ADF8BD4680BDC0467D1900005D180000ED18000080B500AF0120FFF713FEFA235B00181C00F0CCFF0120FFF7A9FEFA2000F0C6FFBD4680BD80B500AF0220FFF76F
:401A400001FEFA235B00181C00F0BAFF0220FFF797FEFA2000F0B4FFBD4680BD80B582B000AF03200721FFF72FFD00237B600EE00320FFF7E7FDFA2000F0A2FF0320FFF738
:401A80007FFEFA2000F09CFF7B6801337B607B68042BEDD903200221FFF716FDBD4602B080BDC04680B582B000AF021CFB1D1A70FB1D1B780A3B702B00D96BE29A00F04B97
:401AC000D3181B689F46FFF7A5FFFFF7B5FFFFF7A1FFFFF79FFFFFF79DFFFFF79BFFFFF799FFFFF7A9FF55E2FFF794FFFFF7A4FFFFF790FFFFF78EFFFFF78CFFFFF78AFF76
:401B0000FFF79AFFFFF786FF44E2FFF783FFFFF793FFFFF77FFFFFF77DFFFFF77BFFFFF779FFFFF789FFFFF787FF33E2FFF772FFFFF782FFFFF76EFFFFF76CFFFFF76AFFA1
:401B4000FFF77AFFFFF766FFFFF764FF22E2FFF761FFFFF771FFFFF75DFFFFF75BFFFFF759FFFFF769FFFFF755FFFFF765FF11E2FFF750FFFFF760FFFFF74CFFFFF74AFF83
:401B8000FFF748FFFFF758FFFFF756FFFFF742FF00E2FFF73FFFFFF74FFFFFF73BFFFFF739FFFFF737FFFFF747FFFFF745FFFFF743FFEFE1FFF72EFFFFF73EFFFFF72AFF42
:401BC000FFF728FFFFF738FFFFF724FFFFF722FFFFF720FFDEE1FFF71DFFFFF72DFFFFF719FFFFF717FFFFF727FFFFF713FFFFF711FFFFF721FFCDE1FFF70CFFFFF71CFF49
:401C0000FFF708FFFFF706FFFFF716FFFFF702FFFFF712FFFFF7FEFEBCE1FFF7FBFEFFF70BFFFFF7F7FEFFF7F5FEFFF705FFFFF7F1FEFFF701FFFFF7FFFEABE1FFF7EAFE1F
:401C4000FFF7FAFEFFF7E6FEFFF7E4FEFFF7F4FEFFF7F2FEFFF7DEFEFFF7DCFE9AE1FFF7D9FEFFF7E9FEFFF7D5FEFFF7D3FEFFF7E3FEFFF7E1FEFFF7CDFEFFF7DDFE89E1F7
:401C8000FFF7C8FEFFF7D8FEFFF7C4FEFFF7C2FEFFF7D2FEFFF7D0FEFFF7CEFEFFF7BAFE78E1FFF7B7FEFFF7C7FEFFF7B3FEFFF7B1FEFFF7C1FEFFF7BFFEFFF7BDFEFFF71A
:401CC000BBFE67E1FFF7A6FEFFF7B6FEFFF7A2FEFFF7B2FEFFF79EFEFFF79CFEFFF79AFEFFF798FE56E1FFF795FEFFF7A5FEFFF791FEFFF7A1FEFFF78DFEFFF78BFEFFF7BE
:401D000089FEFFF799FE45E1FFF784FEFFF794FEFFF780FEFFF790FEFFF77CFEFFF77AFEFFF78AFEFFF776FE34E1FFF773FEFFF783FEFFF76FFEFFF77FFEFFF76BFEFFF78D
:401D400069FEFFF779FEFFF777FE23E1FFF762FEFFF772FEFFF75EFEFFF76EFEFFF75AFEFFF76AFEFFF756FEFFF754FE12E1FFF751FEFFF761FEFFF74DFEFFF75DFEFFF75D
:401D800049FEFFF759FEFFF745FEFFF755FE01E1FFF740FEFFF750FEFFF73CFEFFF74CFEFFF738FEFFF748FEFFF746FEFFF732FEF0E0FFF72FFEFFF73FFEFFF72BFEFFF740
:401DC0003BFEFFF727FEFFF737FEFFF735FEFFF733FEDFE0FFF71EFEFFF72EFEFFF71AFEFFF72AFEFFF728FEFFF714FEFFF712FEFFF710FECEE0FFF70DFEFFF71DFEFFF711
:401E000009FEFFF719FEFFF717FEFFF703FEFFF701FEFFF711FEBDE0FFF7FCFDFFF70CFEFFF7F8FDFFF708FEFFF706FEFFF7F2FDFFF702FEFFF7EEFDACE0FFF7EBFDFFF709
:401E4000E9FDFFF7F9FDFFF7F7FDFFF7E3FDFFF7E1FDFFF7DFFDFFF7DDFD9BE0FFF7DAFDFFF7D8FDFFF7E8FDFFF7E6FDFFF7D2FDFFF7D0FDFFF7CEFDFFF7DEFD8AE0C04609
:401E8000582E0000FFF7C6FDFFF7C4FDFFF7D4FDFFF7D2FDFFF7BEFDFFF7BCFDFFF7CCFDFFF7B8FD76E0FFF7B5FDFFF7B3FDFFF7C3FDFFF7C1FDFFF7ADFDFFF7ABFDFFF794
:401EC000BBFDFFF7B9FD65E0FFF7A4FDFFF7A2FDFFF7B2FDFFF7B0FDFFF79CFDFFF7ACFDFFF798FDFFF796FD54E0FFF793FDFFF791FDFFF7A1FDFFF79FFDFFF78BFDFFF7AB
:401F00009BFDFFF787FDFFF797FD43E0FFF782FDFFF780FDFFF790FDFFF78EFDFFF77AFDFFF78AFDFFF788FDFFF774FD32E0FFF771FDFFF76FFDFFF77FFDFFF77DFDFFF77A
:401F400069FDFFF779FDFFF777FDFFF775FD21E0FFF760FDFFF75EFDFFF76EFDFFF76CFDFFF76AFDFFF756FDFFF754FDFFF752FD10E0FFF74FFDFFF74DFDFFF75DFDFFF76E
:401F80005BFDFFF759FDFFF745FDFFF743FDFFF753FDC046BD4602B080BDC04680B584B000AF7860FFF75AFD0023FB6009E07A68FB68D3181B78181CFFF774FDFB68013332
:401FC000FB607B68181C00F033FE021CFB689A42EDD8BD4604B080BD80B500AFFEE7C04680B584B000AF78600F4B1A687B68D3181A1C0E4BD31A802B09DC0B4B1B68FB608F
:40200000094B1A687B68D218074B1A6007E000F071FD031C0C221A6001235B42FB60FB68181CBD4604B080BDD40000209001002080B586B000AF224B7B61224B3B61204B02
:402040007B6135E03B691B68FB603B695B68BB603B699B683B6000237B600CE0FB681A68BB681A60BB680433BB60FB680433FB607B6804337B607A683B689A42EED13B699A
:40208000DB683B6000237B6008E0BB6800221A60BB680433BB607B6804337B607A683B689A42F2D13B6910333B617B69013B7B617B69002BC6D100F023FDFFF7EFF9FEE717
:4020C000010000007C31000080B582B000AF00237B600FE07B68032B04D8134B7A689200D35800E0114B124A796889008B507B6801337B607B682F2BECD9FFF7ABF80D4B83
:4021000000221A600C4B1B68002B02D10A4B00221A608023DB058022D205126801210A431A60BD4602B080BD00110000D91F000000000020C8000020C000002080B582B091
:4021400000AF786039607A683B68101C00211A1C00F0FCFCBD4602B080BDC04680B586B000AF7860396000233B6100237B612EE07B699B007A68D3181B68BB603B1C0F337D
:40218000BA681A70BB68FF229343BB6017E03B695B003A68D3181B781A1CBB68D3183A69520039688A1852781A703B6901333B613B1C0F331A783B1C0F33013A1A703B1C04
:4021C0000F331B78002BE2D17B6901337B617B69072BCDD9BD4606B080BDC04680B500AFBD4680BD80B584B000AF021CFB1D1A700E4B1B68DAB23B1C0F3340218A431A70CB
:40220000FB1D1B789B01DAB240231340D9B23B1C0F333A1C0F3212780A431A70034B3A1C0F3212781A60BD4604B080BD0001044080B584B000AF021CFB1D1A700E4B1B6823
:40224000DAB23B1C0F3340218A431A70FB1D1B789B01DAB240231340D9B23B1C0F333A1C0F3212780A431A70034B3A1C0F3212781A60BD4604B080BD0000044080B582B054
:4022800000AF094B1B68D9B2FB1D10220A401A70054BFA1D12781A60FB1D1B781B09DBB2181CBD4602B080BD1003044080B582B000AF786000F048F87B68181C00F008F886
:4022C000032000F011F800F035F8BD4602B080BD80B582B000AF7860024B7A68DA64BD4602B080BD0000002090B585B000AF021CFB1D1A701E23FB603C1C0B3400F056FBE9
:40230000031C23700A4B0A4A126892009108FA1D1078FA68041C9440221C0A431A603B1C0B331B78181C00F045FBBD4605B090BD00E400E080B500AF024B08221A60BD4676
:4023400080BDC04600E100E080B500AF024B08221A60BD4680BDC04680E100E080B582B000AF094B1B68D9B2FB1D04220A401A70054BFA1D12781A60FB1D1B789B08DBB22D
:40238000181CBD4602B080BD1001044080B582B000AF786000F04AF87B68181C00F008F8032000F011F800F037F8BD4602B080BD80B582B000AF7860024B7A685A64BD4670
:4023C00002B080BD0000002090B585B000AF021CFB1D1A700E23FB603C1C0B3400F0E6FA031C23700A4B0A4A11680A4A1140FA1D1078FA68041C9440221C0A431A603B1C28
:402400000B331B78181C00F0D5FABD4605B090BD00E400E0FF3FFFFF80B500AF024B02221A60BD4680BDC04600E100E080B500AF024B02221A60BD4680BDC04680E100E0A7
:4024400080B582B000AF094B1B68DAB2FB1D7F218A431A70054BFA1D12781A60FB1D1B78DB09DBB2181CBD4602B080BD1000044080B582B000AF786000F04AF87B68181C9C
:4024800000F008F8032000F011F800F037F8BD4602B080BD80B582B000AF7860024B7A681A64BD4602B080BD0000002090B585B000AF021CFB1D1A700623FB603C1C0B344E
:4024C00000F074FA031C23700B4B0B4A1268C021101C8843011CFA1D1078FA68041C9440221C0A431A603B1C0B331B78181C00F061FABD4605B090BD00E400E080B500AF64
:40250000024B01221A60BD4680BDC04600E100E080B500AF024B01221A60BD4680BDC04680E100E080B584B000AF021CFB1D1A700D4B1B68D9B23B1C0F337F220A401A7009
:40254000FB1D1B78DB01D9B23B1C0F333A1C0F3212780A431A70044B3A1C0F3212781A60BD4604B080BDC0460002044080B584B000AF021CFB1D1A700E4B1B68DAB23B1CF7
:402580000F3304218A431A70FB1D1B789B00DAB204231340D9B23B1C0F333A1C0F3212780A431A70034B3A1C0F3212781A60BD4604B080BD0000044080B500AF064B1B780C
:4025C000002B04D100F00AF8034B01221A7000F045F8BD4680BDC0466E01002090B583B000AF1C4B1B78DAB2FB1D3F218A431A70184BFA1D127809210A43D2B21A70164B86
:40260000154A1278D2B201210A43D2B21A703C2000F042F83C2000F05DF81E2000F06AF8002000F077F8BC1D00F0C0F9031C2370094B094A1278D2B210210A43D2B21A7005
:40264000BB1D1B78181C00F0B5F900F035F8BD4603B090BD72000F4092000F4080B500AF054B054A1278D2B2802149420A43D2B21A70BD4680BDC04672000F4080B500AF58
:40268000044B044A1278D1B27F220A40D2B21A70BD4680BD72000F4080B582B000AF021CFB1D1A70034BFA1D12781A70BD4602B080BDC04602000F4080B500AF01E000F029
:4026C00043F800F037F8031C1A1C10231340F6D1BD4680BD80B582B000AF021CFB1D1A70034BFA1D12781A70BD4602B080BDC04642000F4080B582B000AF021CFB1D1A70F0
:40270000034BFA1D12781A70BD4602B080BDC04622000F4080B582B000AF021CFB1D1A70034BFA1D12781A70BD4602B080BDC04682000F4080B500AF024B1B78DBB2181C1A
:40274000BD4680BD62000F4080B500AF024B1B78DBB2181CBD4680BD52000F4080B500AF064B1B78002B04D100F00AF8034B01221A7000F045F8BD4680BDC0466F0100204A
:4027800090B583B000AF1C4B1B78DAB2FB1D3F218A431A70184BFA1D127809210A43D2B21A70164B154A1278D2B201210A43D2B21A703C2000F042F83C2000F05DF81E2064
:4027C00000F06AF8002000F077F8BC1D00F0EEF8031C2370094B094A1278D2B210210A43D2B21A70BB1D1B78181C00F0E3F800F035F8BD4603B090BD73000F4093000F4038
:4028000080B500AF054B054A1278D2B2802149420A43D2B21A70BD4680BDC04673000F4080B500AF044B044A1278D1B27F220A40D2B21A70BD4680BD73000F4080B582B088
:4028400000AF021CFB1D1A70034BFA1D12781A70BD4602B080BDC04603000F4080B500AF01E000F043F800F037F8031C1A1C10231340F6D1BD4680BD80B582B000AF021C01
:40288000FB1D1A70034BFA1D12781A70BD4602B080BDC04643000F4080B582B000AF021CFB1D1A70034BFA1D12781A70BD4602B080BDC04623000F4080B582B000AF021C86
:4028C000FB1D1A70034BFA1D12781A70BD4602B080BDC04683000F4080B500AF024B1B78DBB2181CBD4680BD63000F4080B500AF024B1B78DBB2181CBD4680BD53000F4015
:4029000080B584B000AF021CFB1D1A700E4B1B68DAB23B1C0F3340218A431A70FB1D1B789B01DAB240231340D9B23B1C0F333A1C0F3212780A431A70034B3A1C0F321278F2
:402940001A60BD4604B080BD0002044080B584B000AF021CFB1D1A700E4B1B68DAB23B1C0F3302218A431A70FB1D1B78DB18DAB202231340D9B23B1C0F333A1C0F32127869
:402980000A431A70034B3A1C0F3212781A60BD4604B080BD000004400230800804D0C0460138FDD1C046C046C0467047EFF3108072B6704780F310887047C046C046C04696
:4029C00080B582B000AF786008E00C4B1B68181CFFF7E2FF7B680A4A9B187B607A6880231B029A42F1D8074B1B687A685343181CFFF7D2FFBD4602B080BDC046E8000020C8
:402A00000080FFFFE000002080B582B000AF021CBB1D1A80BB1D1B88044A12785343181CFFF7BAFFBD4602B080BDC046E4000020002941D010B4041C4C40A44601230022D0
:402A4000002900D54942002800D5404288422CD301242407A14204D2814202D209011B01F8E7E400A14204D2814202D249005B00F8E7884201D3401A1A434C08A04202D3C9
:402A8000001B5C0822438C08A04202D3001B9C082243CC08A04202D3001BDC082243002803D01B0901D00909E3E7101C6446002C00D5404210BC7047002806D003DB002030
:402AC000C043400801E08020000607B4024802A14018029003BDC046190000000029EBD003B5FFF7A7FF0EBC4243891A1847C0467047C046014B18687047C0464C01002051
:402B000070B50E4B0E4D0024ED1AAD101E1CAC4204D0A300F35898470134F8E700F01CFB084B094D0024ED1AAD101E1CAC4204D0A300F35898470134F8E770BD64310000C0
:402B400064310000643100006C310000031C8218934202D019700133FAE7704738B5104B051C1C68A36B002B15D1182000F090F80C4BA06303800C4B43800C4B83800C4B75
:402B8000C3800C4B0381052343810B2383810122002302614361A36B00221D615A6138BD4C0100200E330000CDABFFFF341200006DE6FFFFECDEFFFF174B10B51C68A36BF2
:402BC000002B15D1182000F063F8144BA0630380134B4380134B8380134BC380134B0381052343810B2383810122002302614361084B074AA46B2069616900F0B9F8012222
:402C0000002380185941206161614800400810BD2D7F954C2DF451584C0100200E330000CDABFFFF341200006DE6FFFFECDEFFFF0023C25C0133002AFBD1581E704700002D
:402C400013B5094B041C69461868002200F00EF8002805DB002C01D0009B2360009801E00120404216BDC0464C01002038B5074C0023051C081C111C236000F09BF8431C12
:402C800003D12368002B00D02B6038BD8801002008B5034B011C186800F004F808BDC0464C01002070B50323CD1C9D430835061C0C2D01D20C2501E0002D3FDB8D423DD30E
:402CC000204B1C681A1C211C002913D00868431B0DD40B2B02D90B60CC181EE08C4202D1636813601AE0486860600C1C16E00C1C4968E9E7144C2068002803D1301C00F029
:402D000025F82060301C291C00F020F8431C15D0C41C03239C4384420AD12560201C0B300722231D9043C31A0BD05A42E25008E0211A301C00F00AF80130EED10C233360C2
:402D4000002070BD740100207001002038B5074C0023051C081C2360FFF742F9431C03D12368002B00D02B6038BDC046880100209C460304F0B51B0C17043F0C150C1E1C26
:402D8000041C000C7E436B4347434543FB18300C1818874202D980235B02ED18030CED1863465C434A433604360CA118000480194919F0BD024B5822012040421A607047D9
:402DC0008801002000000000534F530A000000008E1500004C15000056150000601500007A150000841500006E17000064160000D2160000401700004E1700005E17000007
:402E0000C81600007A1600008216000088160000941600009C160000AA160000B616000036170000E8160000F0160000F6160000021700000A170000181700002417000005
:402E4000001800009E170000B8170000D2170000E0170000F0170000941F0000941F0000941F0000941F0000941F0000941F0000941F0000941F0000941F0000941F0000D1
:402E8000941F0000941F0000941F0000941F0000941F0000941F0000941F0000941F0000941F0000941F0000941F0000941F0000941F0000941F0000941F0000941F0000E2
:402EC000941F0000941F0000941F0000941F0000941F0000941F0000941F0000941F0000941F0000941F0000941F0000941F00003A1E00005C1E0000841E0000A61E000036
:402F0000C81E0000EA1E00000C1F00002E1F0000501F0000721F0000941F0000941F0000941F0000941F0000941F0000941F0000941F0000C61A0000E81A00000A1B00003F
:402F40002C1B00004E1B0000701B0000921B0000B41B0000D61B0000F81B00001A1C00003C1C00005E1C0000801C0000A21C0000C41C0000E61C0000081D00002A1D0000E6
:402F80004C1D00006E1D0000901D0000B21D0000D41D0000F61D0000181E0000941F0000941F0000941F0000941F0000941F0000941F0000C61A0000E81A00000A1B00002E
:402FC0002C1B00004E1B0000701B0000921B0000B41B0000D61B0000F81B00001A1C00003C1C00005E1C0000801C0000A21C0000C41C0000E61C0000081D00002A1D000066
:403000004C1D00006E1D0000901D0000B21D0000D41D0000F61D0000181E00000400000000300F40000400400F40000402000F404C320F402B330F4002400F4002410F40DE
:4030400002420F4002430F4002600F40820D830D0F0114041A0727012E09300432023408350136013F104020410545D14602480749FF4AFF4BFF4DA04F0450185280540550
:40308000580459045A045B045F01604062C06440654066C068C06AC06CC06EC08701920993019C04A607B004B201B301B408B602BF04C020C105C5D1C720C823C9FFCAFF68
:4030C000CBFFCDA0CF04D018D280D405D804D904DA04DB04DF01E040E2C0E440E540E6C0E8C0EAC0ECC0EEC009020A010E200F0810201780180419081A411DA01EA01F208C
:40310000220427082F20300238043F8040044520482249014F895002574059015A485E805F097102778081088D80C269C484CA40CC01CE12D024D218D6DBE210E4045A80F1
:40314000D4808E4096806702D6018301970210011101000043000000F8B5C046F8BC08BC9E46704765140000C9200000F8B5C046F8BC08BC9E4670473D1400009031000054
:40318000D00000208000000040000000000000000000000090010020C0F1FF0F00366E01C05D0000180000000000E02E000000000000000000000000000000000000000007
:4031C000000000000000000000000000543100000000000000000000000000000000000000000000000000000000000000000000000000000000000000000000000000004A
:40320000000000000000000000000000EC00002000000000000000000000000000000000000000000000000000000000000000000000000000000000000000000000000082
:40324000000000000000000000000000000000000000000000000000000000000000000000000000000000000000000000000000000000000000000000000000000000004E
:40328000000000000000000000000000000000000000000000000000000000000000000000000000000000000000000000000000000000000000000000000000000000000E
:4032C00000000000000000000000000000000000000000000000000000000000000000000000000000000000000000000000000000000000000000000000000000000000CE
:40330000000000000000000000000000000000000000000000000000000000000000000000000000000000000000000000000000000000000000000000000000000000008D
:407FC000AD111100002100000080210000000000000001000000010000000000000000000000000000000000000000000000000000000000000000000000000000000000EE
:0200000490303A
:02000000CF76B9
:0200000490402A
:20000000FFFFFFFF00000000000000000000000000000000000000000000000000000000E4
:0200000490501A
:0C000000000204C81193110004DAE109A9
:0200000490600A
:0100000001FE
:00000001FF