:400000000010002011000000B5030000B503000008B500F081FA00F0CFF90000F7B572B680220021D200554800F0EDFF802200215348D20000F0E7FF0023191C514C1859E1
:400040001034C2B20192071CFF2297434A00A4180022019ED5B2AE4209D05500665D6519B446BC446D78664635700132F1E7C0B204330918102BE1D1434BC02292041A60F8
:40008000424B99221A60424A00231360414A80211160414AC9031160404A40211160404AC021490311603F4A312113603E4B02221A603E4B802019603D4B3E491A60992317
:4000C0001B040B603C49000608603C493C200B603B4B8021890519603A493B4B19603B4B19780A431A703A4A117881431420014311701A7816210A431A70364A8023116893
:40010000DB020B431360344B141C1878334BC0B21978334BC9B21A78172A05D9314A58789978033B9342F6D12F4B192218602F4B052019602E4B1A6000F05EFD2D4B052061
:400140001A782D4BD2B21A6000F09EFE22682B4B134023602A4A2B4B1A602B4B10221A602A4B20221A602A4B802212061A60294A294B1A60294A2A4B1A60F7BD00300F40BF
:4001800000400F402410000004000140100001400C000140000004400800044000010440080104400803044000040440080404401804044000500F4004500F4010500F403F
:4001C00018500F40100001002001054000700F4001700F4000010B40CCF1FF0FCDF1FF0FC9F1FF0FBDF1FF0F1CFF0B4020FF0B402CFF0B40E5F1FF0F28FF0B40FFFFFBFF57
:400200000600008004010B40080202402002024008010B401000008000000240AF0400804000024010B5064C2378002B07D1054B002B02D0044800E000BF0123237010BDEC
:40024000F0000020000000002010000008B5084B002B03D00748084900E000BF07480368002B03D0064B002B00D0984708BDC0460000000020100000F4000020D00000200F
:400280000000000010B562B600F0ACFC00280ED16524012000F0E2FD00F0A4FC002806D1013CE4B2002CF4D1034B40221A6000F08BFC00F0DBFAFEE7C000002008B500F01E
:4002C00015FB00F04DFB00F0B5FB08BD70B5054B0D1C161C0024C9B21C8000F09FFB3580201C70BD0C010020F0B50A275F4387B003900591151C00262D4CBE4219DA00F0E6
:400300001DFB80B220802388002B0CD00220268800F0A4FD00F012FB80B220802388B6B2B342F3D807E00120013600F097FDB6B2E2E7052600E0002600272F802388002B4D
:4003400033D023889BB2019301992B885A18059992B22A808A4221D2019ABB189BB2029302998F4209D07B1C9BB20493039BDF1900F0CAFA3870049FF2E772B62388019AF8
:400380009B1A9BB2238062B6039A5318013B1B78172B08D0052000F061FD04E02B8000F0DFFA052601E0029FC8E7301C07B0F0BD0C010020FEE7000070B51048104B013895
:4003C000421C15D01E685C689D680022A118AA4203D0B158A1500432F8E7DA680D1C4C1B944202D0002410C1F9E710330138E7E700F0DAFDFFF746FFFEE7C046010000003B
:400400007410000008B500239A00032B02D80D49895800E00C490D4801338150302BF3D1FFF7FCFD0A4B00221A600A4B1A68002A00D11A608023DB051A6801210A431A60B7
:4004400008BDC04600000000B503000000000020C8000020C0000020004770B5051C0E1C141C002802D0002000F0EAFC0020002C05D0013CAA19125D8318D8B2F7E770BD7A
:40048000013808B509282AD8C901494200F078FD0507090B0D0F1614181B154B08E0154B12E0154B0DE0154B0EE0154B00E0154BC9180878C0B21AE0134B02E0134B00E0A0
:4004C000134BC9180FE0134BC9180B7848788A780002120410431843CB781B0606E0002000F0AEFC00210B7848780002184308BDC07F0000C17F0000C57F0000C97F0000EF
:40050000D07F0000D17F0000D67F0000D27F0000D47F0000D87F00000C4B10B51A6810231A400B4B00D11A601A68802A0DD100240220211C1C60FFF7A3FFA04205D0211C6B
:400540000220FFF79DFFFFF787FF10BD00030B40C0000020F8B5051C291C0320FFF790FF291C041C0420FFF78BFF671CFF013F18291C0320FFF784FF00240130C001261C79
:40058000B84209D203785A1ED2B2FD2A00D801261C19E4B20130F3E70120291CFFF770FF6442E4B20623844203D17242564176423340181CF8BD0000F0B5A44CA544FFF756
:4005C0007DFE62B600260096002506AC03AE9621201C4900321CFF23FFF786FE0028F4D13188062900D88AE022780423012A54D1E778A2783F021743E2195679B44616796F
:400600000196FE1D8E427FD89279172A45D1FB189BB2002B08D09CA98D4ECA1892191278013B801880B2F3E7019B614640420A0280B21A43082382422FD167E0342B00D040
:400640009DE0009901295AD1032F58D151A80021802200F0D8FC802551A948192639ED19FA1EFF39ADB200F0C5FC832D49D1A079637900021843774B36021B6880191A68BB
:4006800080B2D3099BB2560601D001339BB298427BD20127009700250A2300210120207068466A46437681766B4600200E32D8760B1D11809BB29CAFFE18654F013BF61954
:4006C00036789BB2801980B2002BF4D19CAE624F7318DE194042614F80B23070DE19000A30705F4807311B181720187089B2201C9623FFF7EBFD68E7009E012E1BD0042315
:40070000CBE70126009600250323C6E763782679181C31380A2801D90523BEE700F03AFCECFF1400FCFF8EFF3F00FCFF430054008EFF63008B00002FE1D1381CFFF70AFF35
:4007400043424341237173E000980128D7D1012FD5D1002ED3D13F4B1B681B68DA0BD2B2DB09DBB2002A01D080235B0023711B0A6371FF23A3710023E37104218EE7009BA6
:40078000012BBCD1022FBAD966E751A900F048FA002800D07DE701260096051C12E0009F012FACD110E7009E012EA8D19623EE195B009E42A8D851A948193A1C07A900F0C2
:4007C00019FCB5B2002368E7002F98D104AB254A191C41CA41C107AA41CB41C2012600963B1C08215AE70098012888D1032F86D1A37962791B021A43310251180192C901C8
:4008000000208022FFF729FE071C002E0ED10199FF290BD1311C0520FFF732FE311C3F1A0620FFF72DFEFFB23F1AFFB27F4227710023012132E70020FFF78CFE002802D179
:40084000094B80221A6000F0FDFA58E78CFDFFFFA7FDFFFFD4000020ACFDFFFFADFDFFFFAEFDFFFF48100000C000002038B50020FFF770FE0025A84200D00625124C00209C
:400880002368C0211A68C03AFFF7E7FD62681378181AC0B2984203D123681B68002B02D1002000F0CDFA094B19681A1C402901D0002D03D000231360FFF77EFE80221A6083
:4008C00000F0C0FA38BDC046D4000020C000002008B5054B8022196812060A431A600A2000F09AFA08BDC0460000064010B5054C2378002B03D100F0BFF801232370FFF7AD
:40090000E7FF10BD10010020094B0A4A1968136899420BD011684B1C4039481E814149420B400549C85C1360C0B200E000207047B0010020280100206C010020064B074ACB
:400940001B6811688B4202D31068181A02E012684133981A7047C046B0010020280100200C4A0D4B002130B5106811601D68802464022C431C601D68084C2C401C60084BAB
:400980001C68084B1C60084B19700849084B1960106030BDC80F064004030640FFFFFEFF28010020B0010020AD010020ED0F0000C00F0640124910B50A68531C3F3A541E44
:4009C000A241524213400F4A1468A342FBD00C681268944208D10C4A14680F222240082A02D00A4B18600AE0094C02222260094CC0B2E0540B60084B19680A431A6010BD22
:400A000024010020200100200802064040020640800F06402C010020880F064038B5041C4518AC4204D02078FFF7C4FF0134F8E738BD00000B4A0023116810B513600A4B55
:400A400080201C684002204318601C68074820401860074B1868074B186002239943116010BDC046880F064004020640FFFFFEFF20010020240100201D4A1E4B10B51A60F0
:400A80001D4B00241C601D4B01221A601C491D4B07200B601C4908601C490A200C601C490A601C4A13601C4B1C6000F0BFF90A20032100F091F919490A2000F081F9184BAE
:400AC00004221C60174B1C60174B1C60174B1C60174B1A60174B1C60174B1C60174B1C60174B1C70174B1C60174B1C6010BDC0460B00000200000640400006404800064060
:400B0000000306400700008004030640100306404400064000020640040206409D0E0000880E0640C80E0640480F0640080F0640C80F0640880F0640B00100202801002070
:400B4000AD01002024010020200100200E4B8422D2041A601968802252020A431A600B490B4A0A60196819600A4BC32189001960094B00211960094B1C211960084B1A6087
:400B8000084A094B1A60704700010540080105401027000024010540380105402801054014010540881300000C01054008B500F02DF8044B01211A680A431A6000F02AF858
:400BC00008BDC0460000054010B5054C2378002B03D1FFF7BBFF01232370FFF7E7FF10BD18010020024B18680006C00F7047C04604000440000000000230800804D0C046B1
:400C00000138FDD1C046C046C0467047EFF3108072B6704780F310887047C046C046C046F0B50024CBB0069404900794FF2800D9A4E0A14200D1A1E008AD8022281C00F06E
:400C4000D9F9231C211C221C029498002858002802D01218014302930133202BF5D1002A05D1002900D08EE00191039102E0002001900390484F7F2328AE291C80222AA87D
:400C80002897464C736000F0B5F9454A454B266013602168090F0A2903D022680F23134000E000230693069F002F69D1FFF7AEFF3D4A3E4B116807971960069B0590002B56
:400CC00014D13B4A04982892289A01040A43289228AA22603249374A0A602268120F0A2A03D02E4B1A680F2313400693069F002F38D1019A002A35D0391C8022281C00F00F
:400D000082F90298039A08A983005A50224B2AA8289380227F23736000F06CF9214820492660086023681B0F0A2B03D01B4B1F680F231F400697069B002B13D11E4A049871
:400D40002892289A01040A43289215491B4A26600A602268120F0A2A03D0104B1A680F2313400693079B002B04D1104A0E481268026007930598FFF74DFF01E00423069343
:400D800006984BB0F0BD02998B00E85801210390EA5001916EE7C046B6D7000008000040040000400400008008010B401C010020B6D8000005000080B6D900000600008055
:400DC0001F2800D901BE034A80008318186819607047C0464000002038B5041C0D1E032D00D901BE1F2C00D901BEFFF70FFFA308084A9B009B18032214409440196806345C
:400E0000A2409143A5400C1C2C431C60FFF702FF38BDC04600E400E01F23184001238340181C014B1860704700E100E01F23184001238340181C014B1860704780E100E0EC
:400E400001BE7047034B04491A6892B20A431A607047C0460CED00E00400FA0510B5041C8022074B1202944205D91868FFF7C4FE044BE418F4E758686043FFF7BDFE10BD5B
:400E8000DC0000200080FFFF08B5034B1B7A5843FFF7B2FE08BDC046DC000020274B10B51B68002B00D09847254B1B685A071DD5244B1B681A0716D0234B244A1868116868
:400EC0004B1C40394C1EA14149420B40204909688B4203D11F4B20221A70E9E71E49C0B2C8541360E4E71D4B04221A601C4B1B689A0721D51B4B1A680F231340082B18D02B
:400F0000194B1A4A1968136899420DD011684B1C3F39481E814149420B401549C85C1549C0B208601360E5E7134B02211A688A431A60124B02221A6010BDC0461401002099
:400F4000CC0F06400803064040030640B001002028010020AD0100206C010020C00F06408C0F06400802064024010020200100202C01002040020640880F0640800F0640AE
:400F800002B4714649084900095C49008E4402BC7047C04603B47146490840004900095E49008E4403BC704770B50E4B0E4D0024ED1AAD101E1CAC4204D0A300F358984765
:400FC0000134F8E700F044F8084B094D0024ED1AAD101E1CAC4204D0A300F35898470134F8E770BD5C1000005C1000005C1000006410000010B50023934203D0CC5CC4548E
:401000000133F9E710BD031C8218934202D019700133FAE770470000A8100000EE0000000000000001330F4003410F4004430F4002600F40E61062048E04D84018808C40AD
:40104000C608E608020111019311C804111E0101F8B5C046F8BC08BC9E4670474D02000005040000F8B5C046F8BC08BC9E4670472502000088100000D0000020200000004B
:40108000C80000000000000000000000181000001C1000000000E02EC05D00001800000000366E01000000000000000000000000000000000000000000000000000000002C
:4010C00000000000000000000000000000000000000000000000000000000000000000000000000000000000000000000000000000000000000000000000000000000000F0
:401100000010002011110000B1250000B125000080B500AF024B83F3088801F075FAC0460010002080B584B000AF021CFB1D1A70204A3B1C0B3312781A701F4A3B1C0A33FC
:4011400012781A700423013BFB6018E01B4B1868391C0B31FA68131C5B009B18C3185B780B70164B1868391C0A31FA68131C5B009B18C3189B780B70FB68013BFB60FB6890
:40118000002B0ADB0D4B1968FA68131C5B009B185B5CFA1D12789A42D8D9094B3A1C0B3212781A60074B3A1C0A3212781A60BD4604B080BDCCF1FF0FCDF1FF0FD80000206C
:4011C0001CFF0B4020FF0B4080B500AF164B164A12688021C9020A431A601820FFF7A2FF124B19221A60052001F0C2FE104B114A1278D2B21A60052001F0F2FE0A4B0A4A29
:4012000011680D4A0A401A600C4B0D4A1A600D4B10221A600C4B802212061A600B4B0C4A1A60BD4680BDC04600010B402CFF0B4028FF0B40E5F1FF0FFFFFFBFF04010B4097
:40124000060000803002024008010B40000002406F17008080B582B000AF72B65A4B01221A70FB1D00221A7023E0FB1D1A78131C5B009B185B00554A9B183B603B681A781D
:40128000597809020A43997809040A43DB781B0613431A1C3B6819795B791B020B439BB2101C191C01F036FAFB1D1A78FB1D01321A70FB1D1B78012BD7D9454A454B101C06
:4012C000191C01F037FA444B802252001A80434B01221A70424BC02292001A60414BC02292051A60404BEE2212021A603F4B84221A603F4B3F4A1A603F4BC02212021A60EB
:401300003E4B04221A603E4B3E4A1A603E4B20221A603E4B80221A603D4BDB2212041A603C4B10221A603C4BB62292011A603B4B802292001A603A4B992212041A60394BD3
:40134000802212061A60384B992212041A60374B802292031A60364B992212041A60354B8022D2051A60344B992212041A60334B802292041A60324B04221A60314B042240
:401380001A60314B304A1278D2B202210A43D2B21A702E4B2D4A1278D2B23C218A43D2B214210A43D2B21A70274B274A1278D2B216210A43D2B21A70FFF706FF01F0FAF993
:4013C000BD4602B080BDC0461C700F40EC380000F83800002039000000600F4002600F4000000140080001400C0001400000044008000440B60158000C0004400001044002
:4014000008010440800018000C010440000204400802044000030440080304400C03044000500F4004500F4010500F4014500F4020500F4028500F4030500F4034500F402D
:401440002000004000800F4000700F4001700F4010B5064C2378002B07D1054B002B02D0044800E000BF0123237010BD50010020000000006436000008B5084B002B03D034
:401480000748084900E000BF07480368002B03D0064B002B00D0984708BDC046000000006436000054010020D00000200000000080B58AB000AF3A1C1432194B111C1A1CBF
:4014C0001423081C111C1A1C01F06CFF3A1C154B111C1A1C1423081C111C1A1C01F062FF62B601F02BF8042000F0D4F93B1C14330120191C01F00AF83B1C0220191C01F016
:4015000005F8094B01221A70074B1B78DBB2012B05D1064B0320191C00F0C4FDF4E7F3E774360000883600006C0100206836000080B582B000AF0A1CFB1D011C1970BB1DC5
:401540001A70FB1D1B78022B08D0032B0BD0012B16D10D4BBA1D12785A7011E00B4BBA1D12785A700CE0BB1D1B780120191CFFF7DFFFBB1D1B780220191CFFF7D9FFC04609
:40158000BD4602B080BDC046840100208001002080B582B000AF0A1CFB1D011C1970BB1D1A70FB1D1B78052B25D89A00134BD3181B689F46124BBA1D12781A701BE0114BCF
:4015C000BA1D12781A7016E0BB1D1B780120191CFFF7DEFFBB1D1B780220191CFFF7D8FF09E0094BBA1D12781A7004E0074BBA1D12781A70C046BD4602B080BD9C360000D4
:4016000084010020800100207C0100207801002080B582B000AF021CFB1D1A70FB1D1B78012B02D0022B04D007E0064B5B78DBB204E0054B5B78DBB200E0FF23181CBD4649
:4016400002B080BD840100208001002080B582B000AF021CFB1D1A70FB1D1B78022B0CD002DC012B05D014E0042B0AD0052B0CD00FE00A4B1B78DBB20CE0094B1B78DBB2FF
:4016800008E0084B1B78DBB204E0074B1B78DBB200E0FF23181CBD4602B080BD84010020800100207C0100207801002080B582B000AF021CFB1D1A70FB1D1B78052B00D94B
:4016C00089E09A00454BD3181B689F460120FFF79FFF031C072B2BD89A00414BD3181B689F46012001F00AFA22E0012001F0F6FB1EE0012001F002FA012001F0EFFB17E068
:4017000001F0F4FA14E0012001F0F8F901F0EEFA0EE0012001F0E2FB01F0E8FA08E0012001F0ECF9012001F0D9FB01F0DFFAC04601200121FFF72CFF4DE00220FFF768FFA5
:40174000031C072B2BD89A00264BD3181B689F46012001F09DFB22E0012001F0E5FB1EE0012001F095FB012001F0DEFB17E001F0EBF914E0012001F08BFB01F0E5F90EE079
:40178000012001F0D1FB01F0DFF908E0012001F07FFB012001F0C8FB01F0D6F9C04602200121FFF7F5FE16E00120FFF77FFF0220FFF77CFF0FE0012001F026F804200121C3
:4017C000FFF7E6FE07E0012000F0F8FF05200121FFF7DEFEC046BD4602B080BDB4360000CC360000EC36000080B582B000AF021CFB1D1A70FB1D1B78052B35D89A001C4B42
:40180000D3181B689F46002001F078F9002001F065FB01F0CDFA01200021FFF7B9FE23E0002001F035FB002001F07EFB01F0EEF902200021FFF7ACFE16E00120FFF7D4FF52
:401840000220FFF7D1FF0FE0002000F0DDFF04200021FFF79DFE07E0002000F0AFFF05200021FFF795FEC046BD4602B080BDC0460C37000080B500AF0120FFF7B5FF022049
:40188000FFF7B2FF0420FFF7AFFF0520FFF7ACFFBD4680BD80B582B000AF021CFB1D1A70FFF7E8FFFB1D1B780120191CFFF740FEFB1D1B780220191CFFF73AFEBD4602B0E6
:4018C00080BDC04680B582B000AF021CFB1D1A70012000F057FE031C002B00D111E0FB1D1B78181CFFF7E2FEFA235B00181C01F053FBFB1D1B78181CFFF776FFFA2001F068
:401900004BFBBD4602B080BD80B582B000AF021CFB1D1A70012000F035FE031C002B00D110E0FB1D1B78181CFFF7C0FE074B181C01F032FBFB1D1B78181CFFF755FFFA20D0
:4019400001F02AFBBD4602B080BDC046DC05000090B583B000AFFC1C0120FFF759FE031C237003200721FFF7E3FD00237B6015E0012000F007FE031C002B00D117E00320BA
:40198000FFF794FEFA2001F007FB0320FFF72CFFFA2001F001FB7B6801337B607B68042BE6D9FB1C1B780320191CFFF7C1FDBD4603B090BD80B500AF012000F0E3FD031CD7
:4019C000002B00D104E0FA239B00181C01F0E4FABD4680BD80B582B000AF0A1CFB1D011C1970BB1D1A70012000F0CCFD031C002B00D154E3BB1D1B780A3B702B00D94EE32F
:401A00009A00EA4BD3181B689F46FB1D1B78181CFFF758FFFB1D1B78181CFFF775FFFFF7C9FF3CE3FB1D1B78181CFFF76DFFFB1D1B78181CFFF746FFFB1D1B78181CFFF702
:401A400041FFFB1D1B78181CFFF73CFFFFF7B2FF25E3FB1D1B78181CFFF756FFFB1D1B78181CFFF72FFFFB1D1B78181CFFF74CFFFB1D1B78181CFFF725FFFFF79BFF0EE3A0
:401A8000FB1D1B78181CFFF73FFFFB1D1B78181CFFF718FFFB1D1B78181CFFF713FFFFF789FFFCE2FB1D1B78181CFFF70BFFFFF781FFF4E2FB1D1B78181CFFF703FFFB1DCA
:401AC0001B78181CFFF7FEFEFB1D1B78181CFFF71BFFFB1D1B78181CFFF7F4FEFFF76AFFDDE2FB1D1B78181CFFF70EFFFB1D1B78181CFFF709FFFB1D1B78181CFFF7E2FEE5
:401B0000FFF758FFCBE2FB1D1B78181CFFF7DAFEFB1D1B78181CFFF7D5FEFB1D1B78181CFFF7D0FEFB1D1B78181CFFF7CBFEFFF741FFB4E2FB1D1B78181CFFF7C3FEFB1D9B
:401B40001B78181CFFF7BEFEFFF734FFA7E2FB1D1B78181CFFF7B6FEFB1D1B78181CFFF7D3FEFB1D1B78181CFFF7CEFEFB1D1B78181CFFF7C9FEFFF71DFF90E2FB1D1B789F
:401B8000181CFFF7C1FEFB1D1B78181CFFF79AFEFB1D1B78181CFFF7B7FEFFF70BFF7EE2FB1D1B78181CFFF78DFEFB1D1B78181CFFF7AAFEFB1D1B78181CFFF783FEFB1D9A
:401BC0001B78181CFFF77EFEFFF7F4FE67E2FB1D1B78181CFFF798FEFB1D1B78181CFFF793FEFFF7E7FE5AE2FB1D1B78181CFFF78BFEFB1D1B78181CFFF764FEFFF7DAFE30
:401C00004DE2FB1D1B78181CFFF77EFEFB1D1B78181CFFF779FEFB1D1B78181CFFF774FEFFF7C8FE3BE2FB1D1B78181CFFF74AFEFB1D1B78181CFFF767FEFB1D1B78181C82
:401C4000FFF762FEFB1D1B78181CFFF73BFEFFF7B1FE24E2FB1D1B78181CFFF755FEFB1D1B78181CFFF750FEFB1D1B78181CFFF729FEFB1D1B78181CFFF746FEFFF79AFE67
:401C80000DE2FB1D1B78181CFFF71CFEFB1D1B78181CFFF739FEFB1D1B78181CFFF712FEFFF788FEFBE1FB1D1B78181CFFF70AFEFB1D1B78181CFFF705FEFB1D1B78181C69
:401CC000FFF700FEFFF776FEE9E1FB1D1B78181CFFF71AFEFFF76EFEE1E1FB1D1B78181CFFF7F0FDFB1D1B78181CFFF7EBFDFB1D1B78181CFFF708FEFFF75CFECFE1FB1D39
:401D00001B78181CFFF7DEFDFB1D1B78181CFFF7D9FDFB1D1B78181CFFF7D4FDFB1D1B78181CFFF7F1FDFFF745FEB8E1FB1D1B78181CFFF7C7FDFB1D1B78181CFFF7E4FDD6
:401D4000FB1D1B78181CFFF7DFFDFFF733FEA6E1FB1D1B78181CFFF7D7FDFB1D1B78181CFFF7B0FDFB1D1B78181CFFF7ABFDFB1D1B78181CFFF7C8FDFFF71CFE8FE1FB1D2A
:401D80001B78181CFFF7C0FDFB1D1B78181CFFF799FDFB1D1B78181CFFF7B6FDFB1D1B78181CFFF7B1FDFFF705FE78E124370000FB1D1B78181CFFF7A7FDFB1D1B78181C2E
:401DC000FFF7A2FDFB1D1B78181CFFF77BFDFB1D1B78181CFFF776FDFFF7ECFD5FE1FB1D1B78181CFFF790FDFB1D1B78181CFFF78BFDFB1D1B78181CFFF786FDFB1D1B78D8
:401E0000181CFFF781FDFB1D1B78181CFFF77CFDFFF7D0FD43E1FB1D1B78181CFFF752FDFB1D1B78181CFFF76FFDFB1D1B78181CFFF76AFDFB1D1B78181CFFF765FDFB1DD5
:401E40001B78181CFFF760FDFFF7B4FD27E1FB1D1B78181CFFF736FDFB1D1B78181CFFF731FDFB1D1B78181CFFF74EFDFB1D1B78181CFFF749FDFB1D1B78181CFFF744FD3D
:401E8000FFF798FD0BE1FB1D1B78181CFFF71AFDFB1D1B78181CFFF715FDFB1D1B78181CFFF710FDFB1D1B78181CFFF72DFDFB1D1B78181CFFF728FDFFF77CFDEFE0FB1DA7
:401EC0001B78181CFFF7FEFCFB1D1B78181CFFF7F9FCFB1D1B78181CFFF7F4FCFB1D1B78181CFFF7EFFCFB1D1B78181CFFF70CFDFFF760FDD3E0FB1D1B78181CFFF7E2FC45
:401F0000FB1D1B78181CFFF7DDFCFB1D1B78181CFFF7D8FCFB1D1B78181CFFF7D3FCFB1D1B78181CFFF7CEFCFFF744FDB7E0FB1D1B78181CFFF7E8FCFB1D1B78181CFFF7AB
:401F4000C1FCFB1D1B78181CFFF7BCFCFB1D1B78181CFFF7B7FCFB1D1B78181CFFF7B2FCFFF728FD9BE0FB1D1B78181CFFF7CCFCFB1D1B78181CFFF7C7FCFB1D1B78181C62
:401F8000FFF7A0FCFB1D1B78181CFFF79BFCFB1D1B78181CFFF796FCFFF70CFD7FE0FB1D1B78181CFFF7B0FCFB1D1B78181CFFF7ABFCFB1D1B78181CFFF7A6FCFB1D1B783F
:401FC000181CFFF77FFCFB1D1B78181CFFF77AFCFFF7F0FC63E0FB1D1B78181CFFF794FCFB1D1B78181CFFF78FFCFB1D1B78181CFFF78AFCFB1D1B78181CFFF785FCFB1D3E
:402000001B78181CFFF75EFCFFF7D4FC47E0FB1D1B78181CFFF756FCFB1D1B78181CFFF773FCFB1D1B78181CFFF74CFCFB1D1B78181CFFF769FCFB1D1B78181CFFF742FCC7
:40204000FB1D1B78181CFFF75FFCFFF7B3FC26E0FB1D1B78181CFFF757FCFB1D1B78181CFFF752FCFB1D1B78181CFFF72BFCFB1D1B78181CFFF726FCFB1D1B78181CFFF772
:4020800043FCFB1D1B78181CFFF73EFCFFF792FC05E0FA239B00181C00F07EFFC046BD4602B080BD80B584B000AF021C3960FB1D1A70FFF74DFC0023FB6013E0012000F0E6
:4020C00061FA031C002B00D114E03A68FB68D3181B78FA1D1278101C191CFFF77BFCFB680133FB603B68181C01F0F2F9021CFB689A42E3D8BD4604B080BDC04690B583B055
:4021000000AF404B1B78DBB2012B02D0022B33D06FE0022000F0A0F9031C3B60FC1D022000F0D6F9031C2370FB1D1B783A68D3181B78012B05D1FB1DFA1D127801321A7074
:4021400002E0FB1D00221A70FB1D1C783B68181C01F0BEF9031C9C4207D12A4B02221A7000F0B6FFFB1D00221A70FB1D1B780220191C00F08BF93CE0012000F06DF9031C05
:402180003B60FC1D012000F0A3F9031C2370FB1D1B783A68D3181B78012B05D1FB1DFA1D127801321A7002E0FB1D00221A70FB1D1C783B68181C01F08BF9031C9C4211D14C
:4021C000104B01221A7000F0EFFF0320FFF70CFB03200421FFF7ACF90320FFF767FAFB1D00221A70FB1D1B780120191C00F04EF9C046962000F0D0FE00F02CFBBD4603B039
:4022000090BDC0466C01002090B583B000AF404B1B78DBB2012B02D0022B33D06FE0022000F01AF9031C3B60FC1D022000F050F9031C2370FB1D1B783A68D3181B78022B72
:4022400005D1FB1DFA1D127801321A7002E0FB1D00221A70FB1D1C783B68181C01F038F9031C9C4207D12A4B02221A7000F030FFFB1D00221A70FB1D1B780220191C00F0FA
:4022800005F93CE0012000F0E7F8031C3B60FC1D012000F01DF9031C2370FB1D1B783A68D3181B78022B05D1FB1DFA1D127801321A7002E0FB1D00221A70FB1D1C783B682F
:4022C000181C01F005F9031C9C4211D1104B01221A7000F069FF0320FFF786FA03200421FFF726F90320FFF7E1F9FB1D00221A70FB1D1B780120191C00F0C8F8C046962062
:4023000000F04AFE00F016FBBD4603B090BDC0466C01002080B500AF0420FFF797F9031C002B03D10420FFF7C1F902E00420FFF75BFA0520FFF78AF9031C002B03D105201C
:40234000FFF7B4F902E00520FFF74EFA00F064FBBD4680BD90B585B000AFFC1D0120FFF757F9031C2370BC1D0220FFF751F9031C237001F071F8031C181C072100F0DAFF00
:402380000B1C0133FB6001F067F8031C181C072100F0D0FF0B1C0133BB6009E001F05CF8031C181C072100F0C5FF0B1C0133FB60FB1D1A78FB689A42F0D009E001F04CF88D
:4023C000031C181C072100F0B5FF0B1C0133BB60BB1D1A78BB689A42F0D0FB68DBB20120191CFFF7A5F8BB68DBB20220191CFFF79FF80320FFF7F8F90320FFF757F900F04F
:402400005DFE00F02DFFBD4605B090BD80B582B000AF021C3960FB1D1A70FB1D1B78012B02D0022B08D00FE0094A3B68101C191C142200F0C0FF07E0064A3B68101C191C9D
:40244000142200F0B8FFC046BD4602B080BDC04688010020A001002080B582B000AF021CFB1D1A70FB1D1B78012B02D0022B02D003E0044B02E0044B00E00023181CBD46FC
:4024800002B080BD88010020A001002080B582B000AF0A1CFB1D011C1970BB1D1A70FB1D1B78012B02D0022B05D009E0064BBA1D12781A7504E0054BBA1D12781A75C04668
:4024C000BD4602B080BDC04688010020A001002080B582B000AF021CFB1D1A70FB1D1B78012B02D0022B04D007E0064B1B7DDBB204E0054B1B7DDBB200E0FF23181CBD460B
:4025000002B080BD88010020A001002080B582B000AF021C3960FB1D1A70FB1D1A783B68101C191CFFF772FFFB1D1B78181C0021FFF7ACFFBD4602B080BDC04680B500AF41
:402540000C4B181C00F080FA0B4B181C00F09AF90A4B181C00F006FA094B181C00F054FD002000F0BDFF031C181C00F045FFBD4680BDC04615230000FD20000009220000FE
:402580005523000080B582B000AF021CFB1D1A70064B1B78DBB2FA1D12789A4201D1012300E00023181CBD4602B080BD6C01002080B500AFFEE7C04680B584B000AF786074
:4025C0000F4B1A687B68D3181A1C0E4BD31A802B09DC0B4B1B68FB60094B1A687B68D218074B1A6007E000F0B1FE031C0C221A6001235B42FB60FB68181CBD4604B080BD8E
:40260000D4000020C001002080B586B000AF224B7B61224B3B61204B7B6135E03B691B68FB603B695B68BB603B699B683B6000237B600CE0FB681A68BB681A60BB680433F1
:40264000BB60FB680433FB607B6804337B607A683B689A42EED13B69DB683B6000237B6008E0BB6800221A60BB680433BB607B6804337B607A683B689A42F2D13B69103399
:402680003B617B69013B7B617B69002BC6D100F063FEFEF70DFFFEE701000000143B000080B582B000AF00237B600FE07B68032B04D8134B7A689200D35800E0114B124AD0
:4026C000796889008B507B6801337B607B682F2BECD9FEF7BFFD0D4B00221A600C4B1B68002B02D10A4B00221A608023DB058022D205126801210A431A60BD4602B080BDE2
:4027000000110000B125000000000020C8000020C000002080B582B000AF786039607A683B68101C00211A1C00F05EFEBD4602B080BDC04680B586B000AF78603960002349
:402740003B6100237B612EE07B699B007A68D3181B68BB603B1C0F33BA681A70BB68FF229343BB6017E03B695B003A68D3181B781A1CBB68D3183A69520039688A185278F0
:402780001A703B6901333B613B1C0F331A783B1C0F33013A1A703B1C0F331B78002BE2D17B6901337B617B69092BCDD9BD4606B080BDC04680B500AFBD4680BD80B584B04D
:4027C00000AF021CFB1D1A700E4B1B68DAB23B1C0F3340218A431A70FB1D1B789B01DAB240231340D9B23B1C0F333A1C0F3212780A431A70034B3A1C0F3212781A60BD4620
:4028000004B080BD0001044080B584B000AF021CFB1D1A700E4B1B68DAB23B1C0F3340218A431A70FB1D1B789B01DAB240231340D9B23B1C0F333A1C0F3212780A431A702C
:40284000034B3A1C0F3212781A60BD4604B080BD0000044080B582B000AF094B1B68D9B2FB1D10220A401A70054BFA1D12781A60FB1D1B781B09DBB2181CBD4602B080BDB4
:402880001003044080B582B000AF786000F048F87B68181C00F008F8032000F011F800F035F8BD4602B080BD80B582B000AF7860024B7A68DA64BD4602B080BD0000002004
:4028C00090B585B000AF021CFB1D1A701E23FB603C1C0B3400F056FB031C23700A4B0A4A126892009108FA1D1078FA68041C9440221C0A431A603B1C0B331B78181C00F035
:4029000045FBBD4605B090BD00E400E080B500AF024B08221A60BD4680BDC04600E100E080B500AF024B08221A60BD4680BDC04680E100E080B582B000AF094B1B68D9B2DE
:40294000FB1D04220A401A70054BFA1D12781A60FB1D1B789B08DBB2181CBD4602B080BD1001044080B582B000AF786000F04AF87B68181C00F008F8032000F011F800F051
:4029800037F8BD4602B080BD80B582B000AF7860024B7A685A64BD4602B080BD0000002090B585B000AF021CFB1D1A700E23FB603C1C0B3400F0E6FA031C23700A4B0A4AD2
:4029C00011680A4A1140FA1D1078FA68041C9440221C0A431A603B1C0B331B78181C00F0D5FABD4605B090BD00E400E0FF3FFFFF80B500AF024B02221A60BD4680BDC0468A
:402A000000E100E080B500AF024B02221A60BD4680BDC04680E100E080B582B000AF094B1B68DAB2FB1D7F218A431A70054BFA1D12781A60FB1D1B78DB09DBB2181CBD4639
:402A400002B080BD1000044080B582B000AF786000F04AF87B68181C00F008F8032000F011F800F037F8BD4602B080BD80B582B000AF7860024B7A681A64BD4602B080BD32
:402A80000000002090B585B000AF021CFB1D1A700623FB603C1C0B3400F074FA031C23700B4B0B4A1268C021101C8843011CFA1D1078FA68041C9440221C0A431A603B1C77
:402AC0000B331B78181C00F061FABD4605B090BD00E400E080B500AF024B01221A60BD4680BDC04600E100E080B500AF024B01221A60BD4680BDC04680E100E080B584B02A
:402B000000AF021CFB1D1A700E4B1B68DAB23B1C0F3340218A431A70FB1D1B789B01DAB240231340D9B23B1C0F333A1C0F3212780A431A70034B3A1C0F3212781A60BD46DC
:402B400004B080BD0002044080B500AF064B1B78002B04D100F00AF8034B01221A7000F045F8BD4680BDC0466D01002090B583B000AF1C4B1B78DAB2FB1D3F218A431A70EC
:402B8000184BFA1D127809210A43D2B21A70164B154A1278D2B201210A43D2B21A703C2000F042F83C2000F05DF81E2000F06AF8002000F077F8BC1D00F0E4F9031C2370B3
:402BC000094B094A1278D2B210210A43D2B21A70BB1D1B78181C00F0D9F900F035F8BD4603B090BD73000F4093000F4080B500AF054B054A1278D2B2802149420A43D2B2E1
:402C00001A70BD4680BDC04673000F4080B500AF044B044A1278D1B27F220A40D2B21A70BD4680BD73000F4080B582B000AF021CFB1D1A70034BFA1D12781A70BD4602B075
:402C400080BDC04603000F4080B500AF01E000F043F800F037F8031C1A1C10231340F6D1BD4680BD80B582B000AF021CFB1D1A70034BFA1D12781A70BD4602B080BDC04687
:402C800043000F4080B582B000AF021CFB1D1A70034BFA1D12781A70BD4602B080BDC04623000F4080B582B000AF021CFB1D1A70034BFA1D12781A70BD4602B080BDC04682
:402CC00083000F4080B500AF024B1B78DBB2181CBD4680BD63000F4080B500AF024B1B78DBB2181CBD4680BD53000F4080B500AF064B1B78002B04D100F00AF8034B0122F9
:402D00001A7000F045F8BD4680BDC0466E01002090B583B000AF1C4B1B78DAB2FB1D3F218A431A70184BFA1D127809210A43D2B21A70164B154A1278D2B201210A43D2B241
:402D40001A703C2000F042F83C2000F05DF81E2000F06AF8002000F077F8BC1D00F012F9031C2370094B094A1278D2B210210A43D2B21A70BB1D1B78181C00F007F900F04D
:402D800035F8BD4603B090BD72000F4092000F4080B500AF054B054A1278D2B2802149420A43D2B21A70BD4680BDC04672000F4080B500AF044B044A1278D1B27F220A40A9
:402DC000D2B21A70BD4680BD72000F4080B582B000AF021CFB1D1A70034BFA1D12781A70BD4602B080BDC04602000F4080B500AF01E000F043F800F037F8031C1A1C102395
:402E00001340F6D1BD4680BD80B582B000AF021CFB1D1A70034BFA1D12781A70BD4602B080BDC04642000F4080B582B000AF021CFB1D1A70034BFA1D12781A70BD4602B05C
:402E400080BDC04622000F4080B582B000AF021CFB1D1A70034BFA1D12781A70BD4602B080BDC04682000F4080B500AF024B1B78DBB2181CBD4680BD62000F4080B500AF2C
:402E8000024B1B78DBB2181CBD4680BD52000F4080B584B000AF021CFB1D1A700E4B1B68DAB23B1C0F3302218A431A70FB1D1B78DB18DAB202231340D9B23B1C0F333A1C21
:402EC0000F3212780A431A70034B3A1C0F3212781A60BD4604B080BD0000044080B584B000AF021CFB1D1A700E4B1B68DAB23B1C0F3320218A431A70FB1D1B785B01DAB20B
:402F000020231340D9B23B1C0F333A1C0F3212780A431A70034B3A1C0F3212781A60BD4604B080BD0002044080B584B000AF021CFB1D1A700D4B1B68DAB23B1C0F330121C2
:402F40008A431A70FB1D1A7801231340D9B23B1C0F333A1C0F3212780A431A70034B3A1C0F3212781A60BD4604B080BD000004400230800804D0C0460138FDD1C046C046F5
:402F8000C0467047EFF3108072B6704780F310887047C046C046C04680B582B000AF786008E00C4B1B68181CFFF7E2FF7B680A4A9B187B607A6880231B029A42F1D8074B16
:402FC0001B687A685343181CFFF7D2FFBD4602B080BDC046E80000200080FFFFE000002080B582B000AF021CBB1D1A80BB1D1B88044A12785343181CFFF7BAFFBD4602B036
:4030000080BDC046E400002080B582B000AF786000F04AF87B68181C00F008F8032000F011F800F037F8BD4602B080BD80B582B000AF7860024B7A689A64BD4602B080BDE8
:403040000000002090B585B000AF021CFB1D1A701623FB603C1C0B34FFF794FF031C23700A4B0A4A11680A4A1140FA1D1078FA68041C9440221C0A431A603B1C0B331B78F8
:40308000181CFFF783FFBD4605B090BD00E400E0FFFF3FFF80B500AF024B04221A60BD4680BDC04600E100E080B500AF024B04221A60BD4680BDC04680E100E080B500AF4B
:4030C000024B04221A60BD4680BDC04680E200E080B500AF064B1B78002B04D100F00AF8034B01221A7000F04FF8BD4680BDC0466F01002090B583B000AF204B1B78DAB2E8
:40310000FB1D3F218A431A701C4BFA1D127809210A43D2B21A701A4B194A1278D2B201210A43D2B21A70174B164A1278D2B201210A43D2B21A70C82000F044F8C82000F0A7
:403140005FF8C82000F06CF8042000F079F8BC1DFFF718FF031C23700A4B0A4A1278D2B210210A43D2B21A70BB1D1B78181CFFF70DFF00F037F8BD4603B090BD71000F40D9
:4031800090000F4091000F4080B500AF054B054A1278D2B2802149420A43D2B21A70BD4680BDC04671000F4080B500AF044B044A1278D1B27F220A40D2B21A70BD4680BD6B
:4031C00071000F4080B582B000AF021CBB1D1A80034BBA1D12881A80BD4602B080BDC04600100F4080B500AF01E000F043F800F037F8031C1A1C10231340F6D1BD4680BDC8
:4032000080B582B000AF021CBB1D1A80034BBA1D12881A80BD4602B080BDC04680100F4080B582B000AF021CBB1D1A80034BBA1D12881A80BD4602B080BDC04640100F4022
:4032400080B582B000AF021CFB1D1A70034BFA1D12781A70BD4602B080BDC04681000F4080B500AF024B1B78DBB2181CBD4680BD61000F4080B500AF024B1B889BB2181C6D
:40328000BD4680BDA0100F40002941D010B4041C4C40A44601230022002900D54942002800D5404288422CD301242407A14204D2814202D209011B01F8E7E400A14204D2E2
:4032C000814202D249005B00F8E7884201D3401A1A434C08A04202D3001B5C0822438C08A04202D3001B9C082243CC08A04202D3001BDC082243002803D01B0901D0090910
:40330000E3E7101C6446002C00D5404210BC7047002806D003DB0020C043400801E08020000607B4024802A14018029003BDC046190000000029EBD003B5FFF7A7FF0EBCA6
:403340004243891A1847C0467047C046014B18687047C0464C01002070B50E4B0E4D0024ED1AAD101E1CAC4204D0A300F35898470134F8E700F0BCFB084B094D0024ED1AF4
:40338000AD101E1CAC4204D0A300F35898470134F8E770BDFC3A0000FC3A0000FC3A0000043B000010B50023934203D0CC5CC4540133F9E710BD70B5814201D300230CE0E9
:4033C0008C18A042FAD28518131C013B0BD351426618F65C6918CE54F7E7934203D0CC5CC4540133F9E770BD031C8218934202D019700133FAE7704738B5104B051C1C68E6
:40340000A36B002B15D1182000F092F80C4BA06303800C4B43800C4B83800C4BC3800C4B0381052343810B2383810122002302614361A36B00221D615A6138BD4C010020BF
:403440000E330000CDABFFFF341200006DE6FFFFECDEFFFF00000000174B10B51C68A36B002B15D1182000F063F8144BA0630380134B4380134B8380134BC380134B0381FF
:40348000052343810B2383810122002302614361084B074AA46B2069616900F0B9F80122002380185941206161614800400810BD2D7F954C2DF451584C0100200E330000DD
:4034C000CDABFFFF341200006DE6FFFFECDEFFFF0023C25C0133002AFBD1581E7047000013B5094B041C69461868002200F00EF8002805DB002C01D0009B2360009801E040
:403500000120404216BDC0464C01002038B5074C0023051C081C111C236000F09BF8431C03D12368002B00D02B6038BDB801002008B5034B011C186800F004F808BDC04656
:403540004C01002070B50323CD1C9D430835061C0C2D01D20C2501E0002D3FDB8D423DD3204B1C681A1C211C002913D00868431B0DD40B2B02D90B60CC181EE08C4202D10B
:40358000636813601AE0486860600C1C16E00C1C4968E9E7144C2068002803D1301C00F025F82060301C291C00F020F8431C15D0C41C03239C4384420AD12560201C0B3080
:4035C0000722231D9043C31A0BD05A42E25008E0211A301C00F00AF80130EED10C233360002070BD740100207001002038B5074C0023051C081C2360FEF7DEFF431C03D153
:403600002368002B00D02B6038BDC046B80100209C460304F0B51B0C17043F0C150C1E1C041C000C7E436B4347434543FB18300C1818874202D980235B02ED18030CED1846
:4036400063465C434A433604360CA118000480194919F0BD024B5822012040421A607047B801002000000000514C354547544E3500000000010201020201010201010202D9
:4036800001010102010202000202020101020201010202020102020202020100F6150000B4150000BE150000C8150000E2150000EC150000D6170000CC1600003A17000044
:4036C000A8170000B6170000C617000030170000E2160000EA160000F21600000017000006170000121700001E1700009E1700005017000058170000601700006E17000001
:4037000074170000801700008C1700006818000006180000201800003A18000048180000581800009E2000009E2000009E2000009E2000009E2000009E2000009E2000009A
:403740009E2000009E2000009E2000009E2000009E2000009E2000009E2000009E2000009E2000009E2000009E2000009E2000009E2000009E2000009E2000009220000075
:403780009E2000009E2000009E2000009E2000009E2000009E2000009E2000009E2000009E2000009E2000009E200000502000009E2000000E2000009E200000DE1D0000CA
:4037C000161E00004E1E0000861E0000BE1E0000F61E00002E1F0000661F00009E1F0000D61F00009E2000009E2000009E2000009E2000009E2000009E2000009E200000DF
:403800000A1A0000241A0000521A0000801A0000A41A0000B41A0000E21A0000061B0000341B00004E1B00007C1B0000A01B0000CE1B0000E81B0000021C0000261C000021
:40384000541C0000821C0000A61C0000CA1C0000DA1C0000FE1C00002C1D0000501D00007E1D0000B01D00009E2000009E2000009E2000009E2000009E2000009E200000F0
:403880000A1A0000241A0000521A0000801A0000A41A0000B41A0000E21A0000061B0000341B00004E1B00007C1B0000A01B0000CE1B0000E81B0000021C0000261C0000A1
:4038C000541C0000821C0000A61C0000CA1C0000DA1C0000FE1C00002C1D0000501D00007E1D0000B01D00000400000000300F40000400400F40000403000F403A300F40BF
:403900001D310F404F320F402E330F4006400F4002410F4002420F4002430F4002600F40810D820D830D4030410449FF4AFF4BFF4DA04F0450185A045F01604062C0644062
:40394000654066C068C06AC06CC06EC08202870396029902AE01B201B301B402B702BE10C030C104C5D1C602C807C9FFCAFFCBFFCDAFCE0FCF04D018D280D405D604D8040A
:40398000D904DA04DB04DF01E040E2C0E440E540E6C0E8C0EAC0ECC0EEC006800D0817401C101D081E082640272037203F0840104280450846804F0956805E885F0167403C
:4039C00077408740C010C220C480CC20CE40D0C3D6D0D880030116011E0C26012D012E06300832023401360437013E104030410645D046204710482A49FF4AFF4BFF4DA0D6
:403A00004F04501852805405580459045A045B045F01604062C06440654066C068C06AC06CC06EC0820192069B01A501A60CAA01B004B208B401B602B701BE10C010C1063B
:403A4000C5D1C702C813C9FFCAFFCBFFCDA0CF04D018D280D405D804D904DA04DB04DF01E040E2C0E440E540E6C0E8C0EAC0ECC0EEC0000109020D080F02102816201740B4
:403A8000180119081A441D081E081F822240264029082F0230203F0240014508482849014F2150085620571159015A845E885F017102774083808E40C008C2A8C4A6CA12E8
:403AC000CC04CE80D048D224D6DBE404E640501073028702D420DC20E6408C1094206702D6018301970210011101000043000000F8B5C046F8BC08BC9E4670477914000001
:403B0000A1260000F8B5C046F8BC08BC9E46704751140000283B0000D000002080000000700000000000000000000000C0010020C0F1FF0F00366E01C05D000018000000D6
:403B40000000E02E0000000000000000000000000000000000000000000000000000000000000000EC3A000000000000000000000000000000000000000000000000000011
:403B8000000000000000000000000000000000000000000000000000000000000000000000000000EC000020000000000000000000000000000000000000000000000000F9
:403BC00000000000000000000000000000000000000000000000000000000000000000000000000000000000000000000000000000000000000000000000000000000000C5
:403C00000000000000000000000000000000000000000000000000000000000000000000000000000000000000000000000000000000000000000000000000000000000084
:403C40000000000000000000000000000000000000000000000000000000000000000000000000000000000000000000000000000000000000000000000000000000000044
:403C80000000000000000000000000000000000000000000000000000000000000000000000000000000000000000000000000000000000000000000000000000000000004
:407FC000051111000021000000002B00000000000000010000000100000000000000000000000000000000000000000000000000000000000000000000000000000000000C
:0200000490303A
:02000000680096
:0200000490402A
:20000000FFFFFFFF00000000000000000000000000000000000000000000000000000000E4
:0200000490501A
:0C000000000204C81193110004DD799384
:0200000490600A
:0100000001FE
:00000001FF