:400000000010002011000000B5030000B503000008B500F081FA00F0CFF90000F7B572B680220021D200554800F0EDFF802200215348D20000F0E7FF0023191C514C1859E1
:400040001034C2B20192071CFF2297434A00A4180022019ED5B2AE4209D05500665D6519B446BC446D78664635700132F1E7C0B204330918102BE1D1434BC02292041A60F8
:40008000424B99221A60424A00231360414A80211160414AC9031160404A40211160404AC021490311603F4A312113603E4B02221A603E4B802019603D4B3E491A60992317
:4000C0001B040B603C49000608603C493C200B603B4B8021890519603A493B4B19603B4B19780A431A703A4A117881431420014311701A7816210A431A70364A8023116893
:40010000DB020B431360344B141C1878334BC0B21978334BC9B21A78172A05D9314A58789978033B9342F6D12F4B192218602F4B052019602E4B1A6000F05EFD2D4B052061
:400140001A782D4BD2B21A6000F09EFE22682B4B134023602A4A2B4B1A602B4B10221A602A4B20221A602A4B802212061A60294A294B1A60294A2A4B1A60F7BD00300F40BF
:4001800000400F402410000004000140100001400C000140000004400800044000010440080104400803044000040440080404401804044000500F4004500F4010500F403F
:4001C00018500F40100001002001054000700F4001700F4000010B40CCF1FF0FCDF1FF0FC9F1FF0FBDF1FF0F1CFF0B4020FF0B402CFF0B40E5F1FF0F28FF0B40FFFFFBFF57
:400200000600008004010B40080202402002024008010B401000008000000240AF0400804000024010B5064C2378002B07D1054B002B02D0044800E000BF0123237010BDEC
:40024000F0000020000000002010000008B5084B002B03D00748084900E000BF07480368002B03D0064B002B00D0984708BDC0460000000020100000F4000020D00000200F
:400280000000000010B562B600F0ACFC00280ED16524012000F0E2FD00F0A4FC002806D1013CE4B2002CF4D1034B40221A6000F08BFC00F0DBFAFEE7C000002008B500F01E
:4002C00015FB00F04DFB00F0B5FB08BD70B5054B0D1C161C0024C9B21C8000F09FFB3580201C70BD0C010020F0B50A275F4387B003900591151C00262D4CBE4219DA00F0E6
:400300001DFB80B220802388002B0CD00220268800F0A4FD00F012FB80B220802388B6B2B342F3D807E00120013600F097FDB6B2E2E7052600E0002600272F802388002B4D
:4003400033D023889BB2019301992B885A18059992B22A808A4221D2019ABB189BB2029302998F4209D07B1C9BB20493039BDF1900F0CAFA3870049FF2E772B62388019AF8
:400380009B1A9BB2238062B6039A5318013B1B78172B08D0052000F061FD04E02B8000F0DFFA052601E0029FC8E7301C07B0F0BD0C010020FEE7000070B51048104B013895
:4003C000421C15D01E685C689D680022A118AA4203D0B158A1500432F8E7DA680D1C4C1B944202D0002410C1F9E710330138E7E700F0DAFDFFF746FFFEE7C046010000003B
:400400007410000008B500239A00032B02D80D49895800E00C490D4801338150302BF3D1FFF7FCFD0A4B00221A600A4B1A68002A00D11A608023DB051A6801210A431A60B7
:4004400008BDC04600000000B503000000000020C8000020C0000020004770B5051C0E1C141C002802D0002000F0EAFC0020002C05D0013CAA19125D8318D8B2F7E770BD7A
:40048000013808B509282AD8C901494200F078FD0507090B0D0F1614181B154B08E0154B12E0154B0DE0154B0EE0154B00E0154BC9180878C0B21AE0134B02E0134B00E0A0
:4004C000134BC9180FE0134BC9180B7848788A780002120410431843CB781B0606E0002000F0AEFC00210B7848780002184308BDC07F0000C17F0000C57F0000C97F0000EF
:40050000D07F0000D17F0000D67F0000D27F0000D47F0000D87F00000C4B10B51A6810231A400B4B00D11A601A68802A0DD100240220211C1C60FFF7A3FFA04205D0211C6B
:400540000220FFF79DFFFFF787FF10BD00030B40C0000020F8B5051C291C0320FFF790FF291C041C0420FFF78BFF671CFF013F18291C0320FFF784FF00240130C001261C79
:40058000B84209D203785A1ED2B2FD2A00D801261C19E4B20130F3E70120291CFFF770FF6442E4B20623844203D17242564176423340181CF8BD0000F0B5A44CA544FFF756
:4005C0007DFE62B600260096002506AC03AE9621201C4900321CFF23FFF786FE0028F4D13188062900D88AE022780423012A54D1E778A2783F021743E2195679B44616796F
:400600000196FE1D8E427FD89279172A45D1FB189BB2002B08D09CA98D4ECA1892191278013B801880B2F3E7019B614640420A0280B21A43082382422FD167E0342B00D040
:400640009DE0009901295AD1032F58D151A80021802200F0D8FC802551A948192639ED19FA1EFF39ADB200F0C5FC832D49D1A079637900021843774B36021B6880191A68BB
:4006800080B2D3099BB2560601D001339BB298427BD20127009700250A2300210120207068466A46437681766B4600200E32D8760B1D11809BB29CAFFE18654F013BF61954
:4006C00036789BB2801980B2002BF4D19CAE624F7318DE194042614F80B23070DE19000A30705F4807311B181720187089B2201C9623FFF7EBFD68E7009E012E1BD0042315
:40070000CBE70126009600250323C6E763782679181C31380A2801D90523BEE700F03AFCECFF1400FCFF8EFF3F00FCFF430054008EFF63008B00002FE1D1381CFFF70AFF35
:4007400043424341237173E000980128D7D1012FD5D1002ED3D13F4B1B681B68DA0BD2B2DB09DBB2002A01D080235B0023711B0A6371FF23A3710023E37104218EE7009BA6
:40078000012BBCD1022FBAD966E751A900F048FA002800D07DE701260096051C12E0009F012FACD110E7009E012EA8D19623EE195B009E42A8D851A948193A1C07A900F0C2
:4007C00019FCB5B2002368E7002F98D104AB254A191C41CA41C107AA41CB41C2012600963B1C08215AE70098012888D1032F86D1A37962791B021A43310251180192C901C8
:4008000000208022FFF729FE071C002E0ED10199FF290BD1311C0520FFF732FE311C3F1A0620FFF72DFEFFB23F1AFFB27F4227710023012132E70020FFF78CFE002802D179
:40084000094B80221A6000F0FDFA58E78CFDFFFFA7FDFFFFD4000020ACFDFFFFADFDFFFFAEFDFFFF48100000C000002038B50020FFF770FE0025A84200D00625124C00209C
:400880002368C0211A68C03AFFF7E7FD62681378181AC0B2984203D123681B68002B02D1002000F0CDFA094B19681A1C402901D0002D03D000231360FFF77EFE80221A6083
:4008C00000F0C0FA38BDC046D4000020C000002008B5054B8022196812060A431A600A2000F09AFA08BDC0460000064010B5054C2378002B03D100F0BFF801232370FFF7AD
:40090000E7FF10BD10010020094B0A4A1968136899420BD011684B1C4039481E814149420B400549C85C1360C0B200E000207047B0010020280100206C010020064B074ACB
:400940001B6811688B4202D31068181A02E012684133981A7047C046B0010020280100200C4A0D4B002130B5106811601D68802464022C431C601D68084C2C401C60084BAB
:400980001C68084B1C60084B19700849084B1960106030BDC80F064004030640FFFFFEFF28010020B0010020AD010020ED0F0000C00F0640124910B50A68531C3F3A541E44
:4009C000A241524213400F4A1468A342FBD00C681268944208D10C4A14680F222240082A02D00A4B18600AE0094C02222260094CC0B2E0540B60084B19680A431A6010BD22
:400A000024010020200100200802064040020640800F06402C010020880F064038B5041C4518AC4204D02078FFF7C4FF0134F8E738BD00000B4A0023116810B513600A4B55
:400A400080201C684002204318601C68074820401860074B1868074B186002239943116010BDC046880F064004020640FFFFFEFF20010020240100201D4A1E4B10B51A60F0
:400A80001D4B00241C601D4B01221A601C491D4B07200B601C4908601C490A200C601C490A601C4A13601C4B1C6000F0BFF90A20032100F091F919490A2000F081F9184BAE
:400AC00004221C60174B1C60174B1C60174B1C60174B1A60174B1C60174B1C60174B1C60174B1C70174B1C60174B1C6010BDC0460B00000200000640400006404800064060
:400B0000000306400700008004030640100306404400064000020640040206409D0E0000880E0640C80E0640480F0640080F0640C80F0640880F0640B00100202801002070
:400B4000AD01002024010020200100200E4B8422D2041A601968802252020A431A600B490B4A0A60196819600A4BC32189001960094B00211960094B1C211960084B1A6087
:400B8000084A094B1A60704700010540080105401027000024010540380105402801054014010540881300000C01054008B500F02DF8044B01211A680A431A6000F02AF858
:400BC00008BDC0460000054010B5054C2378002B03D1FFF7BBFF01232370FFF7E7FF10BD18010020024B18680006C00F7047C04604000440000000000230800804D0C046B1
:400C00000138FDD1C046C046C0467047EFF3108072B6704780F310887047C046C046C046F0B50024CBB0069404900794FF2800D9A4E0A14200D1A1E008AD8022281C00F06E
:400C4000D9F9231C211C221C029498002858002802D01218014302930133202BF5D1002A05D1002900D08EE00191039102E0002001900390484F7F2328AE291C80222AA87D
:400C80002897464C736000F0B5F9454A454B266013602168090F0A2903D022680F23134000E000230693069F002F69D1FFF7AEFF3D4A3E4B116807971960069B0590002B56
:400CC00014D13B4A04982892289A01040A43289228AA22603249374A0A602268120F0A2A03D02E4B1A680F2313400693069F002F38D1019A002A35D0391C8022281C00F00F
:400D000082F90298039A08A983005A50224B2AA8289380227F23736000F06CF9214820492660086023681B0F0A2B03D01B4B1F680F231F400697069B002B13D11E4A049871
:400D40002892289A01040A43289215491B4A26600A602268120F0A2A03D0104B1A680F2313400693079B002B04D1104A0E481268026007930598FFF74DFF01E00423069343
:400D800006984BB0F0BD02998B00E85801210390EA5001916EE7C046B6D7000008000040040000400400008008010B401C010020B6D8000005000080B6D900000600008055
:400DC0001F2800D901BE034A80008318186819607047C0464000002038B5041C0D1E032D00D901BE1F2C00D901BEFFF70FFFA308084A9B009B18032214409440196806345C
:400E0000A2409143A5400C1C2C431C60FFF702FF38BDC04600E400E01F23184001238340181C014B1860704700E100E01F23184001238340181C014B1860704780E100E0EC
:400E400001BE7047034B04491A6892B20A431A607047C0460CED00E00400FA0510B5041C8022074B1202944205D91868FFF7C4FE044BE418F4E758686043FFF7BDFE10BD5B
:400E8000DC0000200080FFFF08B5034B1B7A5843FFF7B2FE08BDC046DC000020274B10B51B68002B00D09847254B1B685A071DD5244B1B681A0716D0234B244A1868116868
:400EC0004B1C40394C1EA14149420B40204909688B4203D11F4B20221A70E9E71E49C0B2C8541360E4E71D4B04221A601C4B1B689A0721D51B4B1A680F231340082B18D02B
:400F0000194B1A4A1968136899420DD011684B1C3F39481E814149420B401549C85C1549C0B208601360E5E7134B02211A688A431A60124B02221A6010BDC0461401002099
:400F4000CC0F06400803064040030640B001002028010020AD0100206C010020C00F06408C0F06400802064024010020200100202C01002040020640880F0640800F0640AE
:400F800002B4714649084900095C49008E4402BC7047C04603B47146490840004900095E49008E4403BC704770B50E4B0E4D0024ED1AAD101E1CAC4204D0A300F358984765
:400FC0000134F8E700F044F8084B094D0024ED1AAD101E1CAC4204D0A300F35898470134F8E770BD5C1000005C1000005C1000006410000010B50023934203D0CC5CC4548E
:401000000133F9E710BD031C8218934202D019700133FAE770470000A8100000EE0000000000000001330F4003410F4004430F4002600F40E61062048E04D84018808C40AD
:40104000C608E608020111019311C804111E0101F8B5C046F8BC08BC9E4670474D02000005040000F8B5C046F8BC08BC9E4670472502000088100000D0000020200000004B
:40108000C80000000000000000000000181000001C1000000000E02EC05D00001800000000366E01000000000000000000000000000000000000000000000000000000002C
:4010C00000000000000000000000000000000000000000000000000000000000000000000000000000000000000000000000000000000000000000000000000000000000F0
:401100000010002011110000AD140000AD14000080B500AF024B83F3088800F0CBF9C0460010002080B584B000AF021CFB1D1A70204A3B1C0B3312781A701F4A3B1C0A33D2
:4011400012781A700423013BFB6018E01B4B1868391C0B31FA68131C5B009B18C3185B780B70164B1868391C0A31FA68131C5B009B18C3189B780B70FB68013BFB60FB6890
:40118000002B0ADB0D4B1968FA68131C5B009B185B5CFA1D12789A42D8D9094B3A1C0B3212781A60074B3A1C0A3212781A60BD4604B080BDCCF1FF0FCDF1FF0FD400002070
:4011C0001CFF0B4020FF0B4080B500AF134B134A12688021C9020A431A601820FFF7A2FF0F4B19221A60052000F0B2FC0D4B0E4A1278D2B21A60052000F0E2FC074B074A64
:4012000011680A4A0A401A60094B0A4A1A600A4B802212061A60BD4680BDC04600010B402CFF0B4028FF0B40E5F1FF0FFFFFFBFF04010B400600008008010B4080B582B08B
:4012400000AF72B6FB1D00221A7023E0FB1D1A78131C5B009B185B00364A9B183B603B681A78597809020A43997809040A43DB781B0613431A1C3B6819795B791B020B4383
:401280009BB2101C191C00F09BF9FB1D1A78FB1D01321A70FB1D1B78012BD7D9264A274B101C191C00F09CF9254BEE2212021A60244B08221A60244B244A1A60244B8022A5
:4012C0001A60244B244A1A60244B254A1A60254B992212041A60244B802212041A60234B992212041A60224B992212041A60214B204A1278D2B202210A43D2B21A701E4B2D
:401300001D4A1278D2B23C218A43D2B214210A43D2B21A70174B174A1278D2B216210A43D2B21A70FFF750FF00F09AF9BD4602B080BDC046BC1D0000C81D0000CC1D000030
:401340000C0001400001044008010440000418000C01044008020440B66DDB0008030440800D1B0010500F4014500F4020500F4030500F4000700F4001700F4010B5064C58
:401380002378002B07D1054B002B02D0044800E000BF0123237010BDE800002000000000801D000008B5084B002B03D00748084900E000BF07480368002B03D0064B002BAD
:4013C00000D0984708BDC04600000000801D0000EC000020D00000200000000080B500AF012000F08FFB034B01221A7000F0FCFBBD4680BD0401002080B500AF62B6244BA9
:40140000181C00F009FC002000F07CFB012000F02BF9002000F072F9012000F049F900F0DDF90C2000F076FA1A4B1B78DBB2002B10D10020002100F0E3F9174B181C00F083
:4014400019FA0120062100F0DBF9144B181C00F011FAE9E7012000F05DFA0020002100F0CFF90F4B181C00F005FA0120002100F0C7F90C4B181C00F0FDF9064B00221A70B1
:40148000094B181C00F078FB012000F043FACBE7DD13000004010020841D0000941D00009C1D0000A81D0000B80B000080B500AFFEE7C04680B586B000AF224B7B61224BFA
:4014C0003B61204B7B6135E03B691B68FB603B695B68BB603B699B683B6000237B600CE0FB681A68BB681A60BB680433BB60FB680433FB607B6804337B607A683B689A4282
:40150000EED13B69DB683B6000237B6008E0BB6800221A60BB680433BB607B6804337B607A683B689A42F2D13B6910333B617B69013B7B617B69002BC6D100F0F3FBFFF73E
:401540005BFFFEE701000000341E000080B582B000AF00237B600FE07B68032B04D8134B7A689200D35800E0114B124A796889008B507B6801337B607B682F2BECD9FFF725
:401580005DFE0D4B00221A600C4B1B68002B02D10A4B00221A608023DB058022D205126801210A431A60BD4602B080BD00110000AD14000000000020C8000020C000002008
:4015C00080B582B000AF786039607A683B68101C00211A1C00F0CCFBBD4602B080BDC04680B586B000AF7860396000233B6100237B612EE07B699B007A68D3181B68BB606C
:401600003B1C0F33BA681A70BB68FF229343BB6017E03B695B003A68D3181B781A1CBB68D3183A69520039688A1852781A703B6901333B613B1C0F331A783B1C0F33013AD7
:401640001A703B1C0F331B78002BE2D17B6901337B617B69002BCDD0BD4606B080BDC04680B500AFBD4680BD80B584B000AF021CFB1D1A700D4B1B68DAB23B1C0F3301211C
:401680008A431A70FB1D1A7801231340D9B23B1C0F333A1C0F3212780A431A70034B3A1C0F3212781A60BD4604B080BD0002044080B584B000AF021CFB1D1A700E4B1B68BF
:4016C000DAB23B1C0F3320218A431A70FB1D1B785B01DAB220231340D9B23B1C0F333A1C0F3212780A431A70034B3A1C0F3212781A60BD4604B080BD0003044080B584B05B
:4017000000AF021CFB1D1A700E4B1B68DAB23B1C0F3340218A431A70FB1D1B789B01DAB240231340D9B23B1C0F333A1C0F3212780A431A70034B3A1C0F3212781A60BD46F0
:4017400004B080BD0003044080B500AF282000F013FA032000F0AAF9052000F00DFA032000F0A4F90F2000F007FA032000F09EF9012000F001FA022000F098F9052000F0F8
:40178000FBF9062000F0C6F80E2000F0C3F82C2000F0C0F8082000F0BDF8012000F0BAF80C2000F0B7F8032000F0B4F8052000F0E3F9034B181C00F089FABD4680BDC0464E
:4017C000D01D000080B500AF0C2000F0A3F8024B01221A70BD4680BD0501002080B500AF064B1B78002B04D1FFF7AEFF034B01221A70FFF7E7FFBD4680BDC0460601002052
:4018000080B582B000AF0A1CFB1D011C1970BB1D1A70FB1D1B78012B10D002DC002B05D024E0022B12D0032B18D01FE0BB1D1B78803BDBB2181C00F06DF817E0BB1D1B78F1
:40184000403BDBB2181C00F065F80FE0BB1D1B786C3BDBB2181C00F05DF807E0BB1D1B782C3BDBB2181C00F055F8C046BD4602B080BDC04680B584B000AF78603B1C0F339A
:4018800001221A703B1C0E337A6812781A7015E03B1C0E331B78181C00F018F83B1C0F331B787A68D2183B1C0E3312781A703B1C0F331A783B1C0F3301321A703B1C0E33DC
:4018C0001B78002BE4D1BD4604B080BD80B584B000AF021CFB1D1A7000F040F83B1C0F33FA1D127812091A703B1C0F331B78181C00F0A6F83B1C0F33FA1D11780F220A4000
:401900001A703B1C0F331B78181C00F099F8BD4604B080BD80B584B000AF021CFB1D1A7000F01CF83B1C0F33FA1D127812091A703B1C0F331B78181C00F0B8F83B1C0F33F4
:40194000FA1D11780F220A401A703B1C0F331B78181C00F0ABF8BD4604B080BD80B582B000AF314B304A1268FE218A431A602F4B1A682F4B13407B602C4B7A682D490A432F
:401980001A60294B284A126840218A431A60264B254A126880210A431A60002000F010F9214B214A126820210A431A60012000F007F9214B1B687B601B4B1B4A1268202110
:4019C0008A431A60002000F0FBF87A68102313407B60154B144A126820210A431A60012000F0EEF8104B104A126820218A431A607B68002BD1D10C4B0B4A126880218A4328
:401A00001A60094B084A1268FE218A431A60074B1A68074B13407B60044B7A6807490A431A60BD4602B080BD00020440080204400780FFFF4812000004020440B06D00003E
:401A400080B582B000AF021CFB1D1A70164B164A126840210A431A60134B134A126880218A431A60002000F0ABF80F4B0E4A12681E218A431A600C4B0B4A1168FA1D1278E5
:401A80009218D2B220200243D2B20A431A60012000F096F8044B044A126820218A431A60BD4602B080BDC0460002044080B582B000AF021CFB1D1A70114B114A1268C021C4
:401AC0008A431A600E4B0E4A12681E218A431A600B4B0B4A1168FA1D12789218D2B220200243D2B20A431A60012000F069F8044B034A126820218A431A60BD4602B080BD29
:401B00000002044080B584B000AF021CFB1D1A700E4B1B68DAB23B1C0F3340218A431A70FB1D1B789B01DAB240231340D9B23B1C0F333A1C0F3212780A431A70034B3A1C85
:401B40000F3212781A60BD4604B080BD000104400230800804D0C0460138FDD1C046C046C0467047EFF3108072B6704780F310887047C046C046C04680B582B000AF786070
:401B800008E00C4B1B68181CFFF7E2FF7B680A4A9B187B607A6880231B029A42F1D8074B1B687A685343181CFFF7D2FFBD4602B080BDC046E40000200080FFFFDC0000208E
:401BC00080B582B000AF021CBB1D1A80BB1D1B88044A12785343181CFFF7BAFFBD4602B080BDC046E000002080B582B000AF094B1B68D9B2FB1D08220A401A70054BFA1D86
:401C000012781A60FB1D1B78DB08DBB2181CBD4602B080BD1001044080B582B000AF786000F04AF87B68181C00F008F8032000F011F800F037F8BD4602B080BD80B582B04F
:401C400000AF7860024B7A685A64BD4602B080BD0000002090B585B000AF021CFB1D1A700E23FB603C1C0B34FFF77CFF031C23700A4B0A4A11680A4A1140FA1D1078FA68E7
:401C8000041C9440221C0A431A603B1C0B331B78181CFFF76BFFBD4605B090BD00E400E0FF3FFFFF80B500AF024B02221A60BD4680BDC04600E100E080B500AF024B02223F
:401CC0001A60BD4680BDC04680E100E080B584B000AF7860FFF742FE4020FFF71BFE3B1C0F3300221A700FE03B1C0F331B787A68D3181B78181CFFF7E9FD3B1C0F331A7853
:401D00003B1C0F3301321A703B1C0F331B783F2BEAD9FFF723FE8020FFF7FCFDBD4604B080BDC04670B50E4B0E4D0024ED1AAD101E1CAC4204D0A300F35898470134F8E7B6
:401D400000F066F8084B094D0024ED1AAD101E1CAC4204D0A300F35898470134F8E770BD1C1E00001C1E00001C1E0000241E0000031C8218934202D019700133FAE77047D5
:401D800000000000495220526571756972656420466F7200466C616700000000466C61672069733A000000005859444B534F434B4F44484944534F000400000000300F40B9
:401DC000000400400F40000402600F40020111010000000000000000101010101010101018181818181818181C1C1C1C1C1C1C1C1E1E1E1E1E1E1E1E1F1F1F1F1F1F1F1F7E
:401E000000000000000000000000000000000000F8B5C046F8BC08BC9E467047A51300004D150000F8B5C046F8BC08BC9E4670477D130000481E0000D000002018000000FE
:401E4000200000000000000000000000C0F1FF0F00366E01C05D0000180000000000E02E00000000000000000000000000000000000000000000000000000000000000009B
:401E80000000000000000000000000000000000000000000000000000000000000000000000000000000000000000000000000000000000000000000000000000000000022
:401EC00000000000000000000000000000000000000000000000000000000000000000000000000000000000000000000000000000000000000000000000000000000000E2
:401F000000000000000000000000000000000000000000000000000000000000000000000000000000000000000000000000000000000000000000000000000000000000A1
:401F40000000000000000000000000000000000000000000000000000000000000000000000000000000000000000000000000000000000000000000000000000000000061
:407FC000361111000021000000800D00000000000000010000000000000000000000000000000000000000000000000000000000000000000000000000000000000000007A
:0200000490303A
:02000000B261EB
:0200000490402A
:20000000FFFFFFFF00000000000000000000000000000000000000000000000000000000E4
:0200000490501A
:0C000000000204C81193110004D1C3F4E5
:0200000490600A
:0100000001FE
:00000001FF