:400000000010002011000000B5030000B503000008B500F079FA00F0CFF90000F7B572B680220021D200554800F0D7FF802200215348D20000F0D1FF0023191C514C185915
:400040001034C2B20192071CFF2297434A00A4180022019ED5B2AE4209D05500665D6519B446BC446D78664635700132F1E7C0B204330918102BE1D1434BC02292041A60F8
:40008000424B99221A60424A00231360414A80211160414AC9031160404A40211160404AC021490311603F4A312113603E4B02221A603E4B802019603D4B3E491A60992317
:4000C0001B040B603C49000608603C493C200B603B4B8021890519603A493B4B19603B4B19780A431A703A4A117881431420014311701A7816210A431A70364A8023116893
:40010000DB020B431360344B141C1878334BC0B21978334BC9B21A78172A05D9314A58789978033B9342F6D12F4B192218602F4B052019602E4B1A6000F052FD2D4B05206D
:400140001A782D4BD2B21A6000F088FE22682B4B134023602A4A2B4B1A602B4B10221A602A4B20221A602A4B802212061A60294A294B1A60294A2A4B1A60F7BD00300F40D5
:4001800000400F40F80F000004000140100001400C000140000004400800044000010440080104400803044000040440080404401804044000500F4004500F4010500F406C
:4001C00018500F40100001002001054000700F4001700F4000010B40CCF1FF0FCDF1FF0FC9F1FF0FBDF1FF0F1CFF0B4020FF0B402CFF0B40E5F1FF0F28FF0B40FFFFFBFF57
:400200000600008004010B40080202402002024008010B401000008000000240AF0400804000024010B5064C2378002B07D1054B002B02D0044800E000BF0123237010BDEC
:40024000F000002000000000F40F000008B5084B002B03D00748084900E000BF07480368002B03D0064B002B00D0984708BDC04600000000F40F0000F4000020D000002069
:400280000000000010B562B600F0A2FC00280ED16524012000F0CCFD00F09AFC002806D1013CE4B2002CF4D1034B40221A6000F081FC00F0D3FAFEE7C000002008B500F05A
:4002C0000BFB00F043FB00F0ABFB08BD70B5054B0D1C161C0024C9B21C8000F095FB3580201C70BD0C010020F0B50A275F4387B003900591151C00262D4CBE4219DA00F00E
:4003000013FB80B220802388002B0CD00220268800F08EFD00F008FB80B220802388B6B2B342F3D807E00120013600F081FDB6B2E2E7052600E0002600272F802388002B8D
:4003400033D023889BB2019301992B885A18059992B22A808A4221D2019ABB189BB2029302998F4209D07B1C9BB20493039BDF1900F0C0FA3870049FF2E772B62388019A02
:400380009B1A9BB2238062B6039A5318013B1B78172B08D0052000F04BFD04E02B8000F0D5FA052601E0029FC8E7301C07B0F0BD0C010020FEE7000070B51048104B0138B5
:4003C000421C15D01E685C689D680022A118AA4203D0B158A1500432F8E7DA680D1C4C1B944202D0002410C1F9E710330138E7E700F0C4FDFFF746FFFEE7C0460100000051
:400400004810000008B500239A00032B02D80D49895800E00C490D4801338150302BF3D1FFF7FCFD0A4B00221A600A4B1A68002A00D11A608023DB051A6801210A431A60E3
:4004400008BDC04600000000B503000000000020C8000020C0000020004710B50023002A05D0013A4418A45C1B19DBB2F7E7181C10BD0000013800B509282AD8C901494236
:4004800000F068FD0507090B0D0F1614181B144B08E0144B12E0144B0DE0144B0EE0144B00E0144BC9180878C0B217E0124B02E0124B00E0124BC9180CE0124BC9180B784E
:4004C00048788A780002120410431843CB781B0603E000210B7848780002184300BDC046C07F0000C17F0000C57F0000C97F0000D07F0000D17F0000D67F0000D27F000059
:40050000D47F0000D87F00000C4B10B51A6810231A400B4B00D11A601A68802A0DD100240220211C1C60FFF7A5FFA04205D0211C0220FFF79FFFFFF78FFF10BD00030B4059
:40054000C0000020F8B5051C291C0320FFF792FF291C041C0420FFF78DFF671CFF013F18291C0320FFF786FF00240130C001261CB84209D203785A1ED2B2FD2A00D801264C
:400580001C19E4B20130F3E70120291CFFF772FF6442E4B20623844203D17242564176423340181CF8BD0000F0B5A44CA544FFF785FE62B600260096002506AC03AE962130
:4005C000201C4900321CFF23FFF78EFE0028F4D13188062900D88AE022780423012A54D1E778A2783F021743E2195679B44616790196FE1D8E427FD89279172A45D1FB18A7
:400600009BB2002B08D09CA98D4ECA1892191278013B801880B2F3E7019B614640420A0280B21A43082382422FD167E0342B00D09DE0009901295AD1032F58D151A80021AE
:40064000802200F0CAFC802551A948192639ED19FA1EFF39ADB200F0B7FC832D49D1A079637900021843774B36021B6880191A6880B2D3099BB2560601D001339BB29842D4
:400680007BD20127009700250A2300210120207068466A46437681766B4600200E32D8760B1D11809BB29CAFFE18654F013BF61936789BB2801980B2002BF4D19CAE624F86
:4006C0007318DE194042614F80B23070DE19000A30705F4807311B181720187089B2201C9623FFF7F3FD68E7009E012E1BD00423CBE70126009600250323C6E763782679DD
:40070000181C31380A2801D90523BEE700F02CFCECFF1400FCFF8EFF3F00FCFF430054008EFF63008B00002FE1D1381CFFF70AFF43424341237173E000980128D7D1012F9B
:40074000D5D1002ED3D13F4B1B681B68DA0BD2B2DB09DBB2002A01D080235B0023711B0A6371FF23A3710023E37104218EE7009B012BBCD1022FBAD966E751A900F044FA3D
:40078000002800D07DE701260096051C12E0009F012FACD110E7009E012EA8D19623EE195B009E42A8D851A948193A1C07A900F00BFCB5B2002368E7002F98D104AB254A22
:4007C000191C41CA41C107AA41CB41C2012600963B1C08215AE70098012888D1032F86D1A37962791B021A43310251180192C90100208022FFF731FE071C002E0ED10199BB
:40080000FF290BD1311C0520FFF734FE311C3F1A0620FFF72FFEFFB23F1AFFB27F4227710023012132E70020FFF78CFE002802D1094B80221A6000F0EFFA58E78CFDFFFF0F
:40084000A7FDFFFFD4000020ACFDFFFFADFDFFFFAEFDFFFF1C100000C000002070B50020FFF770FE0024A04200D00624114E00203368C0211D682A1CC03AFFF7EEFD7368B9
:400880001B78181AC0B2984201D1002D02D1002000F0C0FA084B19681A1C402901D0002C03D000231360FFF77FFE80221A6000F0B3FA70BDD4000020C000002008B5054B78
:4008C0008022196812060A431A600A2000F08EFA08BDC0460000064010B5054C2378002B03D100F0BFF801232370FFF7E7FF10BD10010020094B0A4A1968136899420BD001
:4009000011684B1C4039481E814149420B400549C85C1360C0B200E000207047B0010020280100206C010020064B074A1B6811688B4202D31068181A02E012684133981A3F
:400940007047C046B0010020280100200C4A0D4B002130B5106811601D68802464022C431C601D68084C2C401C60084B1C68084B1C60084B19700849084B1960106030BDCC
:40098000C80F064004030640FFFFFEFF28010020B0010020AD010020ED0F0000C00F0640124910B50A68531C3F3A541EA241524213400F4A1468A342FBD00C6812689442DA
:4009C00008D10C4A14680F222240082A02D00A4B18600AE0094C02222260094CC0B2E0540B60084B19680A431A6010BD24010020200100200802064040020640800F064002
:400A00002C010020880F064038B5041C4518AC4204D02078FFF7C4FF0134F8E738BD00000B4A0023116810B513600A4B80201C684002204318601C68074820401860074B4A
:400A40001868074B186002239943116010BDC046880F064004020640FFFFFEFF20010020240100201D4A1E4B10B51A601D4B00241C601D4B01221A601C491D4B07200B60C2
:400A80001C4908601C490A200C601C490A601C4A13601C4B1C6000F0B3F90A20032100F08BF919490A2000F07FF9184B04221C60174B1C60174B1C60174B1C60174B1A6016
:400AC000174B1C60174B1C60174B1C60174B1C70174B1C60174B1C6010BDC0460B000002000006404000064048000640000306400700008004030640100306404400064078
:400B00000002064004020640710E0000880E0640C80E0640480F0640080F0640C80F0640880F0640B001002028010020AD01002024010020200100200E4B8422D2041A60F9
:400B40001968802252020A431A600B490B4A0A60196819600A4BC32189001960094B00211960094B1C211960084B1A60084A094B1A60704700010540080105401027000088
:400B800024010540380105402801054014010540881300000C01054008B500F02BF8044B01211A680A431A6000F028F808BDC0460000054010B5054C2378002B03D1FFF748
:400BC000BBFF01232370FFF7E7FF10BD18010020024B18680006C00F7047C046040004400230800804D0C0460138FDD1C046C046C0467047EFF3108072B6704780F310883B
:400C00007047C046C046C046F0B50024CBB0069404900794FF2800D9A4E0A14200D1A1E008AD8022281C00F0CFF9231C211C221C029498002858002802D01218014302936D
:400C40000133202BF5D1002A05D1002900D08EE00191039102E0002001900390484F7F2328AE291C80222AA82897464C736000F0ABF9454A454B266013602168090F0A2910
:400C800003D022680F23134000E000230693069F002F69D1FFF7AEFF3D4A3E4B116807971960069B0590002B14D13B4A04982892289A01040A43289228AA22603249374A26
:400CC0000A602268120F0A2A03D02E4B1A680F2313400693069F002F38D1019A002A35D0391C8022281C00F078F90298039A08A983005A50224B2AA8289380227F23736056
:400D000000F062F9214820492660086023681B0F0A2B03D01B4B1F680F231F400697069B002B13D11E4A04982892289A01040A43289215491B4A26600A602268120F0A2A02
:400D400003D0104B1A680F2313400693079B002B04D1104A0E481268026007930598FFF74DFF01E00423069306984BB0F0BD02998B00E85801210390EA5001916EE7C046D5
:400D8000B6D7000008000040040000400400008008010B401C010020B6D8000005000080B6D9000006000080024A83009B181868196070474000002038B5041C0D1CFFF71F
:400DC00019FFA308084A9B009B1803221440944019680634A2409143A5400C1C2C431C60FFF70CFF38BDC04600E400E01F23184001238340181C014B1860704700E100E029
:400E00001F23184001238340181C014B1860704780E100E001BE7047034B04491A6892B20A431A607047C0460CED00E00400FA0510B5041C8022074B1202944205D91868E9
:400E4000FFF7CEFE044BE418F4E758686043FFF7C7FE10BDDC0000200080FFFF08B5034B1B7A5843FFF7BCFE08BDC046DC000020274B10B51B68002B00D09847254B1B68EC
:400E80005A071DD5244B1B681A0716D0234B244A186811684B1C40394C1EA14149420B40204909688B4203D11F4B20221A70E9E71E49C0B2C8541360E4E71D4B04221A6053
:400EC0001C4B1B689A0721D51B4B1A680F231340082B18D0194B1A4A1968136899420DD011684B1C3F39481E814149420B401549C85C1549C0B208601360E5E7134B02219D
:400F00001A688A431A60124B02221A6010BDC04614010020CC0F06400803064040030640B001002028010020AD0100206C010020C00F06408C0F06400802064024010020EA
:400F4000200100202C01002040020640880F0640800F064002B4714649084900095C49008E4402BC7047C04603B47146490840004900095E49008E4403BC704770B50E4BE9
:400F80000E4D0024ED1AAD101E1CAC4204D0A300F35898470134F8E700F044F8084B094D0024ED1AAD101E1CAC4204D0A300F35898470134F8E770BD3010000030100000CA
:400FC000301000003810000010B50023934203D0CC5CC4540133F9E710BD031C8218934202D019700133FAE77047000078100000750000000000000001330F4003410F40F0
:4010000004430F4002600F40E61062048E04D84018808C40C608E608020111019311C804111E0101F8B5C046F8BC08BC9E4670474D02000005040000F8B5C046F8BC08BC44
:401040009E4670472502000058100000D000002020000000C800000000000000EC0F0000F00F00000000E02EC05D00001800000000366E010000000000000000000000008C
:401080000010002091100000551400005514000008B5024B83F3088800F0F4F900100020F7B572B6514B01221A7080220021D2004F4800F00BFD802200214E48D20000F014
:4010C00005FD0023191C4C4C18591834C2B20192071CFF2297434A00A4180022019ED5B2AE4209D05500665D6519B446BC446D78664635700132F1E7C0B204330918182B27
:40110000E1D13E4B802252001A803D4B01221A70EE213C4B090219603B4B082119603B493B4B802019603B4B802119603A493B4B000419603A493B4B19603B4999231B0445
:401140000B603A4908603A493C200B6039490B60394B1A60394B02221A60394B19780A431A70384A117881431420014311701A7816210A431A70344A80231168DB020B43A9
:401180001360324B141C1878314BC0B21978314BC9B21A78172A05D92F4A58789978033B9342F6D12D4B192218602D4B052019602C4B1A6000F0F8FA2B4B05201A782B4B6D
:4011C000D2B21A6000F01AFB2268294B13402360284A294B1A60294B10221A60284B802212061A60274A284B1A60F7BD1C700F4000300F4000400F407C1E000000600F40AD
:4012000002600F400C0001400001044000041800080104400C010440B66DDB0008020440800D1B000803044010500F4014500F4020500F4030500F402000004000800F404F
:4012400000700F4001700F4000010B40CCF1FF0FCDF1FF0FC9F1FF0FBDF1FF0F1CFF0B4020FF0B402CFF0B40E5F1FF0F28FF0B40FFFFFBFF0600008004010B4030020240AA
:4012800008010B406F1700800000024010B5064C2378002B07D1054B002B02D0044800E000BF0123237010BD5001002000000000341D000008B5084B002B03D007480849B1
:4012C00000E000BF07480368002B03D0064B002B00D0984708BDC04600000000341D000054010020D00000200000000008B5012000F04CFA024B01221A7000F097FA08BD97
:401300006C01002008B500F043FB00F017FB08BD08B500F011FC0B2100F0A0FB01310029F7D00139092903D8024B8900C85800E0014808BD381D0000601D000070B562B6A1
:40134000394800F091FA394800F010FB012000F0E9F8002000F0FEF8012000F0EFF800F0F5F90C2000F0A7F9002000F021FC00F0B5FB00F0D5FA2E4D2E4E2C78E4B2002C82
:4013800029D1201C00F002FA211C201C00F0ECF9301C00F083F9211C012000F0E5F9264800F07CF9211C022000F0DEF9234800F075F9211C032000F0D7F9214800F06EF937
:4013C000211C032000F0D0F9FFF7A2FF00F066F900F01EFACFE7012000F06DF90020011C00F0C2F9301C00F059F90021012000F0BBF9144800F052F90021022000F0B4F9E6
:40140000114800F04BF90021032000F0ADF90F4800F044F900230E482B7000F0D9F9012000F049F9A7E7C046ED120000051300006C0100206B1D0000781D00008D1D000099
:40144000991D0000AE1D0000BC1D0000D11D000088130000FEE70000084A08B5136808491818411A802901DC106005E000F002FB0C23036001235B42181C08BDD400002036
:401480008001002070B51048104B0138421C15D01E685C689D680022A118AA4203D0B158A1500432F8E7DA680D1C4C1B944202D0002410C1F9E710330138E7E700F0E0FADC
:4014C000FFF73CFFFEE7C046010000007C1F000008B500239A00032B02D80D49895800E00C490D4801338150302BF3D1FFF7D8FD0A4B00221A600A4B1A68002A00D11A60C5
:401500008023DB051A6801210A431A6008BDC046801000005514000000000020C8000020C0000020044B012219689143C9B202400A431A607047C04600020440044B202232
:40154000196840019143C9B202400A431A60704700030440044B4022196880019143C9B202400A431A6070470003044038B50B4CC022236820259343236023681E2293435A
:401580002360400023682843C0B218432060012000F034F92368AB43236038BD0002044038B50F4C40222368051C134323602368802293432360002000F020F923681E2207
:4015C000934323606B00202522682B43DBB213432360012000F012F92368AB43236038BD00020440F7B5214CFE222368204F934323603A681F4B20491A400A433A60226865
:4016000040218A432260226880210A432260002000F0F4F82368202633432360012000F0EDF8164B00201B68104D01932368B343236000F0E3F8236801203343236000F0EB
:40164000DDF82368019AB3432360D206DFD42B68802293432B602B68FE2293432B603B68044A1340064A13433B60F7BD00020440080204400780FFFF4812000004020440CB
:40168000B06D000010B5041CFFF7ACFF2009FFF787FF0F202040FFF783FF10BD38B5051C00780124002805D0FFF7ECFF285D0134E4B2F7E738BD10B5041CFFF793FF2009CC
:4016C000FFF754FF0F202040FFF750FF10BD08B5282000F07DF80320FFF748FF052000F077F80320FFF742FF0F2000F071F80320FFF73CFF012000F06BF80220FFF736FFBB
:40170000052000F065F80620FFF7D5FF0E20FFF7D2FF2C20FFF7CFFF0820FFF7CCFF0120FFF7C9FF0C20FFF7C6FF0320FFF7C3FF052000F04DF808BD08B50C20FFF7BBFF00
:40174000014B01221A7008BD6D01002010B5054C6378002B03D1FFF7BAFF01236370FFF7EBFF10BD6D01002008B503280DD800F015F902040608803904E0403902E06C39D0
:4017800000E02C39C8B2FFF796FF08BD044B4022196880019143C9B202400A431A60704700010440000000000230800804D0C0460138FDD1C046C046C0467047EFF310803D
:4017C00072B6704780F310887047C046C046C04610B5041C8022074B1202944205D91868FFF7E2FF044BE418F4E758686043FFF7DBFF10BDD80000200080FFFF08B5034B97
:401800001B7A5843FFF7D0FF08BDC046D800002008B5FFF7D3FF044B04211A688A431A6030BFFFF7CFFF08BD10ED00E0034B0822186810401860C008C0B2704710010440D3
:4018400038B5041CFFF7BAFF054B06491D68A2032C1C0C4014431C60FFF7B4FF38BDC04600E400E0FF3FFFFF054B10B502241C60044B58640320FFF7E3FF034B1C6010BD84
:4018800080E100E00000002000E100E0024B802219780A431A70704772000F40034B1B78DA0602D5024B1B88F8E7704763000F40A4100F4010B5124B3F211A78114C8A4326
:4018C00009210A431A70104A01231178194311702278134323700D4A0D4B13800D4A13800D4A13800D4B04221A70FFF767FF2378102213432370FFF765FFFFF7CFFF10BD65
:4019000072000F4093000F4092000F4004100F40204E000084100F4044100F4083000F4010B5054C2378002B03D1FFF7C3FF01232370FFF7ABFF10BD6F010020014B187802
:40194000C0B2704763000F4010B5041CFFF736FF054BA2011968C024A1430C1C14431C60FFF730FF10BDC04600E400E0054B10B501241C60044B18640320FFF7E5FF034BBD
:401980001C6010BD80E100E00000002000E100E0014B01221A60704780E200E002B4714649084900095C49008E4402BC7047C046002941D010B4041C4C40A44601230022FE
:4019C000002900D54942002800D5404288422CD301242407A14204D2814202D209011B01F8E7E400A14204D2814202D249005B00F8E7884201D3401A1A434C08A04202D35A
:401A0000001B5C0822438C08A04202D3001B9C082243CC08A04202D3001BDC082243002803D01B0901D00909E3E7101C6446002C00D5404210BC7047002806D003DB0020C0
:401A4000C043400801E08020000607B4024802A14018029003BDC046190000000029EBD003B5FFF7A7FF0EBC4243891A1847C0467047C046014B18687047C04648010020E5
:401A800070B50E4B0E4D0024ED1AAD101E1CAC4204D0A300F35898470134F8E700F05CFA084B094D0024ED1AAD101E1CAC4204D0A300F35898470134F8E770BD641F000024
:401AC000641F0000641F00006C1F0000031C8218934202D019700133FAE7704738B5104B051C1C68A36B002B15D1182000F088F80C4BA06303800C4B43800C4B83800C4B44
:401B0000C3800C4B0381052343810B2383810122002302614361A36B00221D615A6138BD480100200E330000CDABFFFF341200006DE6FFFFECDEFFFF174B10B51C68A36B86
:401B4000002B15D1182000F05BF8144BA0630380134B4380134B8380134BC380134B0381052343810B2383810122002302614361084B074AA46B2069616900F0B1F80122C2
:401B8000002380185941206161614800400810BD2D7F954C2DF45158480100200E330000CDABFFFF341200006DE6FFFFECDEFFFF13B5094B041C69461868002200F00EF8D7
:401BC000002805DB002C01D0009B2360009801E00120404216BDC0464801002038B5074C0023051C081C111C236000F09BF8431C03D12368002B00D02B6038BD78010020B7
:401C000008B5034B011C186800F004F808BDC0464801002070B50323CD1C9D430835061C0C2D01D20C2501E0002D3FDB8D423DD3204B1C681A1C211C002913D00868431BE9
:401C40000DD40B2B02D90B60CC181EE08C4202D1636813601AE0486860600C1C16E00C1C4968E9E7144C2068002803D1301C00F025F82060301C291C00F020F8431C15D07B
:401C8000C41C03239C4384420AD12560201C0B300722231D9043C31A0BD05A42E25008E0211A301C00F00AF80130EED10C233360002070BD740100207001002038B5074C1A
:401CC0000023051C081C2360FFF7C6FB431C03D12368002B00D02B6038BDC046780100209C460304F0B51B0C17043F0C150C1E1C041C000C7E436B4347434543FB18300CF8
:401D00001818874202D980235B02ED18030CED1863465C434A433604360CA118000480194919F0BD024B5822012040421A6070477801002000000000E41D0000F01D0000BE
:401D4000FC1D0000081E00001A1E00002C1E00003D1E00004D1E00005B1E0000701E00004F68204E6F6F6F6F6F2100426F7773657220536179733A00495220526571756937
:401D800072656420466F7220466C6167004D6172696F20536179733A002020202020202020202020202020202020202020004E2E2E2E6E2E2E2E4E4F212121006E756C6C0A
:401DC0007B6338316539363431306563373638630033336565623433623439633733386231377D004C657427732D6120676F21004F6B657920646F6B657921004865726572
:401E000020776520676F2100497427732D61206D652C204D6172696F2100536F206C6F6E672D6120426F7773657221004E69676874792D6E69676874792E2E2E00416820FA
:401E40007370616768657474692E2E2E00416820726176696F6C692E2E2E00507265737320737461727420746F20706C617921004D616D61206D69612100000001000F402D
:401E80003C320F401C330F4002400F4003410F4002600F40830D2E01300136014010410549FF4AFF4BFF4DA04F045018528058045A045B045F01604062C06440654066C036
:401EC00068C06AC06CC06EC080028E049E04A603B001B404B602BE10C040C105C5D1C720C823C9FFCAFFCBFFCDAFCE0FCF04D018D405D604D804DA04DB04DF01E040E2C05D
:401F0000E440E540E6C0E8C0EAC0ECC0EEC00102020209801020178019421A041C401D8040404580482049014A024E02520259415A04638077808340C009C201C484D0110C
:401F4000D218D60BD8016F10DA8083109F10E2201001110143000000F8B5C046F8BC08BC9E467047B5120000D1140000F8B5C046F8BC08BC9E4670478D120000901F0000B4
:401F8000D000002080000000300000000000000000000000800100200000E02EC05D00001800000000366E01000000000000000000000000000000000000000000000000F8
:401FC0000000000000000000541F0000000000000000000000000000000000000000000000000000000000000000000000000000000000000000000000000000000000006E
:402000000000000000000000E80000200000000000000000000000000000000000000000000000000000000000000000000000000000000000000000000000000000000098
:402040000000000000000000000000000000000000000000000000000000000000000000000000000000000000000000000000000000000000000000000000000000000060
:402080000000000000000000000000000000000000000000000000000000000000000000000000000000000000000000000000000000000000000000000000000000000020
:4020C00000000000000000000000000000000000000000000000000000000000000000000000000000000000000000000000000000000000000000000000000000000000E0
:40210000000000000000000000000000000000000000000000000000000000000000000000000000000000000000000000000000000000000000000000000000000000009F
:407FC000A891100000200000000010000000000000000100000000000000000000000000000000000000000000000000000000000000000000000000000000000000000007
:0200000490303A
:02000000372E99
:0200000490402A
:20000000FFFFFFFF00000000000000000000000000000000000000000000000000000000E4
:0200000490501A
:0C000000000204C81193110004D248C192
:0200000490600A
:0100000001FE
:00000001FF