:400000000010002011000000B5030000B503000008B500F081FA00F0CFF90000F7B572B680220021D200554800F0EDFF802200215348D20000F0E7FF0023191C514C1859E1
:400040001034C2B20192071CFF2297434A00A4180022019ED5B2AE4209D05500665D6519B446BC446D78664635700132F1E7C0B204330918102BE1D1434BC02292041A60F8
:40008000424B99221A60424A00231360414A80211160414AC9031160404A40211160404AC021490311603F4A312113603E4B02221A603E4B802019603D4B3E491A60992317
:4000C0001B040B603C49000608603C493C200B603B4B8021890519603A493B4B19603B4B19780A431A703A4A117881431420014311701A7816210A431A70364A8023116893
:40010000DB020B431360344B141C1878334BC0B21978334BC9B21A78172A05D9314A58789978033B9342F6D12F4B192218602F4B052019602E4B1A6000F05EFD2D4B052061
:400140001A782D4BD2B21A6000F09EFE22682B4B134023602A4A2B4B1A602B4B10221A602A4B20221A602A4B802212061A60294A294B1A60294A2A4B1A60F7BD00300F40BF
:4001800000400F402410000004000140100001400C000140000004400800044000010440080104400803044000040440080404401804044000500F4004500F4010500F403F
:4001C00018500F40100001002001054000700F4001700F4000010B40CCF1FF0FCDF1FF0FC9F1FF0FBDF1FF0F1CFF0B4020FF0B402CFF0B40E5F1FF0F28FF0B40FFFFFBFF57
:400200000600008004010B40080202402002024008010B401000008000000240AF0400804000024010B5064C2378002B07D1054B002B02D0044800E000BF0123237010BDEC
:40024000F0000020000000002010000008B5084B002B03D00748084900E000BF07480368002B03D0064B002B00D0984708BDC0460000000020100000F4000020D00000200F
:400280000000000010B562B600F0ACFC00280ED16524012000F0E2FD00F0A4FC002806D1013CE4B2002CF4D1034B40221A6000F08BFC00F0DBFAFEE7C000002008B500F01E
:4002C00015FB00F04DFB00F0B5FB08BD70B5054B0D1C161C0024C9B21C8000F09FFB3580201C70BD0C010020F0B50A275F4387B003900591151C00262D4CBE4219DA00F0E6
:400300001DFB80B220802388002B0CD00220268800F0A4FD00F012FB80B220802388B6B2B342F3D807E00120013600F097FDB6B2E2E7052600E0002600272F802388002B4D
:4003400033D023889BB2019301992B885A18059992B22A808A4221D2019ABB189BB2029302998F4209D07B1C9BB20493039BDF1900F0CAFA3870049FF2E772B62388019AF8
:400380009B1A9BB2238062B6039A5318013B1B78172B08D0052000F061FD04E02B8000F0DFFA052601E0029FC8E7301C07B0F0BD0C010020FEE7000070B51048104B013895
:4003C000421C15D01E685C689D680022A118AA4203D0B158A1500432F8E7DA680D1C4C1B944202D0002410C1F9E710330138E7E700F0DAFDFFF746FFFEE7C046010000003B
:400400007410000008B500239A00032B02D80D49895800E00C490D4801338150302BF3D1FFF7FCFD0A4B00221A600A4B1A68002A00D11A608023DB051A6801210A431A60B7
:4004400008BDC04600000000B503000000000020C8000020C0000020004770B5051C0E1C141C002802D0002000F0EAFC0020002C05D0013CAA19125D8318D8B2F7E770BD7A
:40048000013808B509282AD8C901494200F078FD0507090B0D0F1614181B154B08E0154B12E0154B0DE0154B0EE0154B00E0154BC9180878C0B21AE0134B02E0134B00E0A0
:4004C000134BC9180FE0134BC9180B7848788A780002120410431843CB781B0606E0002000F0AEFC00210B7848780002184308BDC07F0000C17F0000C57F0000C97F0000EF
:40050000D07F0000D17F0000D67F0000D27F0000D47F0000D87F00000C4B10B51A6810231A400B4B00D11A601A68802A0DD100240220211C1C60FFF7A3FFA04205D0211C6B
:400540000220FFF79DFFFFF787FF10BD00030B40C0000020F8B5051C291C0320FFF790FF291C041C0420FFF78BFF671CFF013F18291C0320FFF784FF00240130C001261C79
:40058000B84209D203785A1ED2B2FD2A00D801261C19E4B20130F3E70120291CFFF770FF6442E4B20623844203D17242564176423340181CF8BD0000F0B5A44CA544FFF756
:4005C0007DFE62B600260096002506AC03AE9621201C4900321CFF23FFF786FE0028F4D13188062900D88AE022780423012A54D1E778A2783F021743E2195679B44616796F
:400600000196FE1D8E427FD89279172A45D1FB189BB2002B08D09CA98D4ECA1892191278013B801880B2F3E7019B614640420A0280B21A43082382422FD167E0342B00D040
:400640009DE0009901295AD1032F58D151A80021802200F0D8FC802551A948192639ED19FA1EFF39ADB200F0C5FC832D49D1A079637900021843774B36021B6880191A68BB
:4006800080B2D3099BB2560601D001339BB298427BD20127009700250A2300210120207068466A46437681766B4600200E32D8760B1D11809BB29CAFFE18654F013BF61954
:4006C00036789BB2801980B2002BF4D19CAE624F7318DE194042614F80B23070DE19000A30705F4807311B181720187089B2201C9623FFF7EBFD68E7009E012E1BD0042315
:40070000CBE70126009600250323C6E763782679181C31380A2801D90523BEE700F03AFCECFF1400FCFF8EFF3F00FCFF430054008EFF63008B00002FE1D1381CFFF70AFF35
:4007400043424341237173E000980128D7D1012FD5D1002ED3D13F4B1B681B68DA0BD2B2DB09DBB2002A01D080235B0023711B0A6371FF23A3710023E37104218EE7009BA6
:40078000012BBCD1022FBAD966E751A900F048FA002800D07DE701260096051C12E0009F012FACD110E7009E012EA8D19623EE195B009E42A8D851A948193A1C07A900F0C2
:4007C00019FCB5B2002368E7002F98D104AB254A191C41CA41C107AA41CB41C2012600963B1C08215AE70098012888D1032F86D1A37962791B021A43310251180192C901C8
:4008000000208022FFF729FE071C002E0ED10199FF290BD1311C0520FFF732FE311C3F1A0620FFF72DFEFFB23F1AFFB27F4227710023012132E70020FFF78CFE002802D179
:40084000094B80221A6000F0FDFA58E78CFDFFFFA7FDFFFFD4000020ACFDFFFFADFDFFFFAEFDFFFF48100000C000002038B50020FFF770FE0025A84200D00625124C00209C
:400880002368C0211A68C03AFFF7E7FD62681378181AC0B2984203D123681B68002B02D1002000F0CDFA094B19681A1C402901D0002D03D000231360FFF77EFE80221A6083
:4008C00000F0C0FA38BDC046D4000020C000002008B5054B8022196812060A431A600A2000F09AFA08BDC0460000064010B5054C2378002B03D100F0BFF801232370FFF7AD
:40090000E7FF10BD10010020094B0A4A1968136899420BD011684B1C4039481E814149420B400549C85C1360C0B200E000207047B0010020280100206C010020064B074ACB
:400940001B6811688B4202D31068181A02E012684133981A7047C046B0010020280100200C4A0D4B002130B5106811601D68802464022C431C601D68084C2C401C60084BAB
:400980001C68084B1C60084B19700849084B1960106030BDC80F064004030640FFFFFEFF28010020B0010020AD010020ED0F0000C00F0640124910B50A68531C3F3A541E44
:4009C000A241524213400F4A1468A342FBD00C681268944208D10C4A14680F222240082A02D00A4B18600AE0094C02222260094CC0B2E0540B60084B19680A431A6010BD22
:400A000024010020200100200802064040020640800F06402C010020880F064038B5041C4518AC4204D02078FFF7C4FF0134F8E738BD00000B4A0023116810B513600A4B55
:400A400080201C684002204318601C68074820401860074B1868074B186002239943116010BDC046880F064004020640FFFFFEFF20010020240100201D4A1E4B10B51A60F0
:400A80001D4B00241C601D4B01221A601C491D4B07200B601C4908601C490A200C601C490A601C4A13601C4B1C6000F0BFF90A20032100F091F919490A2000F081F9184BAE
:400AC00004221C60174B1C60174B1C60174B1C60174B1A60174B1C60174B1C60174B1C60174B1C70174B1C60174B1C6010BDC0460B00000200000640400006404800064060
:400B0000000306400700008004030640100306404400064000020640040206409D0E0000880E0640C80E0640480F0640080F0640C80F0640880F0640B00100202801002070
:400B4000AD01002024010020200100200E4B8422D2041A601968802252020A431A600B490B4A0A60196819600A4BC32189001960094B00211960094B1C211960084B1A6087
:400B8000084A094B1A60704700010540080105401027000024010540380105402801054014010540881300000C01054008B500F02DF8044B01211A680A431A6000F02AF858
:400BC00008BDC0460000054010B5054C2378002B03D1FFF7BBFF01232370FFF7E7FF10BD18010020024B18680006C00F7047C04604000440000000000230800804D0C046B1
:400C00000138FDD1C046C046C0467047EFF3108072B6704780F310887047C046C046C046F0B50024CBB0069404900794FF2800D9A4E0A14200D1A1E008AD8022281C00F06E
:400C4000D9F9231C211C221C029498002858002802D01218014302930133202BF5D1002A05D1002900D08EE00191039102E0002001900390484F7F2328AE291C80222AA87D
:400C80002897464C736000F0B5F9454A454B266013602168090F0A2903D022680F23134000E000230693069F002F69D1FFF7AEFF3D4A3E4B116807971960069B0590002B56
:400CC00014D13B4A04982892289A01040A43289228AA22603249374A0A602268120F0A2A03D02E4B1A680F2313400693069F002F38D1019A002A35D0391C8022281C00F00F
:400D000082F90298039A08A983005A50224B2AA8289380227F23736000F06CF9214820492660086023681B0F0A2B03D01B4B1F680F231F400697069B002B13D11E4A049871
:400D40002892289A01040A43289215491B4A26600A602268120F0A2A03D0104B1A680F2313400693079B002B04D1104A0E481268026007930598FFF74DFF01E00423069343
:400D800006984BB0F0BD02998B00E85801210390EA5001916EE7C046B6D7000008000040040000400400008008010B401C010020B6D8000005000080B6D900000600008055
:400DC0001F2800D901BE034A80008318186819607047C0464000002038B5041C0D1E032D00D901BE1F2C00D901BEFFF70FFFA308084A9B009B18032214409440196806345C
:400E0000A2409143A5400C1C2C431C60FFF702FF38BDC04600E400E01F23184001238340181C014B1860704700E100E01F23184001238340181C014B1860704780E100E0EC
:400E400001BE7047034B04491A6892B20A431A607047C0460CED00E00400FA0510B5041C8022074B1202944205D91868FFF7C4FE044BE418F4E758686043FFF7BDFE10BD5B
:400E8000DC0000200080FFFF08B5034B1B7A5843FFF7B2FE08BDC046DC000020274B10B51B68002B00D09847254B1B685A071DD5244B1B681A0716D0234B244A1868116868
:400EC0004B1C40394C1EA14149420B40204909688B4203D11F4B20221A70E9E71E49C0B2C8541360E4E71D4B04221A601C4B1B689A0721D51B4B1A680F231340082B18D02B
:400F0000194B1A4A1968136899420DD011684B1C3F39481E814149420B401549C85C1549C0B208601360E5E7134B02211A688A431A60124B02221A6010BDC0461401002099
:400F4000CC0F06400803064040030640B001002028010020AD0100206C010020C00F06408C0F06400802064024010020200100202C01002040020640880F0640800F0640AE
:400F800002B4714649084900095C49008E4402BC7047C04603B47146490840004900095E49008E4403BC704770B50E4B0E4D0024ED1AAD101E1CAC4204D0A300F358984765
:400FC0000134F8E700F044F8084B094D0024ED1AAD101E1CAC4204D0A300F35898470134F8E770BD5C1000005C1000005C1000006410000010B50023934203D0CC5CC4548E
:401000000133F9E710BD031C8218934202D019700133FAE770470000A8100000EE0000000000000001330F4003410F4004430F4002600F40E61062048E04D84018808C40AD
:40104000C608E608020111019311C804111E0101F8B5C046F8BC08BC9E4670474D02000005040000F8B5C046F8BC08BC9E4670472502000088100000D0000020200000004B
:40108000C80000000000000000000000181000001C1000000000E02EC05D00001800000000366E01000000000000000000000000000000000000000000000000000000002C
:4010C00000000000000000000000000000000000000000000000000000000000000000000000000000000000000000000000000000000000000000000000000000000000F0
:401100000010002011110000AD320000AD32000080B500AF024B83F3088802F0F3F8C0460010002080B584B000AF021CFB1D1A70204A3B1C0B3312781A701F4A3B1C0A336D
:4011400012781A700423013BFB6018E01B4B1868391C0B31FA68131C5B009B18C3185B780B70164B1868391C0A31FA68131C5B009B18C3189B780B70FB68013BFB60FB6890
:40118000002B0ADB0D4B1968FA68131C5B009B185B5CFA1D12789A42D8D9094B3A1C0B3212781A60074B3A1C0A3212781A60BD4604B080BDCCF1FF0FCDF1FF0FD80000206C
:4011C0001CFF0B4020FF0B4080B500AF164B164A12688021C9020A431A601820FFF7A2FF124B19221A60052002F082FE104B114A1278D2B21A60052002F0B2FE0A4B0A4AA7
:4012000011680D4A0A401A600C4B0D4A1A600D4B10221A600C4B802212061A600B4B0C4A1A60BD4680BDC04600010B402CFF0B4028FF0B40E5F1FF0FFFFFFBFF04010B4097
:40124000060000803002024008010B40000002406F17008080B582B000AF72B65B4B01221A70FB1D00221A7023E0FB1D1A78131C5B009B185B00564A9B183B603B681A781B
:40128000597809020A43997809040A43DB781B0613431A1C3B6819795B791B020B439BB2101C191C02F0B4F8FB1D1A78FB1D01321A70FB1D1B78012BD7D9464A464B101C87
:4012C000191C02F0B5F8454B802252001A80444B01221A70434B30221A60434BC02292041A60424BEE2212021A60414B82221A60404B414A1A60414BC02212021A60404BFA
:4013000004221A603F4B404A1A60404B20221A603F4B40221A603F4BD82252031A603E4B10221A603D4BB62292011A603C4B802292001A603B4B992212041A603A4B8022B0
:4013400012061A60394B8022D2021A60384B992212041A60374B802292031A60364B992212041A60354B802252051A60344B992212041A60334B802292041A60324B04220A
:401380001A60324B04221A60314B314A1278D2B202210A43D2B21A702E4B2E4A1278D2B23C218A43D2B214210A43D2B21A70284B274A1278D2B216210A43D2B21A70FFF75C
:4013C00003FF02F075F8BD4602B080BD1C700F4068490000744900009C49000000600F4002600F4000000140080001400C0001400000044008000440B60D58000C0004403A
:401400000001044008010440800018000C010440000204400802044000030440080304400C03044000500F4004500F4008500F4010500F4014500F4020500F4028500F40E3
:4014400030500F4034500F402000004000800F4000700F4001700F4010B5064C2378002B07D1054B002B02D0044800E000BF0123237010BD50010020000000008443000073
:4014800008B5084B002B03D00748084900E000BF07480368002B03D0064B002B00D0984708BDC046000000008443000054010020D00000200000000080B594B000AF3B1C86
:4014C0003C3300221A6000225A6000229A600022DA6000221A613B1C3C3301221A703B1C3C3301225A703B1C3C3301229A703B1C3C330122DA703B1C283300221A60002234
:401500005A6000229A600022DA6000221A613B1C283302221A703B1C283302225A703B1C283302229A703B1C28330222DA703B1C143300221A6000225A6000229A60002288
:40154000DA6000221A613B1C143301221A703B1C143301225A703B1C143301229A703B1C14330122DA703B1C00221A6000225A6000229A600022DA6000221A613B1C022289
:401580001A703B1C02225A703B1C02229A703B1C0222DA7062B601F065FE012000F00CFD3B1C3C330120191C01F044FE3B1C28330220191C01F03EFE3B1C14330320191C11
:4015C00001F038FE3B1C0420191C01F033FE184B04221A7002F04AFB154B1B78DBB2022B11D002DC012B05D0F6E7032B13D0042B19D0F1E7012000F0DFFC0E4B0320191CC0
:4016000001F0B0F812E0032000F0D6FC094B181C00F0FAFA0AE0052000F0CEFC054B181C01F0D0FA02E002F0AFFCC046D4E7C0466C0100208843000080B500AF022001F031
:40164000BBF8031C002B00D10DE0012000F0C0FBFA235B00181C02F05FFC012000F056FCFA2002F059FCBD4680BDC04680B500AF022001F0A1F8031C002B00D10DE0022026
:4016800000F0A6FBFA235B00181C02F045FC022000F03CFCFA2002F03FFCBD4680BDC04690B583B000AFFC1C012000F043FB031C23700320072100F0CDFA00237B6015E0AE
:4016C000022001F079F8031C002B00D117E0032000F07EFBFA2002F01FFC032000F016FCFA2002F019FC7B6801337B607B68042BE6D9FB1C1B780320191C00F0ABFABD46FE
:4017000003B090BD80B582B000AF021CFB1D1A70022001F051F8031C002B00D170E2FB1D1B780A3B702B00D96AE29A00EF4BD3181B689F46FFF780FFFFF798FFFFF77CFFC0
:40174000FFF77AFFFFF778FFFFF776FFFFF774FFFFF78CFF54E2FFF76FFFFFF787FFFFF76BFFFFF769FFFFF767FFFFF765FFFFF77DFFFFF761FF43E2FFF75EFFFFF776FF03
:40178000FFF75AFFFFF758FFFFF756FFFFF754FFFFF76CFFFFF76AFF32E2FFF74DFFFFF765FFFFF749FFFFF747FFFFF745FFFFF75DFFFFF741FFFFF73FFF21E2FFF73CFFE5
:4017C000FFF754FFFFF738FFFFF736FFFFF734FFFFF74CFFFFF730FFFFF748FF10E2FFF72BFFFFF743FFFFF727FFFFF725FFFFF723FFFFF73BFFFFF739FFFFF71DFFFFE194
:40180000FFF71AFFFFF732FFFFF716FFFFF714FFFFF712FFFFF72AFFFFF728FFFFF726FFEEE1FFF709FFFFF721FFFFF705FFFFF703FFFFF71BFFFFF7FFFEFFF7FDFEFFF741
:40184000FBFEDDE1FFF7F8FEFFF710FFFFF7F4FEFFF7F2FEFFF70AFFFFF7EEFEFFF7ECFEFFF704FFCCE1FFF7E7FEFFF7FFFEFFF7E3FEFFF7E1FEFFF7F9FEFFF7DDFEFFF75D
:40188000F5FEFFF7D9FEBBE1FFF7D6FEFFF7EEFEFFF7D2FEFFF7D0FEFFF7E8FEFFF7CCFEFFF7E4FEFFF7E2FEAAE1FFF7C5FEFFF7DDFEFFF7C1FEFFF7BFFEFFF7D7FEFFF70E
:4018C000D5FEFFF7B9FEFFF7B7FE99E1FFF7B4FEFFF7CCFEFFF7B0FEFFF7AEFEFFF7C6FEFFF7C4FEFFF7A8FEFFF7C0FE88E1FFF7A3FEFFF7BBFEFFF79FFEFFF79DFEFFF70A
:40190000B5FEFFF7B3FEFFF7B1FEFFF795FE77E1FFF792FEFFF7AAFEFFF78EFEFFF78CFEFFF7A4FEFFF7A2FEFFF7A0FEFFF79EFE66E1FFF781FEFFF799FEFFF77DFEFFF79D
:4019400095FEFFF779FEFFF777FEFFF775FEFFF773FE55E1FFF770FEFFF788FEFFF76CFEFFF784FEFFF768FEFFF766FEFFF764FEFFF77CFE44E1FFF75FFEFFF777FEFFF7E7
:401980005BFEFFF773FEFFF757FEFFF755FEFFF76DFEFFF751FE33E1FFF74EFEFFF766FEFFF74AFEFFF762FEFFF746FEFFF744FEFFF75CFEFFF75AFE22E1FFF73DFEFFF7AF
:4019C00055FEFFF739FEFFF751FEFFF735FEFFF74DFEFFF731FEFFF72FFE11E1FFF72CFEFFF744FEFFF728FEFFF740FEFFF724FEFFF73CFEFFF720FEFFF738FE00E1FFF777
:401A00001BFEFFF733FEFFF717FEFFF72FFEFFF713FEFFF72BFEFFF729FEFFF70DFEEFE0FFF70AFEFFF722FEFFF706FEFFF71EFEFFF702FEFFF71AFEFFF718FEFFF716FEEB
:401A4000DEE0FFF7F9FDFFF711FEFFF7F5FDFFF70DFEFFF70BFEFFF7EFFDFFF7EDFDFFF7EBFDCDE0FFF7E8FDFFF700FEFFF7E4FDFFF7FCFDFFF7FAFDFFF7DEFDFFF7DCFD60
:401A8000FFF7F4FDBCE0FFF7D7FDFFF7EFFDFFF7D3FDFFF7EBFDFFF7E9FDFFF7CDFDFFF7E5FDFFF7C9FDABE0FFF7C6FDFFF7C4FDFFF7DCFDFFF7DAFDFFF7BEFDFFF7BCFD2C
:401AC000FFF7BAFDFFF7B8FD9AE0FFF7B5FDFFF7B3FDFFF7CBFDFFF7C9FDFFF7ADFDFFF7ABFDFFF7A9FDFFF7C1FD89E090430000FFF7A2FDFFF7A0FDFFF7B8FDFFF7B6FD06
:401B0000FFF79AFDFFF798FDFFF7B0FDFFF794FD76E0FFF791FDFFF78FFDFFF7A7FDFFF7A5FDFFF789FDFFF787FDFFF79FFDFFF79DFD65E0FFF780FDFFF77EFDFFF796FD0B
:401B4000FFF794FDFFF778FDFFF790FDFFF774FDFFF772FD54E0FFF76FFDFFF76DFDFFF785FDFFF783FDFFF767FDFFF77FFDFFF763FDFFF77BFD43E0FFF75EFDFFF75CFDED
:401B8000FFF774FDFFF772FDFFF756FDFFF76EFDFFF76CFDFFF750FD32E0FFF74DFDFFF74BFDFFF763FDFFF761FDFFF745FDFFF75DFDFFF75BFDFFF759FD21E0FFF73CFD81
:401BC000FFF73AFDFFF752FDFFF750FDFFF74EFDFFF732FDFFF730FDFFF72EFD10E0FFF72BFDFFF729FDFFF741FDFFF73FFDFFF73DFDFFF721FDFFF71FFDFFF737FDC04670
:401C0000BD4602B080BDC04680B584B000AF7860FFF746FD0023FB6010E0022000F0CCFD031C002B00D111E07A68FB68D3181B78181CFFF767FDFB680133FB607B68181CD4
:401C400002F0D6FA021CFB689A42E6D8BD4604B080BDC04680B582B000AF0A1CFB1D011C1970BB1D1A70FB1D1B78022B08D0032B0BD0012B16D10D4BBA1D12785A7011E0F1
:401C80000B4BBA1D12785A700CE0BB1D1B780120191CFFF7DFFFBB1D1B780220191CFFF7D9FFC046BD4602B080BDC046840100208001002080B582B000AF0A1CFB1D011CDD
:401CC0001970BB1D1A70FB1D1B78052B25D89A00134BD3181B689F46124BBA1D12781A701BE0114BBA1D12781A7016E0BB1D1B780120191CFFF7DEFFBB1D1B780220191C00
:401D0000FFF7D8FF09E0094BBA1D12781A7004E0074BBA1D12781A70C046BD4602B080BD5445000084010020800100207C0100207801002080B582B000AF021CFB1D1A70AA
:401D4000FB1D1B78012B02D0022B04D007E0064B5B78DBB204E0054B5B78DBB200E0FF23181CBD4602B080BD840100208001002080B582B000AF021CFB1D1A70FB1D1B789E
:401D8000022B0CD002DC012B05D014E0042B0AD0052B0CD00FE00A4B1B78DBB20CE0094B1B78DBB208E0084B1B78DBB204E0074B1B78DBB200E0FF23181CBD4602B080BD95
:401DC00084010020800100207C0100207801002080B582B000AF021CFB1D1A70FB1D1B78052B00D989E09A00454BD3181B689F460120FFF79FFF031C072B2BD89A00414BC8
:401E0000D3181B689F4601F015FE23E0012001F0E3FE1FE001F00EFE012001F0DDFE19E0012001F0E9FC15E001F004FE012001F0E3FC0FE0012001F0CFFE012001F0DCFCEB
:401E400008E001F0F7FD012001F0C6FE012001F0D3FCC04601200121FFF72CFF4DE00220FFF768FF031C072B2BD89A00264BD3181B689F4601F00CFD23E0012001F0D2FE37
:401E80001FE001F005FD012001F0CCFE19E0012001F0D8FC15E001F0FBFC012001F0D2FC0FE0012001F0BEFE012001F0CBFC08E001F0EEFC012001F0B5FE012001F0C2FCCA
:401EC000C04602200121FFF7F5FE16E00120FFF77FFF0220FFF77CFF0FE0012001F012FB04200121FFF7E6FE07E0012001F0E4FA05200121FFF7DEFEC046BD4602B080BD7B
:401F00006C45000084450000A445000080B582B000AF021CFB1D1A70FB1D1B78052B35D89A001C4BD3181B689F4601F0E5FD002001F052FE002001F05FFC01200021FFF754
:401F4000B9FE23E001F006FD002001F06BFE002001F078FC02200021FFF7ACFE16E00120FFF7D4FF0220FFF7D1FF0FE0002001F0C9FA04200021FFF79DFE07E0002001F078
:401F80009BFA05200021FFF795FEC046BD4602B080BDC046C445000080B500AF0120FFF7B5FF0220FFF7B2FF0420FFF7AFFF0520FFF7ACFFBD4680BD80B582B000AF021C3C
:401FC000FB1D1A70FFF7E8FFFB1D1B780120191CFFF740FEFB1D1B780220191CFFF73AFEBD4602B080BDC04680B582B000AF021CFB1D1A70012000F0DFFB031C002B00D129
:4020000011E0FB1D1B78181CFFF7E2FEFA235B00181C01F081FFFB1D1B78181CFFF776FFFA2001F079FFBD4602B080BD80B582B000AF021CFB1D1A70012000F0BDFB031C60
:40204000002B00D110E0FB1D1B78181CFFF7C0FE074B181C01F060FFFB1D1B78181CFFF755FFFA2001F058FFBD4602B080BDC046DC05000080B500AF012000F09DFB031CFB
:40208000002B00D104E0FA239B00181C01F044FFBD4680BD80B582B000AF0A1CFB1D011C1970BB1D1A70012000F086FB031C002B00D154E3BB1D1B780A3B702B00D94EE34B
:4020C0009A00EA4BD3181B689F46FB1D1B78181CFFF78AFFFB1D1B78181CFFF7A7FFFFF7C9FF3CE3FB1D1B78181CFFF79FFFFB1D1B78181CFFF778FFFB1D1B78181CFFF774
:4021000073FFFB1D1B78181CFFF76EFFFFF7B2FF25E3FB1D1B78181CFFF788FFFB1D1B78181CFFF761FFFB1D1B78181CFFF77EFFFB1D1B78181CFFF757FFFFF79BFF0EE3AD
:40214000FB1D1B78181CFFF771FFFB1D1B78181CFFF74AFFFB1D1B78181CFFF745FFFFF789FFFCE2FB1D1B78181CFFF73DFFFFF781FFF4E2FB1D1B78181CFFF735FFFB1D09
:402180001B78181CFFF730FFFB1D1B78181CFFF74DFFFB1D1B78181CFFF726FFFFF76AFFDDE2FB1D1B78181CFFF740FFFB1D1B78181CFFF73BFFFB1D1B78181CFFF714FFEF
:4021C000FFF758FFCBE2FB1D1B78181CFFF70CFFFB1D1B78181CFFF707FFFB1D1B78181CFFF702FFFB1D1B78181CFFF7FDFEFFF741FFB4E2FB1D1B78181CFFF7F5FEFB1DD8
:402200001B78181CFFF7F0FEFFF734FFA7E2FB1D1B78181CFFF7E8FEFB1D1B78181CFFF705FFFB1D1B78181CFFF700FFFB1D1B78181CFFF7FBFEFFF71DFF90E2FB1D1B78DC
:40224000181CFFF7F3FEFB1D1B78181CFFF7CCFEFB1D1B78181CFFF7E9FEFFF70BFF7EE2FB1D1B78181CFFF7BFFEFB1D1B78181CFFF7DCFEFB1D1B78181CFFF7B5FEFB1DA7
:402280001B78181CFFF7B0FEFFF7F4FE67E2FB1D1B78181CFFF7CAFEFB1D1B78181CFFF7C5FEFFF7E7FE5AE2FB1D1B78181CFFF7BDFEFB1D1B78181CFFF796FEFFF7DAFE6F
:4022C0004DE2FB1D1B78181CFFF7B0FEFB1D1B78181CFFF7ABFEFB1D1B78181CFFF7A6FEFFF7C8FE3BE2FB1D1B78181CFFF77CFEFB1D1B78181CFFF799FEFB1D1B78181CC2
:40230000FFF794FEFB1D1B78181CFFF76DFEFFF7B1FE24E2FB1D1B78181CFFF787FEFB1D1B78181CFFF782FEFB1D1B78181CFFF75BFEFB1D1B78181CFFF778FEFFF79AFE74
:402340000DE2FB1D1B78181CFFF74EFEFB1D1B78181CFFF76BFEFB1D1B78181CFFF744FEFFF788FEFBE1FB1D1B78181CFFF73CFEFB1D1B78181CFFF737FEFB1D1B78181CA8
:40238000FFF732FEFFF776FEE9E1FB1D1B78181CFFF74CFEFFF76EFEE1E1FB1D1B78181CFFF722FEFB1D1B78181CFFF71DFEFB1D1B78181CFFF73AFEFFF75CFECFE1FB1D76
:4023C0001B78181CFFF710FEFB1D1B78181CFFF70BFEFB1D1B78181CFFF706FEFB1D1B78181CFFF723FEFFF745FEB8E1FB1D1B78181CFFF7F9FDFB1D1B78181CFFF716FEDF
:40240000FB1D1B78181CFFF711FEFFF733FEA6E1FB1D1B78181CFFF709FEFB1D1B78181CFFF7E2FDFB1D1B78181CFFF7DDFDFB1D1B78181CFFF7FAFDFFF71CFE8FE1FB1D67
:402440001B78181CFFF7F2FDFB1D1B78181CFFF7CBFDFB1D1B78181CFFF7E8FDFB1D1B78181CFFF7E3FDFFF705FE78E1DC450000FB1D1B78181CFFF7D9FDFB1D1B78181CA7
:40248000FFF7D4FDFB1D1B78181CFFF7ADFDFB1D1B78181CFFF7A8FDFFF7ECFD5FE1FB1D1B78181CFFF7C2FDFB1D1B78181CFFF7BDFDFB1D1B78181CFFF7B8FDFB1D1B78E5
:4024C000181CFFF7B3FDFB1D1B78181CFFF7AEFDFFF7D0FD43E1FB1D1B78181CFFF784FDFB1D1B78181CFFF7A1FDFB1D1B78181CFFF79CFDFB1D1B78181CFFF797FDFB1DE3
:402500001B78181CFFF792FDFFF7B4FD27E1FB1D1B78181CFFF768FDFB1D1B78181CFFF763FDFB1D1B78181CFFF780FDFB1D1B78181CFFF77BFDFB1D1B78181CFFF776FD4A
:40254000FFF798FD0BE1FB1D1B78181CFFF74CFDFB1D1B78181CFFF747FDFB1D1B78181CFFF742FDFB1D1B78181CFFF75FFDFB1D1B78181CFFF75AFDFFF77CFDEFE0FB1DE6
:402580001B78181CFFF730FDFB1D1B78181CFFF72BFDFB1D1B78181CFFF726FDFB1D1B78181CFFF721FDFB1D1B78181CFFF73EFDFFF760FDD3E0FB1D1B78181CFFF714FD4D
:4025C000FB1D1B78181CFFF70FFDFB1D1B78181CFFF70AFDFB1D1B78181CFFF705FDFB1D1B78181CFFF700FDFFF744FDB7E0FB1D1B78181CFFF71AFDFB1D1B78181CFFF7E6
:40260000F3FCFB1D1B78181CFFF7EEFCFB1D1B78181CFFF7E9FCFB1D1B78181CFFF7E4FCFFF728FD9BE0FB1D1B78181CFFF7FEFCFB1D1B78181CFFF7F9FCFB1D1B78181C6F
:40264000FFF7D2FCFB1D1B78181CFFF7CDFCFB1D1B78181CFFF7C8FCFFF70CFD7FE0FB1D1B78181CFFF7E2FCFB1D1B78181CFFF7DDFCFB1D1B78181CFFF7D8FCFB1D1B784C
:40268000181CFFF7B1FCFB1D1B78181CFFF7ACFCFFF7F0FC63E0FB1D1B78181CFFF7C6FCFB1D1B78181CFFF7C1FCFB1D1B78181CFFF7BCFCFB1D1B78181CFFF7B7FCFB1D4B
:4026C0001B78181CFFF790FCFFF7D4FC47E0FB1D1B78181CFFF788FCFB1D1B78181CFFF7A5FCFB1D1B78181CFFF77EFCFB1D1B78181CFFF79BFCFB1D1B78181CFFF774FCD5
:40270000FB1D1B78181CFFF791FCFFF7B3FC26E0FB1D1B78181CFFF789FCFB1D1B78181CFFF784FCFB1D1B78181CFFF75DFCFB1D1B78181CFFF758FCFB1D1B78181CFFF7B1
:4027400075FCFB1D1B78181CFFF770FCFFF792FC05E0FA239B00181C01F0DEFBC046BD4602B080BD80B584B000AF021C3960FB1D1A700023FB6013E0012000F01DF8031C69
:40278000002B00D114E03A68FB68D3181B78FA1D1278101C191CFFF77DFCFB680133FB603B68181C01F024FD021CFB689A42E3D8BD4604B080BDC04680B582B000AF021C14
:4027C000FB1D1A70064B1B78DBB2FA1D12789A4201D1012300E00023181CBD4602B080BD6C01002080B500AF0320FFF7E5FF031C002B00D10DE00120FFF7EAFAFA235B0041
:40280000181C01F089FB0120FFF780FBFA2001F083FBBD4680BDC04680B500AF0320FFF7CBFF031C002B00D10DE00220FFF7D0FAFA235B00181C01F06FFB0220FFF766FB5D
:40284000FA2001F069FBBD4680BDC04690B583B000AFFC1C0120FFF76DFA031C237003200721FFF7F7F900237B6015E00320FFF7A3FF031C002B00D117E00320FFF7A8FA88
:40288000FA2001F049FB0320FFF740FBFA2001F043FB7B6801337B607B68042BE6D9FB1C1B780320191CFFF7D5F9BD4603B090BD80B584B000AF021CFB1D1A700320FFF7AF
:4028C0007BFF031C002B00D176E1FB1D1B780A3B702B00D970E19A00B94BD3181B689F460023FB6004E0FFF77DFFFB680133FB60FB68002BF7DDFFF78FFF5DE10023FB60DE
:4029000004E0FFF76FFFFB680133FB60FB68012BF7DDFFF781FF4FE10023FB6004E0FFF761FFFB680133FB60FB68022BF7DDFFF773FF41E10023FB6004E0FFF753FFFB68AF
:402940000133FB60FB68032BF7DDFFF765FF33E10023FB6004E0FFF745FFFB680133FB60FB68042BF7DDFFF757FF25E10023FB6004E0FFF737FFFB680133FB60FB68052B9C
:40298000F7DDFFF749FF17E10023FB6004E0FFF729FFFB680133FB60FB68062BF7DDFFF73BFF09E10023FB6004E0FFF71BFFFB680133FB60FB68072BF7DDFFF72DFFFBE04F
:4029C0000023FB6004E0FFF70DFFFB680133FB60FB68082BF7DDFFF71FFFEDE00023FB6004E0FFF7FFFEFB680133FB60FB68092BF7DDFFF711FFDFE00023FB6004E0FFF767
:402A0000F1FEFB680133FB60FB680A2BF7DDFFF703FFD1E00023FB6004E0FFF7E3FEFB680133FB60FB680B2BF7DDFFF7F5FEC3E00023FB6004E0FFF7D5FEFB680133FB605F
:402A4000FB680C2BF7DDFFF7E7FEB5E00023FB6004E0FFF7C7FEFB680133FB60FB680D2BF7DDFFF7D9FEA7E00023FB6004E0FFF7B9FEFB680133FB60FB680E2BF7DDFFF73F
:402A8000CBFE99E00023FB6004E0FFF7ABFEFB680133FB60FB680F2BF7DDFFF7BDFE8BE00023FB6004E0FFF79DFEFB680133FB60FB68102BF7DDFFF7AFFE7DE00023FB607F
:402AC00004E0FFF78FFEFB680133FB60FB68112BF7DDFFF7A1FE6FE00023FB6004E0FFF781FEFB680133FB60FB68122BF7DDFFF793FE61E00023FB6004E0FFF773FEFB68F5
:402B00000133FB60FB68132BF7DDFFF785FE53E00023FB6004E0FFF765FEFB680133FB60FB68142BF7DDFFF777FE45E00023FB6004E0FFF757FEFB680133FB60FB68152BF0
:402B4000F7DDFFF769FE37E00023FB6004E0FFF749FEFB680133FB60FB68162BF7DDFFF75BFE29E00023FB6004E0FFF73BFEFB680133FB60FB68172BF7DDFFF74DFE1BE074
:402B80000023FB6004E0FFF72DFEFB680133FB60FB68182BF7DDFFF73FFE0DE00023FB6004E0FFF71FFEFB680133FB60FB68192BF7DDFFF731FEC046BD4604B080BDC046FF
:402BC000A047000080B584B000AF7860FFF73EFE0023FB6010E00320FFF7EEFD031C002B00D111E07A68FB68D3181B78181CFFF75FFEFB680133FB607B68181C01F0F8FA18
:402C0000021CFB689A42E6D8BD4604B080BDC04690B583B000AF6F4B1B78DBB2022B3AD002DC012B06D0CDE0032B65D0042B00D195E0C7E0022000F06FFA031C3B60FC1DED
:402C4000022000F0C7FA031C2370FB1D1B783A68D3181B78012B05D1FB1DFA1D127801321A7002E0FB1D00221A70FB1D1C783B68181C01F0BDFA031C9C4205D1554B022224
:402C80001A70FB1D00221A70FB1D1B780220191C00F06AFA96E0032000F03EFA031C3B60FC1D032000F096FA031C2370FB1D1B783A68D3181B78012B05D1FB1DFA1D127801
:402CC00001321A7002E0FB1D00221A70FB1D1C783B68181C01F08CFA031C9C4205D13D4B03221A70FB1D00221A70FB1D1B780320191C00F039FA65E0042000F00DFA031C04
:402D00003B60FC1D042000F065FA031C2370FB1D1B783A68D3181B78012B05D1FB1DFA1D127801321A7002E0FB1D00221A70FB1D1C783B68181C01F05BFA031C9C4207D133
:402D4000244B04221A70FB1D00221A7000F08EFFFB1D1B780420191C00F006FA32E0012000F0DAF9031C3B60FC1D012000F032FA031C2370FB1D1B783A68D3181B78012B50
:402D800005D1FB1DFA1D127801321A7002E0FB1D00221A70FB1D1C783B68181C01F028FA031C9C4207D10B4B01221A70FB1D00221A7000F0C7FFFB1D1B780120191C00F048
:402DC000D3F9C046962001F0A7F800F0C1FBBD4603B090BD6C01002090B583B000AF6F4B1B78DBB2022B3AD002DC012B06D0CDE0032B65D0042B00D195E0C7E0022000F029
:402E00008BF9031C3B60FC1D022000F0E3F9031C2370FB1D1B783A68D3181B78022B05D1FB1DFA1D127801321A7002E0FB1D00221A70FB1D1C783B68181C01F0D9F9031C4C
:402E40009C4205D1554B02221A70FB1D00221A70FB1D1B780220191C00F086F996E0032000F05AF9031C3B60FC1D032000F0B2F9031C2370FB1D1B783A68D3181B78022B04
:402E800005D1FB1DFA1D127801321A7002E0FB1D00221A70FB1D1C783B68181C01F0A8F9031C9C4205D13D4B03221A70FB1D00221A70FB1D1B780320191C00F055F965E0B7
:402EC000042000F029F9031C3B60FC1D042000F081F9031C2370FB1D1B783A68D3181B78022B05D1FB1DFA1D127801321A7002E0FB1D00221A70FB1D1C783B68181C01F02B
:402F000077F9031C9C4207D1244B04221A70FB1D00221A7000F0AAFEFB1D1B780420191C00F022F932E0012000F0F6F8031C3B60FC1D012000F04EF9031C2370FB1D1B7829
:402F40003A68D3181B78022B05D1FB1DFA1D127801321A7002E0FB1D00221A70FB1D1C783B68181C01F044F9031C9C4207D10B4B01221A70FB1D00221A7000F0E3FEFB1DDC
:402F80001B780120191C00F0EFF8C046962000F0C3FF00F04DFBBD4603B090BD6C01002080B500AF0420FEF7E3FE031C002B03D10420FEF70DFF02E00420FEF7A7FF052034
:402FC000FEF7D6FE031C002B03D10520FEF700FF02E00520FEF79AFF00F09CFBBD4680BD90B585B000AFFC1D0120FEF7A3FE031C2370BC1D0220FEF79DFE031C237001F09C
:40300000BBF8031C181C072101F02EF80B1C0133FB6001F0B1F8031C181C072101F024F80B1C0133BB6009E001F0A6F8031C181C072101F019F80B1C0133FB60FB1D1A78A8
:40304000FB689A42F0D009E001F096F8031C181C072101F009F80B1C0133BB60BB1D1A78BB689A42F0D0FB68DBB20120191CFEF7F1FDBB68DBB20220191CFEF7EBFD0320AD
:40308000FEF744FF0320FEF7A3FE00F025FF00F0B5FEBD4605B090BD80B582B000AF021C3960FB1D1A70FB1D1B78022B10D002DC012B05D024E0032B12D0042B18D01FE033
:4030C000114A3B68101C191C142201F005F817E00E4A3B68101C191C142200F0FDFF0FE00B4A3B68101C191C142200F0F5FF07E0084A3B68101C191C142200F0EDFFC04621
:40310000BD4602B080BDC046A001002088010020B8010020D001002080B582B000AF021CFB1D1A70FB1D1B78022B0AD002DC012B05D00CE0032B06D0042B06D007E0064BCF
:4031400006E0064B04E0064B02E0064B00E00023181CBD4602B080BDA001002088010020B8010020D001002080B582B000AF0A1CFB1D011C1970BB1D1A70FB1D1B78022B1F
:403180000DD002DC012B05D018E0032B0CD0042B0FD013E00B4BBA1D12781A750EE00A4BBA1D12781A7509E0084BBA1D12781A7504E0074BBA1D12781A75C046BD4602B0CA
:4031C00080BDC046A001002088010020B8010020D001002080B582B000AF021CFB1D1A70FB1D1B78022B0CD002DC012B05D014E0032B0AD0042B0CD00FE00A4B1B7DDBB27F
:403200000CE0094B1B7DDBB208E0084B1B7DDBB204E0074B1B7DDBB200E0FF23181CBD4602B080BDA001002088010020B8010020D001002080B582B000AF021C3960FB1D2D
:403240001A70FB1D1A783B68101C191CFFF724FFFB1D1B78181C0021FFF786FFBD4602B080BDC04680B500AF0C4B181C00F06AFA0B4B181C00F084F90A4B181C00F0F0F96E
:40328000094B181C00F0CEFD002000F0B9FF031C181C00F043FFBD4680BDC046A12F0000112C0000D92D0000E12F000080B500AFFEE7C04680B584B000AF78600F4B1A687A
:4032C0007B68D3181A1C0E4BD31A802B09DC0B4B1B68FB60094B1A687B68D218074B1A6007E000F0CDFE031C0C221A6001235B42FB60FB68181CBD4604B080BDD40000204D
:40330000F001002080B586B000AF224B7B61224B3B61204B7B6135E03B691B68FB603B695B68BB603B699B683B6000237B600CE0FB681A68BB681A60BB680433BB60FB682A
:403340000433FB607B6804337B607A683B689A42EED13B69DB683B6000237B6008E0BB6800221A60BB680433BB607B6804337B607A683B689A42F2D13B6910333B617B698A
:40338000013B7B617B69002BC6D100F07FFEFEF793F8FEE701000000944B000080B582B000AF00237B600FE07B68032B04D8134B7A689200D35800E0114B124A79688900AE
:4033C0008B507B6801337B607B682F2BECD9FDF741FF0D4B00221A600C4B1B68002B02D10A4B00221A608023DB058022D205126801210A431A60BD4602B080BD00110000AB
:40340000AD32000000000020C8000020C000002080B582B000AF786039607A683B68101C00211A1C00F071FEBD4602B080BDC04680B586B000AF7860396000233B61002372
:403440007B612EE07B699B007A68D3181B68BB603B1C0F33BA681A70BB68FF229343BB6017E03B695B003A68D3181B781A1CBB68D3183A69520039688A1852781A703B6974
:4034800001333B613B1C0F331A783B1C0F33013A1A703B1C0F331B78002BE2D17B6901337B617B69092BCDD9BD4606B080BDC04680B500AFBD4680BD80B584B000AF021CA1
:4034C000FB1D1A700E4B1B68DAB23B1C0F3340218A431A70FB1D1B789B01DAB240231340D9B23B1C0F333A1C0F3212780A431A70034B3A1C0F3212781A60BD4604B080BDEF
:403500000001044080B584B000AF021CFB1D1A700E4B1B68DAB23B1C0F3340218A431A70FB1D1B789B01DAB240231340D9B23B1C0F333A1C0F3212780A431A70034B3A1C6C
:403540000F3212781A60BD4604B080BD0000044080B582B000AF094B1B68D9B2FB1D10220A401A70054BFA1D12781A60FB1D1B781B09DBB2181CBD4602B080BD10030440F4
:4035800080B582B000AF786000F048F87B68181C00F008F8032000F011F800F035F8BD4602B080BD80B582B000AF7860024B7A68DA64BD4602B080BD0000002090B585B0D4
:4035C00000AF021CFB1D1A701E23FB603C1C0B3400F098FC031C23700A4B0A4A126892009108FA1D1078FA68041C9440221C0A431A603B1C0B331B78181C00F087FCBD46D9
:4036000005B090BD00E400E080B500AF024B08221A60BD4680BDC04600E100E080B500AF024B08221A60BD4680BDC04680E100E080B582B000AF094B1B68D9B2FB1D0422D6
:403640000A401A70054BFA1D12781A60FB1D1B789B08DBB2181CBD4602B080BD1001044080B582B000AF786000F04AF87B68181C00F008F8032000F011F800F037F8BD4650
:4036800002B080BD80B582B000AF7860024B7A685A64BD4602B080BD0000002090B585B000AF021CFB1D1A700E23FB603C1C0B3400F028FC031C23700A4B0A4A11680A4AE6
:4036C0001140FA1D1078FA68041C9440221C0A431A603B1C0B331B78181C00F017FCBD4605B090BD00E400E0FF3FFFFF80B500AF024B02221A60BD4680BDC04600E100E045
:4037000080B500AF024B02221A60BD4680BDC04680E100E080B582B000AF094B1B68DAB2FB1D7F218A431A70054BFA1D12781A60FB1D1B78DB09DBB2181CBD4602B080BDFE
:403740001000044080B582B000AF786000F04AF87B68181C00F008F8032000F011F800F037F8BD4602B080BD80B582B000AF7860024B7A681A64BD4602B080BD00000020F4
:4037800090B585B000AF021CFB1D1A700623FB603C1C0B3400F0B6FB031C23700B4B0B4A1268C021101C8843011CFA1D1078FA68041C9440221C0A431A603B1C0B331B7876
:4037C000181C00F0A3FBBD4605B090BD00E400E080B500AF024B01221A60BD4680BDC04600E100E080B500AF024B01221A60BD4680BDC04680E100E080B584B000AF021CDE
:40380000FB1D1A700E4B1B68DAB23B1C0F3320218A431A70FB1D1B785B01DAB220231340D9B23B1C0F333A1C0F3212780A431A70034B3A1C0F3212781A60BD4604B080BD2B
:403840000002044080B584B000AF021CFB1D1A700E4B1B68DAB23B1C0F3304218A431A70FB1D1B789B00DAB204231340D9B23B1C0F333A1C0F3212780A431A70034B3A1CA1
:403880000F3212781A60BD4604B080BD0000044080B500AF064B1B78002B04D100F00AF8034B01221A7000F045F8BD4680BDC0466D01002090B583B000AF1C4B1B78DAB228
:4038C000FB1D3F218A431A70184BFA1D127809210A43D2B21A70164B154A1278D2B201210A43D2B21A703C2000F042F83C2000F05DF81E2000F06AF8002000F077F8BC1D16
:4039000000F000FB031C2370094B094A1278D2B210210A43D2B21A70BB1D1B78181C00F0F5FA00F035F8BD4603B090BD72000F4092000F4080B500AF054B054A1278D2B2D8
:40394000802149420A43D2B21A70BD4680BDC04672000F4080B500AF044B044A1278D1B27F220A40D2B21A70BD4680BD72000F4080B582B000AF021CFB1D1A70034BFA1DF6
:4039800012781A70BD4602B080BDC04602000F4080B500AF01E000F043F800F037F8031C1A1C10231340F6D1BD4680BD80B582B000AF021CFB1D1A70034BFA1D12781A706A
:4039C000BD4602B080BDC04642000F4080B582B000AF021CFB1D1A70034BFA1D12781A70BD4602B080BDC04622000F4080B582B000AF021CFB1D1A70034BFA1D12781A7037
:403A0000BD4602B080BDC04682000F4080B500AF024B1B78DBB2181CBD4680BD62000F4080B500AF024B1B78DBB2181CBD4680BD52000F4080B500AF064B1B78002B04D119
:403A400000F00AF8034B01221A7000F045F8BD4680BDC0466E01002090B583B000AF1C4B1B78DAB2FB1D3F218A431A70184BFA1D127809210A43D2B21A70164B154A127808
:403A8000D2B201210A43D2B21A703C2000F042F83C2000F05DF81E2000F06AF8002000F077F8BC1D00F02EFA031C2370094B094A1278D2B210210A43D2B21A70BB1D1B7880
:403AC000181C00F023FA00F035F8BD4603B090BD73000F4093000F4080B500AF054B054A1278D2B2802149420A43D2B21A70BD4680BDC04673000F4080B500AF044B044A20
:403B00001278D1B27F220A40D2B21A70BD4680BD73000F4080B582B000AF021CFB1D1A70034BFA1D12781A70BD4602B080BDC04603000F4080B500AF01E000F043F800F004
:403B400037F8031C1A1C10231340F6D1BD4680BD80B582B000AF021CFB1D1A70034BFA1D12781A70BD4602B080BDC04643000F4080B582B000AF021CFB1D1A70034BFA1D20
:403B800012781A70BD4602B080BDC04623000F4080B582B000AF021CFB1D1A70034BFA1D12781A70BD4602B080BDC04683000F4080B500AF024B1B78DBB2181CBD4680BDA9
:403BC00063000F4080B500AF024B1B78DBB2181CBD4680BD53000F4080B584B000AF021CFB1D1A700E4B1B68DAB23B1C0F3308218A431A70FB1D1B78DB00DAB208231340C3
:403C0000D9B23B1C0F333A1C0F3212780A431A70034B3A1C0F3212781A60BD4604B080BD0000044080B584B000AF021CFB1D1A700D4B1B68DAB23B1C0F3301218A431A70F6
:403C4000FB1D1A7801231340D9B23B1C0F333A1C0F3212780A431A70034B3A1C0F3212781A60BD4604B080BD0000044080B500AF064B1B78002B04D100F00AF8034B0122BB
:403C80001A7000F04FF8BD4680BDC0466F01002090B583B000AF204B1B78DAB2FB1D3F218A431A701C4BFA1D127809210A43D2B21A701A4B194A1278D2B201210A43D2B297
:403CC0001A70174B164A1278D2B201210A43D2B21A70C82000F044F8C82000F05FF8C82000F06CF8042000F079F8BC1D00F00AF9031C23700A4B0A4A1278D2B210210A4336
:403D0000D2B21A70BB1D1B78181C00F0FFF800F037F8BD4603B090BD70000F4090000F4091000F4080B500AF054B054A1278D2B2802149420A43D2B21A70BD4680BDC046F1
:403D400070000F4080B500AF044B044A1278D1B27F220A40D2B21A70BD4680BD70000F4080B582B000AF021CBB1D1A80034BBA1D12881A80BD4602B080BDC04600100F40A8
:403D800080B500AF01E000F043F800F037F8031C1A1C10231340F6D1BD4680BD80B582B000AF021CBB1D1A80034BBA1D12881A80BD4602B080BDC04680100F4080B582B0D5
:403DC00000AF021CBB1D1A80034BBA1D12881A80BD4602B080BDC04640100F4080B582B000AF021CFB1D1A70034BFA1D12781A70BD4602B080BDC04681000F4080B500AF99
:403E0000024B1B78DBB2181CBD4680BD61000F4080B500AF024B1B889BB2181CBD4680BDA0100F4080B582B000AF786000F04AF87B68181C00F008F8032000F011F800F02A
:403E400037F8BD4602B080BD80B582B000AF7860024B7A689A64BD4602B080BD0000002090B585B000AF021CFB1D1A701623FB603C1C0B3400F046F8031C23700A4B0A4A57
:403E800011680A4A1140FA1D1078FA68041C9440221C0A431A603B1C0B331B78181C00F035F8BD4605B090BD00E400E0FFFF3FFF80B500AF024B04221A60BD4680BDC04655
:403EC00000E100E080B500AF024B04221A60BD4680BDC04680E100E080B500AF024B04221A60BD4680BDC04680E200E0000000000230800804D0C0460138FDD1C046C046A9
:403F0000C0467047EFF3108072B6704780F310887047C046C046C04680B582B000AF786008E00C4B1B68181CFFF7E2FF7B680A4A9B187B607A6880231B029A42F1D8074B86
:403F40001B687A685343181CFFF7D2FFBD4602B080BDC046E80000200080FFFFE000002080B582B000AF021CBB1D1A80BB1D1B88044A12785343181CFFF7BAFFBD4602B0A6
:403F800080BDC046E400002090B583B000AFFC1DFFF7B8FF031C2370074B074A126804218A431A6030BFFB1D1B78181CFFF7AEFFBD4603B090BDC04610ED00E0002941D001
:403FC00010B4041C4C40A44601230022002900D54942002800D5404288422CD301242407A14204D2814202D209011B01F8E7E400A14204D2814202D249005B00F8E788422A
:4040000001D3401A1A434C08A04202D3001B5C0822438C08A04202D3001B9C082243CC08A04202D3001BDC082243002803D01B0901D00909E3E7101C6446002C00D5404283
:4040400010BC7047002806D003DB0020C043400801E08020000607B4024802A14018029003BDC046190000000029EBD003B5FFF7A7FF0EBC4243891A1847C0467047C04632
:40408000014B18687047C0464C01002070B50E4B0E4D0024ED1AAD101E1CAC4204D0A300F35898470134F8E700F062FD084B094D0024ED1AAD101E1CAC4204D0A300F358A2
:4040C00098470134F8E770BD7C4B00007C4B00007C4B0000844B000070B5814201D300230CE08C18A042FAD28518131C013B0BD351426618F65C6918CE54F7E7934203D0ED
:40410000CC5CC4540133F9E770BD031C8218934202D019700133FAE77047000038B5104B051C1C68A36B002B15D1182000F090F80C4BA06303800C4B43800C4B83800C4BE5
:40414000C3800C4B0381052343810B2383810122002302614361A36B00221D615A6138BD4C0100200E330000CDABFFFF341200006DE6FFFFECDEFFFF174B10B51C68A36B1C
:40418000002B15D1182000F063F8144BA0630380134B4380134B8380134BC380134B0381052343810B2383810122002302614361084B074AA46B2069616900F0B9F801224C
:4041C000002380185941206161614800400810BD2D7F954C2DF451584C0100200E330000CDABFFFF341200006DE6FFFFECDEFFFF0023C25C0133002AFBD1581E7047000058
:4042000013B5094B041C69461868002200F00EF8002805DB002C01D0009B2360009801E00120404216BDC0464C01002038B5074C0023051C081C111C236000F09BF8431C3C
:4042400003D12368002B00D02B6038BDE801002008B5034B011C186800F004F808BDC0464C01002070B50323CD1C9D430835061C0C2D01D20C2501E0002D3FDB8D423DD3D8
:40428000204B1C681A1C211C002913D00868431B0DD40B2B02D90B60CC181EE08C4202D1636813601AE0486860600C1C16E00C1C4968E9E7144C2068002803D1301C00F053
:4042C00025F82060301C291C00F020F8431C15D0C41C03239C4384420AD12560201C0B300722231D9043C31A0BD05A42E25008E0211A301C00F00AF80130EED10C233360ED
:40430000002070BD740100207001002038B5074C0023051C081C2360FEF7CCFF431C03D12368002B00D02B6038BDC046E80100209C460304F0B51B0C17043F0C150C1E1C61
:40434000041C000C7E436B4347434543FB18300C1818874202D980235B02ED18030CED1863465C434A433604360CA118000480194919F0BD024B5822012040421A60704703
:40438000E801002000000000534F530A00000000001C0000001C0000001C0000001C0000001C0000001C0000001C0000001C0000001C0000001C0000001C0000001C0000A5
:4043C000001C0000001C0000001C0000001C0000001C0000001C0000001C0000001C0000001C0000001C0000001C0000001C0000001C0000001C0000001C0000001C0000FD
:40440000001C0000001C0000001C0000001C0000001C0000001C0000001C0000001C0000001C0000001C0000A81A0000CA1A0000F01A0000121B0000341B0000561B0000C7
:40444000781B00009A1B0000BC1B0000DE1B0000001C0000001C0000001C0000001C0000001C0000001C0000001C00003417000056170000781700009A170000BC17000095
:40448000DE1700000018000022180000441800006618000088180000AA180000CC180000EE1800001019000032190000541900007619000098190000BA190000DC190000A6
:4044C000FE190000201A0000421A0000641A0000861A0000001C0000001C0000001C0000001C0000001C0000001C00003417000056170000781700009A170000BC1700007E
:40450000DE1700000018000022180000441800006618000088180000AA180000CC180000EE1800001019000032190000541900007619000098190000BA190000DC19000025
:40454000FE190000201A0000421A0000641A0000861A00001A1D0000D81C0000E21C0000EC1C0000061D0000101D0000FA1E0000F01D00005E1E0000CC1E0000DA1E00006C
:40458000EA1E0000541E0000061E00000C1E0000141E0000201E0000281E0000341E0000421E0000C21E0000741E00007A1E0000821E00008E1E0000961E0000A21E000001
:4045C000B01E00008C1F00002A1F0000441F00005E1F00006C1F00007C1F00005E2700005E2700005E2700005E2700005E2700005E2700005E2700005E2700005E27000046
:404600005E2700005E2700005E2700005E2700005E2700005E2700005E2700005E2700005E2700005E2700005E2700005E2700005E270000522700005E2700005E27000036
:404640005E2700005E2700005E2700005E2700005E2700005E2700005E2700005E2700005E270000102700005E270000CE2600005E2700009E240000D62400000E25000069
:40468000462500007E250000B6250000EE250000262600005E260000962600005E2700005E2700005E2700005E2700005E2700005E2700005E270000CA200000E4200000E1
:4046C00012210000402100006421000074210000A2210000C6210000F42100000E2200003C220000602200008E220000A8220000C2220000E622000014230000422300003B
:40470000662300008A2300009A230000BE230000EC230000102400003E240000702400005E2700005E2700005E2700005E2700005E2700005E270000CA200000E420000060
:4047400012210000402100006421000074210000A2210000C6210000F42100000E2200003C220000602200008E220000A8220000C2220000E62200001423000042230000BA
:40478000662300008A2300009A230000BE230000EC230000102400003E24000070240000B82B0000B82B0000B82B0000B82B0000B82B0000B82B0000B82B0000B82B0000D4
:4047C000B82B0000B82B0000B82B0000B82B0000B82B0000B82B0000B82B0000B82B0000B82B0000B82B0000B82B0000B82B0000B82B0000B82B0000B82B0000B82B000089
:40480000B82B0000B82B0000B82B0000B82B0000B82B0000B82B0000B82B0000B82B0000B82B0000B82B0000B82B0000B82B0000B82B0000B82B0000B82B0000B82B000048
:40484000B82B0000B82B0000B82B0000B82B0000B82B0000B82B0000B82B0000B82B0000B82B0000B82B0000B82B0000B82B0000B82B0000B82B0000B82B0000E0280000E3
:40488000FC2800001829000034290000502900006C29000088290000A4290000C0290000DC290000F8290000142A0000302A00004C2A0000682A0000842A0000A02A000083
:4048C000BC2A0000D82A0000F42A0000102B00002C2B0000482B0000642B0000802B00009C2B0000B82B0000B82B0000B82B0000B82B0000B82B0000B82B0000E028000052
:40490000FC2800001829000034290000502900006C29000088290000A4290000C0290000DC290000F8290000142A0000302A00004C2A0000682A0000842A0000A02A000002
:40494000BC2A0000D82A0000F42A0000102B00002C2B0000482B0000642B0000802B00009C2B00000400000000300F40000400400F40000403000F403D300F401C310F4067
:404980004F320F402D330F4006400F4003410F4002420F4002430F4002600F40810D820D830D2E01340136014010410449FF4AFF4BFF4DA04F045018528058045A045B042D
:4049C0005F01604062C06440654066C068C06AC06CC06EC08F0194029A03AF01B002B201B501BF10C060C105C5D1C602C807C9FFCAFFCBFFCDAFCE0FCF04D018D405D604E8
:404A0000D804D904DA04DB04DF01E040E2C0E440E540E6C0E8C0EAC0ECC0EEC00E200F081002180119801B101E6027082D803F80400142804FA9568057405E405F09674061
:404A400070028740C260C401CA10CE10D009D230D6D0D880030116011E0C26012D012E06300832023401360437013E104030410645D046204710482A49FF4AFF4BFF4DA093
:404A80004F04501852805405580459045A045B045F01604062C06440654066C068C06AC06CC06EC08A0192069B01A101A60CAA01B008B202B401B604B701BE10C030C10687
:404AC000C5D1C702C813C9FFCAFFCBFFCDA0CF04D018D280D405D804D904DA04DB04DF01E040E2C0E440E540E6C0E8C0EAC0ECC0EEC0001009020D080F0210281620174015
:404B0000181219021A041D481E081F022240264029022F0230203F0240104508482849014F2150085620571159015A845E885F017102774080018540C002C2A8C4A6CA1155
:404B4000CC04CE80D042D224D6DBE404572073028702D440DC20E6408720A720E6106702D6018301970210011101000043000000F8B5C046F8BC08BC9E4670478114000049
:404B80009D330000F8B5C046F8BC08BC9E46704759140000A84B0000D000002080000000A00000000000000000000000F0010020C0F1FF0F00366E01C05D00001800000045
:404BC0000000E02E00000000000000000000000000000000000000000000000000000000000000006C4B0000000000000000000000000000000000000000000000000000F0
:404C0000000000000000000000000000000000000000000000000000000000000000000000000000EC00002000000000000000000000000000000000000000000000000068
:404C40000000000000000000000000000000000000000000000000000000000000000000000000000000000000000000000000000000000000000000000000000000000034
:404C800000000000000000000000000000000000000000000000000000000000000000000000000000000000000000000000000000000000000000000000000000000000F4
:404CC00000000000000000000000000000000000000000000000000000000000000000000000000000000000000000000000000000000000000000000000000000000000B4
:404D00000000000000000000000000000000000000000000000000000000000000000000000000000000000000000000000000000000000000000000000000000000000073
:407FC000D11111000021000000803B0000000000000001000000010000000000000000000000000000000000000000000000000000000000000000000000000000000000B0
:0200000490303A
:02000000AE90C0
:0200000490402A
:20000000FFFFFFFF00000000000000000000000000000000000000000000000000000000E4
:0200000490501A
:0C000000000204C81193110004E5C023A5
:0200000490600A
:0100000001FE
:00000001FF