:400000000010002011000000B5030000B503000008B500F079FA00F0CFF90000F7B572B680220021D200554800F0D7FF802200215348D20000F0D1FF0023191C514C185915
:400040001034C2B20192071CFF2297434A00A4180022019ED5B2AE4209D05500665D6519B446BC446D78664635700132F1E7C0B204330918102BE1D1434BC02292041A60F8
:40008000424B99221A60424A00231360414A80211160414AC9031160404A40211160404AC021490311603F4A312113603E4B02221A603E4B802019603D4B3E491A60992317
:4000C0001B040B603C49000608603C493C200B603B4B8021890519603A493B4B19603B4B19780A431A703A4A117881431420014311701A7816210A431A70364A8023116893
:40010000DB020B431360344B141C1878334BC0B21978334BC9B21A78172A05D9314A58789978033B9342F6D12F4B192218602F4B052019602E4B1A6000F052FD2D4B05206D
:400140001A782D4BD2B21A6000F088FE22682B4B134023602A4A2B4B1A602B4B10221A602A4B20221A602A4B802212061A60294A294B1A60294A2A4B1A60F7BD00300F40D5
:4001800000400F40F80F000004000140100001400C000140000004400800044000010440080104400803044000040440080404401804044000500F4004500F4010500F406C
:4001C00018500F40100001002001054000700F4001700F4000010B40CCF1FF0FCDF1FF0FC9F1FF0FBDF1FF0F1CFF0B4020FF0B402CFF0B40E5F1FF0F28FF0B40FFFFFBFF57
:400200000600008004010B40080202402002024008010B401000008000000240AF0400804000024010B5064C2378002B07D1054B002B02D0044800E000BF0123237010BDEC
:40024000F000002000000000F40F000008B5084B002B03D00748084900E000BF07480368002B03D0064B002B00D0984708BDC04600000000F40F0000F4000020D000002069
:400280000000000010B562B600F0A2FC00280ED16524012000F0CCFD00F09AFC002806D1013CE4B2002CF4D1034B40221A6000F081FC00F0D3FAFEE7C000002008B500F05A
:4002C0000BFB00F043FB00F0ABFB08BD70B5054B0D1C161C0024C9B21C8000F095FB3580201C70BD0C010020F0B50A275F4387B003900591151C00262D4CBE4219DA00F00E
:4003000013FB80B220802388002B0CD00220268800F08EFD00F008FB80B220802388B6B2B342F3D807E00120013600F081FDB6B2E2E7052600E0002600272F802388002B8D
:4003400033D023889BB2019301992B885A18059992B22A808A4221D2019ABB189BB2029302998F4209D07B1C9BB20493039BDF1900F0C0FA3870049FF2E772B62388019A02
:400380009B1A9BB2238062B6039A5318013B1B78172B08D0052000F04BFD04E02B8000F0D5FA052601E0029FC8E7301C07B0F0BD0C010020FEE7000070B51048104B0138B5
:4003C000421C15D01E685C689D680022A118AA4203D0B158A1500432F8E7DA680D1C4C1B944202D0002410C1F9E710330138E7E700F0C4FDFFF746FFFEE7C0460100000051
:400400004810000008B500239A00032B02D80D49895800E00C490D4801338150302BF3D1FFF7FCFD0A4B00221A600A4B1A68002A00D11A608023DB051A6801210A431A60E3
:4004400008BDC04600000000B503000000000020C8000020C0000020004710B50023002A05D0013A4418A45C1B19DBB2F7E7181C10BD0000013800B509282AD8C901494236
:4004800000F068FD0507090B0D0F1614181B144B08E0144B12E0144B0DE0144B0EE0144B00E0144BC9180878C0B217E0124B02E0124B00E0124BC9180CE0124BC9180B784E
:4004C00048788A780002120410431843CB781B0603E000210B7848780002184300BDC046C07F0000C17F0000C57F0000C97F0000D07F0000D17F0000D67F0000D27F000059
:40050000D47F0000D87F00000C4B10B51A6810231A400B4B00D11A601A68802A0DD100240220211C1C60FFF7A5FFA04205D0211C0220FFF79FFFFFF78FFF10BD00030B4059
:40054000C0000020F8B5051C291C0320FFF792FF291C041C0420FFF78DFF671CFF013F18291C0320FFF786FF00240130C001261CB84209D203785A1ED2B2FD2A00D801264C
:400580001C19E4B20130F3E70120291CFFF772FF6442E4B20623844203D17242564176423340181CF8BD0000F0B5A44CA544FFF785FE62B600260096002506AC03AE962130
:4005C000201C4900321CFF23FFF78EFE0028F4D13188062900D88AE022780423012A54D1E778A2783F021743E2195679B44616790196FE1D8E427FD89279172A45D1FB18A7
:400600009BB2002B08D09CA98D4ECA1892191278013B801880B2F3E7019B614640420A0280B21A43082382422FD167E0342B00D09DE0009901295AD1032F58D151A80021AE
:40064000802200F0CAFC802551A948192639ED19FA1EFF39ADB200F0B7FC832D49D1A079637900021843774B36021B6880191A6880B2D3099BB2560601D001339BB29842D4
:400680007BD20127009700250A2300210120207068466A46437681766B4600200E32D8760B1D11809BB29CAFFE18654F013BF61936789BB2801980B2002BF4D19CAE624F86
:4006C0007318DE194042614F80B23070DE19000A30705F4807311B181720187089B2201C9623FFF7F3FD68E7009E012E1BD00423CBE70126009600250323C6E763782679DD
:40070000181C31380A2801D90523BEE700F02CFCECFF1400FCFF8EFF3F00FCFF430054008EFF63008B00002FE1D1381CFFF70AFF43424341237173E000980128D7D1012F9B
:40074000D5D1002ED3D13F4B1B681B68DA0BD2B2DB09DBB2002A01D080235B0023711B0A6371FF23A3710023E37104218EE7009B012BBCD1022FBAD966E751A900F044FA3D
:40078000002800D07DE701260096051C12E0009F012FACD110E7009E012EA8D19623EE195B009E42A8D851A948193A1C07A900F00BFCB5B2002368E7002F98D104AB254A22
:4007C000191C41CA41C107AA41CB41C2012600963B1C08215AE70098012888D1032F86D1A37962791B021A43310251180192C90100208022FFF731FE071C002E0ED10199BB
:40080000FF290BD1311C0520FFF734FE311C3F1A0620FFF72FFEFFB23F1AFFB27F4227710023012132E70020FFF78CFE002802D1094B80221A6000F0EFFA58E78CFDFFFF0F
:40084000A7FDFFFFD4000020ACFDFFFFADFDFFFFAEFDFFFF1C100000C000002070B50020FFF770FE0024A04200D00624114E00203368C0211D682A1CC03AFFF7EEFD7368B9
:400880001B78181AC0B2984201D1002D02D1002000F0C0FA084B19681A1C402901D0002C03D000231360FFF77FFE80221A6000F0B3FA70BDD4000020C000002008B5054B78
:4008C0008022196812060A431A600A2000F08EFA08BDC0460000064010B5054C2378002B03D100F0BFF801232370FFF7E7FF10BD10010020094B0A4A1968136899420BD001
:4009000011684B1C4039481E814149420B400549C85C1360C0B200E000207047B0010020280100206C010020064B074A1B6811688B4202D31068181A02E012684133981A3F
:400940007047C046B0010020280100200C4A0D4B002130B5106811601D68802464022C431C601D68084C2C401C60084B1C68084B1C60084B19700849084B1960106030BDCC
:40098000C80F064004030640FFFFFEFF28010020B0010020AD010020ED0F0000C00F0640124910B50A68531C3F3A541EA241524213400F4A1468A342FBD00C6812689442DA
:4009C00008D10C4A14680F222240082A02D00A4B18600AE0094C02222260094CC0B2E0540B60084B19680A431A6010BD24010020200100200802064040020640800F064002
:400A00002C010020880F064038B5041C4518AC4204D02078FFF7C4FF0134F8E738BD00000B4A0023116810B513600A4B80201C684002204318601C68074820401860074B4A
:400A40001868074B186002239943116010BDC046880F064004020640FFFFFEFF20010020240100201D4A1E4B10B51A601D4B00241C601D4B01221A601C491D4B07200B60C2
:400A80001C4908601C490A200C601C490A601C4A13601C4B1C6000F0B3F90A20032100F08BF919490A2000F07FF9184B04221C60174B1C60174B1C60174B1C60174B1A6016
:400AC000174B1C60174B1C60174B1C60174B1C70174B1C60174B1C6010BDC0460B000002000006404000064048000640000306400700008004030640100306404400064078
:400B00000002064004020640710E0000880E0640C80E0640480F0640080F0640C80F0640880F0640B001002028010020AD01002024010020200100200E4B8422D2041A60F9
:400B40001968802252020A431A600B490B4A0A60196819600A4BC32189001960094B00211960094B1C211960084B1A60084A094B1A60704700010540080105401027000088
:400B800024010540380105402801054014010540881300000C01054008B500F02BF8044B01211A680A431A6000F028F808BDC0460000054010B5054C2378002B03D1FFF748
:400BC000BBFF01232370FFF7E7FF10BD18010020024B18680006C00F7047C046040004400230800804D0C0460138FDD1C046C046C0467047EFF3108072B6704780F310883B
:400C00007047C046C046C046F0B50024CBB0069404900794FF2800D9A4E0A14200D1A1E008AD8022281C00F0CFF9231C211C221C029498002858002802D01218014302936D
:400C40000133202BF5D1002A05D1002900D08EE00191039102E0002001900390484F7F2328AE291C80222AA82897464C736000F0ABF9454A454B266013602168090F0A2910
:400C800003D022680F23134000E000230693069F002F69D1FFF7AEFF3D4A3E4B116807971960069B0590002B14D13B4A04982892289A01040A43289228AA22603249374A26
:400CC0000A602268120F0A2A03D02E4B1A680F2313400693069F002F38D1019A002A35D0391C8022281C00F078F90298039A08A983005A50224B2AA8289380227F23736056
:400D000000F062F9214820492660086023681B0F0A2B03D01B4B1F680F231F400697069B002B13D11E4A04982892289A01040A43289215491B4A26600A602268120F0A2A02
:400D400003D0104B1A680F2313400693079B002B04D1104A0E481268026007930598FFF74DFF01E00423069306984BB0F0BD02998B00E85801210390EA5001916EE7C046D5
:400D8000B6D7000008000040040000400400008008010B401C010020B6D8000005000080B6D9000006000080024A83009B181868196070474000002038B5041C0D1CFFF71F
:400DC00019FFA308084A9B009B1803221440944019680634A2409143A5400C1C2C431C60FFF70CFF38BDC04600E400E01F23184001238340181C014B1860704700E100E029
:400E00001F23184001238340181C014B1860704780E100E001BE7047034B04491A6892B20A431A607047C0460CED00E00400FA0510B5041C8022074B1202944205D91868E9
:400E4000FFF7CEFE044BE418F4E758686043FFF7C7FE10BDDC0000200080FFFF08B5034B1B7A5843FFF7BCFE08BDC046DC000020274B10B51B68002B00D09847254B1B68EC
:400E80005A071DD5244B1B681A0716D0234B244A186811684B1C40394C1EA14149420B40204909688B4203D11F4B20221A70E9E71E49C0B2C8541360E4E71D4B04221A6053
:400EC0001C4B1B689A0721D51B4B1A680F231340082B18D0194B1A4A1968136899420DD011684B1C3F39481E814149420B401549C85C1549C0B208601360E5E7134B02219D
:400F00001A688A431A60124B02221A6010BDC04614010020CC0F06400803064040030640B001002028010020AD0100206C010020C00F06408C0F06400802064024010020EA
:400F4000200100202C01002040020640880F0640800F064002B4714649084900095C49008E4402BC7047C04603B47146490840004900095E49008E4403BC704770B50E4BE9
:400F80000E4D0024ED1AAD101E1CAC4204D0A300F35898470134F8E700F044F8084B094D0024ED1AAD101E1CAC4204D0A300F35898470134F8E770BD3010000030100000CA
:400FC000301000003810000010B50023934203D0CC5CC4540133F9E710BD031C8218934202D019700133FAE77047000078100000750000000000000001330F4003410F40F0
:4010000004430F4002600F40E61062048E04D84018808C40C608E608020111019311C804111E0101F8B5C046F8BC08BC9E4670474D02000005040000F8B5C046F8BC08BC44
:401040009E4670472502000058100000D000002020000000C800000000000000EC0F0000F00F00000000E02EC05D00001800000000366E010000000000000000000000008C
:401080000010002091100000F7180000F718000008B5024B83F3088800F044FC00100020F7B572B680220021D200634800F0DCFE802200216148D20000F0D6FE0023191C99
:4010C0005F4C18592034C2B20192071CFF2297434A00A4180022019ED5B2AE4209D05500665D6519B446BC446D78664635700132F1E7C0B204330918202BE1D1514A802170
:4011000049001180504A01211170504A032111604F4AC021890311604E4AEE21090211604D4A812111604D494D4A3C2011604D4AC021090211604C4A042111604B494C4AE1
:4011400011604C4A802113604B4A090613604B4BDB2212041A604A4B10221A60494BB62292011A60484B802292001A60474A99231B041360464A1160464A80218902116012
:40118000454A80211360454A89031160444A80211360444AC9041160434A02211360434B802292041A60424B1A780A431A70414A117881431420014311701A7816210A4352
:4011C0001A703D4A80231168DB020B4313603B4B141C18783A4BC0B219783A4BC9B21A78172A05D9384A58789978033B9342F6D1364B19221860364B05201960354B1A601B
:4012000000F066FD344B05201A78344BD2B21A6000F088FD2268324B13402360314A324B1A60324B10221A60314B802212061A60304A314B1A60F7BD00300F4000400F40D9
:40124000F420000000600F4002600F4000000140080001400C00014000000440B6015800080004400C0004400001044080001800080104400C010440000204400802044025
:4012800000030440080304400C03044000500F4004500F4008500F4010500F4014500F4020500F4028500F4030500F4034500F4000700F4001700F4000010B40CCF1FF0F3C
:4012C000CDF1FF0FC9F1FF0FBDF1FF0F1CFF0B4020FF0B402CFF0B40E5F1FF0F28FF0B40FFFFFBFF0600008004010B403002024008010B406F1700800000024010B5064C0D
:401300002378002B07D1054B002B02D0044800E000BF0123237010BD5001002000000000E420000008B5084B002B03D00748084900E000BF07480368002B03D0064B002B5D
:4013400000D0984708BDC04600000000E420000054010020D00000200000000008B562B600F088F9022000F00CF9022000F009F900F078F90320024900F0ABFAF5E7C046D3
:40138000E820000010B50C1C022808D0032803D0012806D1034B03E00120FFF7F3FF024B5C7010BD7C0100207A010020013810B50C1C04280FD800F0BFFC0308050A0C00D6
:4013C000054B07E00120FFF7F1FF044B02E0044B00E0044B1C7010BD7C0100207A0100207901002078010020012803D0022805D1034B00E0034B5878C0B200E0FF207047CC
:401400007A0100207C010020013800B504280ED800F092FC03050D070900064B04E0064B02E0064B00E0064B1878C0B200E0FF2000BDC0467C0100207A0100207901002051
:4014400078010020013808B504285AD800F074FC032A274D52002B4B5878013806281BD800F06AFC040B08170E151200012000F017FC11E0012000F013FC00F003FC0BE0C4
:40148000012000F00DFC04E0012000F009FC00F0F9FB012000F038FB0120011C2FE00120FFF7D0FF184B5878013806281BD800F043FC040B08170E151200012000F0FCFB96
:4014C00011E0012000F0F8FB00F082FB0BE0012000F0F2FB04E0012000F0EEFB00F078FB012000F01DFB022008E0012000F076FA042003E0012000F065FA05200121FFF7F8
:4015000055FF08BD7C0100207A010020013808B5042827D800F010FC03100D1A1F00002000F0BEFB00F06AFB002000F0EDFA012015E00120FFF7EAFF002000F0BDFB00F001
:4015400003FB002000F0ECFA022008E0002000F045FA042003E0002000F034FA05200021FFF724FF08BD08B50120FFF7CFFF0220FFF7CCFF0420FFF7C9FF0520FFF7C6FF6E
:4015800008BD10B5041CFFF7EEFF211C0120FFF7F9FE0220211CFFF7F5FE10BD38B5104B1A781C1C0132D2B21A701A780A2A11D10120FFF719FF051C00F08EFC072100F061
:4015C0001BFC0131C9B2A942F6D00120FFF7DAFE00232370962000F08FFB00F00BFA38BD6C01002038B5104B5A781C1C0132D2B25A705A780A2A11D10220FFF7F5FE051C43
:4016000000F06AFC072100F0F7FB0131C9B2A942F6D00220FFF7B6FE00236370962000F06BFB00F013FA38BD6C01002008B50420FFF7EAFE002803D10420FFF703FF02E0E6
:401640000420FFF763FF0520FFF7DEFE002803D10520FFF7F7FE02E00520FFF757FF00F025FA08BD024B00221A705A707047C0466C01002008B5074800F034FA064800F04F
:40168000D3F9064800F000FA002000F069FC00F0F3FB08BD2D1600009D150000E515000010B5041CFFF7CEFEFA20400000F024FB201CFFF72BFFFA2000F01EFB10BD0000C3
:4016C00010B5041CFFF7BEFE044800F015FB201CFFF71CFFFA2000F00FFB10BDDC05000038B50120FFF780FE0721051C0320FFF749FE05240320FFF7A5FEFA2000F0FCFAE8
:401700000320FFF703FF013CFA2000F0F5FA002CF0D1291C0320FFF735FE38BD08B5FA20800000F0E9FA08BD10B5041C081C20385A2800D9CCE000F0FFFAC7CBCBCBCBCBE7
:40174000CBCBCBCBCBCBB2CBA2CB4D5158626670747B8592CBCBCBCBCBCBCBAE7E2E8B9E3298778E5BAB39BE9B5E3D413581C16C69BB454988CBCBCBCBCBCBAE7E2E8B9ED4
:401780003298778E5BAB39BE9B5E3D413581C16C69BB45498800201CFFF792FF02E0201CFFF77EFF201CFFF77BFF61E0201CFFF777FF4DE0201CFFF773FF56E0201CFFF7A7
:4017C0007FFF65E0201CFFF77BFF22E0201CFFF777FF6DE0201CFFF773FF02E0201CFFF75FFF201CFFF76CFF05E0201CFFF758FF201CFFF755FF201CFFF762FF5BE0201CD2
:40180000FFF74EFF51E0201CFFF74AFF201CFFF747FF201CFFF744FF3DE0201CFFF740FF02E0201CFFF74CFF201CFFF739FF05E0201CFFF745FF201CFFF742FF201CFFF775
:401840002FFF08E0201CFFF73BFF201CFFF738FF201CFFF735FF201CFFF722FF0BE0201CFFF72EFF201CFFF72BFF201CFFF728FF201CFFF725FF201CFFF712FF21E0201CEF
:40188000FFF70EFF201CFFF71BFF201CFFF708FF201CFFF715FF201CFFF702FF0EE0201CFFF70EFF201CFFF70BFF201CFFF7F8FE201CFFF7F5FE201CFFF702FF201CFFF70C
:4018C000FFFEFFF72BFF03E0FA20800000F014FA10BD70B5061C0D1CFFF702FF0024281C00F036FB844205D2295D301CFFF71CFF0134F4E770BDFEE7084A08B51368084916
:401900001818411A802901DC106005E000F080FA0C23036001235B42181C08BDD40000208801002070B51048104B0138421C15D01E685C689D680022A118AA4203D0B158A8
:40194000A1500432F8E7DA680D1C4C1B944202D0002410C1F9E710330138E7E700F05EFAFFF7FCFCFEE7C046010000004422000008B500239A00032B02D80D49895800E0A7
:401980000C490D4801338150302BF3D1FFF788FB0A4B00221A600A4B1A68002A00D11A608023DB051A6801210A431A6008BDC04680100000F718000000000020C800002043
:4019C000C0000020044B4022196880019143C9B202400A431A60704700010440044B4022196880019143C9B202400A431A60704700000440034B1022186810401860000929
:401A0000C0B270471003044010B5041C00F06AF9044BA4071A689200920814431C6000F065F910BD00E400E0054B10B508241C60044BD8640320FFF7E7FF034B1C6010BDB6
:401A400080E100E00000002000E100E0034B04221868104018608008C0B270471001044038B5041C00F03EF9054B06491D68A2032C1C0C4014431C6000F038F938BDC04602
:401A800000E400E0FF3FFFFF054B10B502241C60044B58640320FFF7E3FF034B1C6010BD80E100E00000002000E100E0034B7F2218689043C0B21860C009704710000440B0
:401AC00010B5041C00F00EF9054BA2011968C024A1430C1C14431C6000F008F910BDC04600E400E0054B10B501241C60044B18640320FFF7E5FF034B1C6010BD80E100E0F5
:401B00000000002000E100E0044B7F2219681140C201081C1043C0B21860704700020440044B0422196880009143C9B202400A431A60704700000440024B802219780A434B
:401B40001A70704772000F40024B7F2219780A401A70704772000F40034B1B78DA0602D5024B1B78F8E7704762000F4052000F4010B5114B3F211A78104C8A4309210A4385
:401B80001A702378012213430D4A23703C2313700C4A13700C4B1E221A700C4B00221A7000F0A0F8237810221343237000F09EF8FFF7D2FF10BDC04672000F4092000F40BE
:401BC00002000F4042000F4022000F4082000F4010B5054C2378002B03D1FFF7C9FF01232370FFF7A9FF10BD6E010020024B802219780A431A70704773000F40024B7F22E4
:401C000019780A401A70704773000F40034B1B78DA0602D5024B1B78F8E7704763000F4053000F4010B5114B3F211A78104C8A4309210A431A702378012213430D4A237029
:401C40003C2313700C4A13700C4B1E221A700C4B00221A7000F046F8237810221343237000F044F8FFF7D2FF10BDC04673000F4093000F4003000F4043000F4023000F40E1
:401C800083000F4010B5054C2378002B03D1FFF7C9FF01232370FFF7A9FF10BD6F010020044B4022196880019143C9B202400A431A60704700020440044B022219684000F6
:401CC0009143C9B202400A431A607047000004400230800804D0C0460138FDD1C046C046C0467047EFF3108072B6704780F310887047C046C046C04610B5041C8022074B2F
:401D00001202944205D91868FFF7E2FF044BE418F4E758686043FFF7DBFF10BDD80000200080FFFF08B5034B1B7A5843FFF7D0FF08BDC046D800002002B47146490849001E
:401D4000095C49008E4402BC7047C046002941D010B4041C4C40A44601230022002900D54942002800D5404288422CD301242407A14204D2814202D209011B01F8E7E40034
:401D8000A14204D2814202D249005B00F8E7884201D3401A1A434C08A04202D3001B5C0822438C08A04202D3001B9C082243CC08A04202D3001BDC082243002803D01B098F
:401DC00001D00909E3E7101C6446002C00D5404210BC7047002806D003DB0020C043400801E08020000607B4024802A14018029003BDC046190000000029EBD003B5FFF789
:401E0000A7FF0EBC4243891A1847C0467047C046014B18687047C0464801002070B50E4B0E4D0024ED1AAD101E1CAC4204D0A300F35898470134F8E700F0F2F9084B094DD4
:401E40000024ED1AAD101E1CAC4204D0A300F35898470134F8E770BD2C2200002C2200002C22000034220000031C8218934202D019700133FAE7704738B5104B051C1C688E
:401E8000A36B002B15D1182000F092F80C4BA06303800C4B43800C4B83800C4BC3800C4B0381052343810B2383810122002302614361A36B00221D615A6138BD4801002059
:401EC0000E330000CDABFFFF341200006DE6FFFFECDEFFFF00000000174B10B51C68A36B002B15D1182000F063F8144BA0630380134B4380134B8380134BC380134B038195
:401F0000052343810B2383810122002302614361084B074AA46B2069616900F0B9F80122002380185941206161614800400810BD2D7F954C2DF45158480100200E33000076
:401F4000CDABFFFF341200006DE6FFFFECDEFFFF0023C25C0133002AFBD1581E7047000013B5094B041C69461868002200F00EF8002805DB002C01D0009B2360009801E0D5
:401F80000120404216BDC0464801002038B5074C0023051C081C111C236000F09BF8431C03D12368002B00D02B6038BD8001002008B5034B011C186800F004F808BDC04628
:401FC0004801002070B50323CD1C9D430835061C0C2D01D20C2501E0002D3FDB8D423DD3204B1C681A1C211C002913D00868431B0DD40B2B02D90B60CC181EE08C4202D1A5
:40200000636813601AE0486860600C1C16E00C1C4968E9E7144C2068002803D1301C00F025F82060301C291C00F020F8431C15D0C41C03239C4384420AD12560201C0B3015
:402040000722231D9043C31A0BD05A42E25008E0211A301C00F00AF80130EED10C233360002070BD740100207001002038B5074C0023051C081C2360FFF73EFC431C03D18A
:402080002368002B00D02B6038BDC046800100209C460304F0B51B0C17043F0C150C1E1C041C000C7E436B4347434543FB18300C1818874202D980235B02ED18030CED1814
:4020C00063465C434A433604360CA118000480194919F0BD024B5822012040421A60704780010020000000005A4D3643435042340000000002000F404C320F402B330F40FA
:4021000002400F4002410F4002420F4002430F4002600F40820D830D0F0114041A0727012E09300432023408350136013F104020410545D14602480749FF4AFF4BFF4DA062
:402140004F04501852805405580459045A045B045F01604062C06440654066C068C06AC06CC06EC08701920993019C04A607B004B201B301B408B602BF04C020C105C5D134
:40218000C720C823C9FFCAFFCBFFCDA0CF04D018D280D405D804D904DA04DB04DF01E040E2C0E440E540E6C0E8C0EAC0ECC0EEC009020A010E200F0810201780180419088D
:4021C0001A411DA01EA01F20220427082F20300238043F8040044520482249014F895002574059015A485E805F097102778081088D80C269C484CA40CC01CE12D024D21891
:40220000D6DBE210E4045A80D4808E4096806702D6018301970210011101000043000000F8B5C046F8BC08BC9E4670472513000071190000F8B5C046F8BC08BC9E467047F0
:40224000FD12000058220000D000002080000000380000000000000000000000880100200000E02EC05D00001800000000366E01000000000000000000000000000000009C
:40228000000000000000000000000000000000001C2200000000000000000000000000000000000000000000000000000000000000000000000000000000000000000000E0
:4022C00000000000000000000000000000000000E80000200000000000000000000000000000000000000000000000000000000000000000000000000000000000000000D6
:40230000000000000000000000000000000000000000000000000000000000000000000000000000000000000000000000000000000000000000000000000000000000009D
:40234000000000000000000000000000000000000000000000000000000000000000000000000000000000000000000000000000000000000000000000000000000000005D
:40238000000000000000000000000000000000000000000000000000000000000000000000000000000000000000000000000000000000000000000000000000000000001D
:4023C00000000000000000000000000000000000000000000000000000000000000000000000000000000000000000000000000000000000000000000000000000000000DD
:407FC0000C91100000200000008012000000000000000100000001000000000000000000000000000000000000000000000000000000000000000000000000000000000020
:0200000490303A
:020000007FB1CE
:0200000490402A
:20000000FFFFFFFF00000000000000000000000000000000000000000000000000000000E4
:0200000490501A
:0C000000000204C81193110004D39144C5
:0200000490600A
:0100000001FE
:00000001FF